
myH750Pro.elf:     file format elf32-littlearm

Sections:
Idx Name          Size      VMA       LMA       File off  Algn
  0 .isr_vector   00000298  90000000  90000000  00010000  2**0
                  CONTENTS, ALLOC, LOAD, READONLY, DATA
  1 .text         00006268  90000298  90000298  00010298  2**2
                  CONTENTS, ALLOC, LOAD, READONLY, CODE
  2 .rodata       000001e4  90006500  90006500  00016500  2**2
                  CONTENTS, ALLOC, LOAD, READONLY, DATA
  3 .ARM          00000008  900066e4  900066e4  000166e4  2**2
                  CONTENTS, ALLOC, LOAD, READONLY, DATA
  4 .init_array   00000004  900066ec  900066ec  000166ec  2**2
                  CONTENTS, ALLOC, LOAD, DATA
  5 .fini_array   00000004  900066f0  900066f0  000166f0  2**2
                  CONTENTS, ALLOC, LOAD, DATA
  6 .data         00000010  24000000  900066f4  00020000  2**2
                  CONTENTS, ALLOC, LOAD, DATA
  7 .bss          000000b0  24000010  90006704  00020010  2**2
                  ALLOC
  8 ._user_heap_stack 00000600  240000c0  90006704  000200c0  2**0
                  ALLOC
  9 .ARM.attributes 0000002e  00000000  00000000  00020010  2**0
                  CONTENTS, READONLY
 10 .debug_info   0001007d  00000000  00000000  0002003e  2**0
                  CONTENTS, READONLY, DEBUGGING, OCTETS
 11 .debug_abbrev 00001e58  00000000  00000000  000300bb  2**0
                  CONTENTS, READONLY, DEBUGGING, OCTETS
 12 .debug_aranges 00000a30  00000000  00000000  00031f18  2**3
                  CONTENTS, READONLY, DEBUGGING, OCTETS
 13 .debug_ranges 00000978  00000000  00000000  00032948  2**3
                  CONTENTS, READONLY, DEBUGGING, OCTETS
 14 .debug_macro  00035dbb  00000000  00000000  000332c0  2**0
                  CONTENTS, READONLY, DEBUGGING, OCTETS
 15 .debug_line   0000fe98  00000000  00000000  0006907b  2**0
                  CONTENTS, READONLY, DEBUGGING, OCTETS
 16 .debug_str    001572c1  00000000  00000000  00078f13  2**0
                  CONTENTS, READONLY, DEBUGGING, OCTETS
 17 .comment      00000050  00000000  00000000  001d01d4  2**0
                  CONTENTS, READONLY
 18 .debug_frame  00002858  00000000  00000000  001d0224  2**2
                  CONTENTS, READONLY, DEBUGGING, OCTETS

Disassembly of section .text:

90000298 <__do_global_dtors_aux>:
90000298:	b510      	push	{r4, lr}
9000029a:	4c05      	ldr	r4, [pc, #20]	; (900002b0 <__do_global_dtors_aux+0x18>)
9000029c:	7823      	ldrb	r3, [r4, #0]
9000029e:	b933      	cbnz	r3, 900002ae <__do_global_dtors_aux+0x16>
900002a0:	4b04      	ldr	r3, [pc, #16]	; (900002b4 <__do_global_dtors_aux+0x1c>)
900002a2:	b113      	cbz	r3, 900002aa <__do_global_dtors_aux+0x12>
900002a4:	4804      	ldr	r0, [pc, #16]	; (900002b8 <__do_global_dtors_aux+0x20>)
900002a6:	f3af 8000 	nop.w
900002aa:	2301      	movs	r3, #1
900002ac:	7023      	strb	r3, [r4, #0]
900002ae:	bd10      	pop	{r4, pc}
900002b0:	24000010 	.word	0x24000010
900002b4:	00000000 	.word	0x00000000
900002b8:	900064e8 	.word	0x900064e8

900002bc <frame_dummy>:
900002bc:	b508      	push	{r3, lr}
900002be:	4b03      	ldr	r3, [pc, #12]	; (900002cc <frame_dummy+0x10>)
900002c0:	b11b      	cbz	r3, 900002ca <frame_dummy+0xe>
900002c2:	4903      	ldr	r1, [pc, #12]	; (900002d0 <frame_dummy+0x14>)
900002c4:	4803      	ldr	r0, [pc, #12]	; (900002d4 <frame_dummy+0x18>)
900002c6:	f3af 8000 	nop.w
900002ca:	bd08      	pop	{r3, pc}
900002cc:	00000000 	.word	0x00000000
900002d0:	24000014 	.word	0x24000014
900002d4:	900064e8 	.word	0x900064e8

900002d8 <__aeabi_uldivmod>:
900002d8:	b953      	cbnz	r3, 900002f0 <__aeabi_uldivmod+0x18>
900002da:	b94a      	cbnz	r2, 900002f0 <__aeabi_uldivmod+0x18>
900002dc:	2900      	cmp	r1, #0
900002de:	bf08      	it	eq
900002e0:	2800      	cmpeq	r0, #0
900002e2:	bf1c      	itt	ne
900002e4:	f04f 31ff 	movne.w	r1, #4294967295
900002e8:	f04f 30ff 	movne.w	r0, #4294967295
900002ec:	f000 b974 	b.w	900005d8 <__aeabi_idiv0>
900002f0:	f1ad 0c08 	sub.w	ip, sp, #8
900002f4:	e96d ce04 	strd	ip, lr, [sp, #-16]!
900002f8:	f000 f806 	bl	90000308 <__udivmoddi4>
900002fc:	f8dd e004 	ldr.w	lr, [sp, #4]
90000300:	e9dd 2302 	ldrd	r2, r3, [sp, #8]
90000304:	b004      	add	sp, #16
90000306:	4770      	bx	lr

90000308 <__udivmoddi4>:
90000308:	e92d 47f0 	stmdb	sp!, {r4, r5, r6, r7, r8, r9, sl, lr}
9000030c:	9d08      	ldr	r5, [sp, #32]
9000030e:	4604      	mov	r4, r0
90000310:	468e      	mov	lr, r1
90000312:	2b00      	cmp	r3, #0
90000314:	d14d      	bne.n	900003b2 <__udivmoddi4+0xaa>
90000316:	428a      	cmp	r2, r1
90000318:	4694      	mov	ip, r2
9000031a:	d969      	bls.n	900003f0 <__udivmoddi4+0xe8>
9000031c:	fab2 f282 	clz	r2, r2
90000320:	b152      	cbz	r2, 90000338 <__udivmoddi4+0x30>
90000322:	fa01 f302 	lsl.w	r3, r1, r2
90000326:	f1c2 0120 	rsb	r1, r2, #32
9000032a:	fa20 f101 	lsr.w	r1, r0, r1
9000032e:	fa0c fc02 	lsl.w	ip, ip, r2
90000332:	ea41 0e03 	orr.w	lr, r1, r3
90000336:	4094      	lsls	r4, r2
90000338:	ea4f 481c 	mov.w	r8, ip, lsr #16
9000033c:	0c21      	lsrs	r1, r4, #16
9000033e:	fbbe f6f8 	udiv	r6, lr, r8
90000342:	fa1f f78c 	uxth.w	r7, ip
90000346:	fb08 e316 	mls	r3, r8, r6, lr
9000034a:	ea41 4303 	orr.w	r3, r1, r3, lsl #16
9000034e:	fb06 f107 	mul.w	r1, r6, r7
90000352:	4299      	cmp	r1, r3
90000354:	d90a      	bls.n	9000036c <__udivmoddi4+0x64>
90000356:	eb1c 0303 	adds.w	r3, ip, r3
9000035a:	f106 30ff 	add.w	r0, r6, #4294967295
9000035e:	f080 811f 	bcs.w	900005a0 <__udivmoddi4+0x298>
90000362:	4299      	cmp	r1, r3
90000364:	f240 811c 	bls.w	900005a0 <__udivmoddi4+0x298>
90000368:	3e02      	subs	r6, #2
9000036a:	4463      	add	r3, ip
9000036c:	1a5b      	subs	r3, r3, r1
9000036e:	b2a4      	uxth	r4, r4
90000370:	fbb3 f0f8 	udiv	r0, r3, r8
90000374:	fb08 3310 	mls	r3, r8, r0, r3
90000378:	ea44 4403 	orr.w	r4, r4, r3, lsl #16
9000037c:	fb00 f707 	mul.w	r7, r0, r7
90000380:	42a7      	cmp	r7, r4
90000382:	d90a      	bls.n	9000039a <__udivmoddi4+0x92>
90000384:	eb1c 0404 	adds.w	r4, ip, r4
90000388:	f100 33ff 	add.w	r3, r0, #4294967295
9000038c:	f080 810a 	bcs.w	900005a4 <__udivmoddi4+0x29c>
90000390:	42a7      	cmp	r7, r4
90000392:	f240 8107 	bls.w	900005a4 <__udivmoddi4+0x29c>
90000396:	4464      	add	r4, ip
90000398:	3802      	subs	r0, #2
9000039a:	ea40 4006 	orr.w	r0, r0, r6, lsl #16
9000039e:	1be4      	subs	r4, r4, r7
900003a0:	2600      	movs	r6, #0
900003a2:	b11d      	cbz	r5, 900003ac <__udivmoddi4+0xa4>
900003a4:	40d4      	lsrs	r4, r2
900003a6:	2300      	movs	r3, #0
900003a8:	e9c5 4300 	strd	r4, r3, [r5]
900003ac:	4631      	mov	r1, r6
900003ae:	e8bd 87f0 	ldmia.w	sp!, {r4, r5, r6, r7, r8, r9, sl, pc}
900003b2:	428b      	cmp	r3, r1
900003b4:	d909      	bls.n	900003ca <__udivmoddi4+0xc2>
900003b6:	2d00      	cmp	r5, #0
900003b8:	f000 80ef 	beq.w	9000059a <__udivmoddi4+0x292>
900003bc:	2600      	movs	r6, #0
900003be:	e9c5 0100 	strd	r0, r1, [r5]
900003c2:	4630      	mov	r0, r6
900003c4:	4631      	mov	r1, r6
900003c6:	e8bd 87f0 	ldmia.w	sp!, {r4, r5, r6, r7, r8, r9, sl, pc}
900003ca:	fab3 f683 	clz	r6, r3
900003ce:	2e00      	cmp	r6, #0
900003d0:	d14a      	bne.n	90000468 <__udivmoddi4+0x160>
900003d2:	428b      	cmp	r3, r1
900003d4:	d302      	bcc.n	900003dc <__udivmoddi4+0xd4>
900003d6:	4282      	cmp	r2, r0
900003d8:	f200 80f9 	bhi.w	900005ce <__udivmoddi4+0x2c6>
900003dc:	1a84      	subs	r4, r0, r2
900003de:	eb61 0303 	sbc.w	r3, r1, r3
900003e2:	2001      	movs	r0, #1
900003e4:	469e      	mov	lr, r3
900003e6:	2d00      	cmp	r5, #0
900003e8:	d0e0      	beq.n	900003ac <__udivmoddi4+0xa4>
900003ea:	e9c5 4e00 	strd	r4, lr, [r5]
900003ee:	e7dd      	b.n	900003ac <__udivmoddi4+0xa4>
900003f0:	b902      	cbnz	r2, 900003f4 <__udivmoddi4+0xec>
900003f2:	deff      	udf	#255	; 0xff
900003f4:	fab2 f282 	clz	r2, r2
900003f8:	2a00      	cmp	r2, #0
900003fa:	f040 8092 	bne.w	90000522 <__udivmoddi4+0x21a>
900003fe:	eba1 010c 	sub.w	r1, r1, ip
90000402:	ea4f 471c 	mov.w	r7, ip, lsr #16
90000406:	fa1f fe8c 	uxth.w	lr, ip
9000040a:	2601      	movs	r6, #1
9000040c:	0c20      	lsrs	r0, r4, #16
9000040e:	fbb1 f3f7 	udiv	r3, r1, r7
90000412:	fb07 1113 	mls	r1, r7, r3, r1
90000416:	ea40 4101 	orr.w	r1, r0, r1, lsl #16
9000041a:	fb0e f003 	mul.w	r0, lr, r3
9000041e:	4288      	cmp	r0, r1
90000420:	d908      	bls.n	90000434 <__udivmoddi4+0x12c>
90000422:	eb1c 0101 	adds.w	r1, ip, r1
90000426:	f103 38ff 	add.w	r8, r3, #4294967295
9000042a:	d202      	bcs.n	90000432 <__udivmoddi4+0x12a>
9000042c:	4288      	cmp	r0, r1
9000042e:	f200 80cb 	bhi.w	900005c8 <__udivmoddi4+0x2c0>
90000432:	4643      	mov	r3, r8
90000434:	1a09      	subs	r1, r1, r0
90000436:	b2a4      	uxth	r4, r4
90000438:	fbb1 f0f7 	udiv	r0, r1, r7
9000043c:	fb07 1110 	mls	r1, r7, r0, r1
90000440:	ea44 4401 	orr.w	r4, r4, r1, lsl #16
90000444:	fb0e fe00 	mul.w	lr, lr, r0
90000448:	45a6      	cmp	lr, r4
9000044a:	d908      	bls.n	9000045e <__udivmoddi4+0x156>
9000044c:	eb1c 0404 	adds.w	r4, ip, r4
90000450:	f100 31ff 	add.w	r1, r0, #4294967295
90000454:	d202      	bcs.n	9000045c <__udivmoddi4+0x154>
90000456:	45a6      	cmp	lr, r4
90000458:	f200 80bb 	bhi.w	900005d2 <__udivmoddi4+0x2ca>
9000045c:	4608      	mov	r0, r1
9000045e:	eba4 040e 	sub.w	r4, r4, lr
90000462:	ea40 4003 	orr.w	r0, r0, r3, lsl #16
90000466:	e79c      	b.n	900003a2 <__udivmoddi4+0x9a>
90000468:	f1c6 0720 	rsb	r7, r6, #32
9000046c:	40b3      	lsls	r3, r6
9000046e:	fa22 fc07 	lsr.w	ip, r2, r7
90000472:	ea4c 0c03 	orr.w	ip, ip, r3
90000476:	fa20 f407 	lsr.w	r4, r0, r7
9000047a:	fa01 f306 	lsl.w	r3, r1, r6
9000047e:	431c      	orrs	r4, r3
90000480:	40f9      	lsrs	r1, r7
90000482:	ea4f 491c 	mov.w	r9, ip, lsr #16
90000486:	fa00 f306 	lsl.w	r3, r0, r6
9000048a:	fbb1 f8f9 	udiv	r8, r1, r9
9000048e:	0c20      	lsrs	r0, r4, #16
90000490:	fa1f fe8c 	uxth.w	lr, ip
90000494:	fb09 1118 	mls	r1, r9, r8, r1
90000498:	ea40 4101 	orr.w	r1, r0, r1, lsl #16
9000049c:	fb08 f00e 	mul.w	r0, r8, lr
900004a0:	4288      	cmp	r0, r1
900004a2:	fa02 f206 	lsl.w	r2, r2, r6
900004a6:	d90b      	bls.n	900004c0 <__udivmoddi4+0x1b8>
900004a8:	eb1c 0101 	adds.w	r1, ip, r1
900004ac:	f108 3aff 	add.w	sl, r8, #4294967295
900004b0:	f080 8088 	bcs.w	900005c4 <__udivmoddi4+0x2bc>
900004b4:	4288      	cmp	r0, r1
900004b6:	f240 8085 	bls.w	900005c4 <__udivmoddi4+0x2bc>
900004ba:	f1a8 0802 	sub.w	r8, r8, #2
900004be:	4461      	add	r1, ip
900004c0:	1a09      	subs	r1, r1, r0
900004c2:	b2a4      	uxth	r4, r4
900004c4:	fbb1 f0f9 	udiv	r0, r1, r9
900004c8:	fb09 1110 	mls	r1, r9, r0, r1
900004cc:	ea44 4101 	orr.w	r1, r4, r1, lsl #16
900004d0:	fb00 fe0e 	mul.w	lr, r0, lr
900004d4:	458e      	cmp	lr, r1
900004d6:	d908      	bls.n	900004ea <__udivmoddi4+0x1e2>
900004d8:	eb1c 0101 	adds.w	r1, ip, r1
900004dc:	f100 34ff 	add.w	r4, r0, #4294967295
900004e0:	d26c      	bcs.n	900005bc <__udivmoddi4+0x2b4>
900004e2:	458e      	cmp	lr, r1
900004e4:	d96a      	bls.n	900005bc <__udivmoddi4+0x2b4>
900004e6:	3802      	subs	r0, #2
900004e8:	4461      	add	r1, ip
900004ea:	ea40 4008 	orr.w	r0, r0, r8, lsl #16
900004ee:	fba0 9402 	umull	r9, r4, r0, r2
900004f2:	eba1 010e 	sub.w	r1, r1, lr
900004f6:	42a1      	cmp	r1, r4
900004f8:	46c8      	mov	r8, r9
900004fa:	46a6      	mov	lr, r4
900004fc:	d356      	bcc.n	900005ac <__udivmoddi4+0x2a4>
900004fe:	d053      	beq.n	900005a8 <__udivmoddi4+0x2a0>
90000500:	b15d      	cbz	r5, 9000051a <__udivmoddi4+0x212>
90000502:	ebb3 0208 	subs.w	r2, r3, r8
90000506:	eb61 010e 	sbc.w	r1, r1, lr
9000050a:	fa01 f707 	lsl.w	r7, r1, r7
9000050e:	fa22 f306 	lsr.w	r3, r2, r6
90000512:	40f1      	lsrs	r1, r6
90000514:	431f      	orrs	r7, r3
90000516:	e9c5 7100 	strd	r7, r1, [r5]
9000051a:	2600      	movs	r6, #0
9000051c:	4631      	mov	r1, r6
9000051e:	e8bd 87f0 	ldmia.w	sp!, {r4, r5, r6, r7, r8, r9, sl, pc}
90000522:	f1c2 0320 	rsb	r3, r2, #32
90000526:	40d8      	lsrs	r0, r3
90000528:	fa0c fc02 	lsl.w	ip, ip, r2
9000052c:	fa21 f303 	lsr.w	r3, r1, r3
90000530:	4091      	lsls	r1, r2
90000532:	4301      	orrs	r1, r0
90000534:	ea4f 471c 	mov.w	r7, ip, lsr #16
90000538:	fa1f fe8c 	uxth.w	lr, ip
9000053c:	fbb3 f0f7 	udiv	r0, r3, r7
90000540:	fb07 3610 	mls	r6, r7, r0, r3
90000544:	0c0b      	lsrs	r3, r1, #16
90000546:	ea43 4306 	orr.w	r3, r3, r6, lsl #16
9000054a:	fb00 f60e 	mul.w	r6, r0, lr
9000054e:	429e      	cmp	r6, r3
90000550:	fa04 f402 	lsl.w	r4, r4, r2
90000554:	d908      	bls.n	90000568 <__udivmoddi4+0x260>
90000556:	eb1c 0303 	adds.w	r3, ip, r3
9000055a:	f100 38ff 	add.w	r8, r0, #4294967295
9000055e:	d22f      	bcs.n	900005c0 <__udivmoddi4+0x2b8>
90000560:	429e      	cmp	r6, r3
90000562:	d92d      	bls.n	900005c0 <__udivmoddi4+0x2b8>
90000564:	3802      	subs	r0, #2
90000566:	4463      	add	r3, ip
90000568:	1b9b      	subs	r3, r3, r6
9000056a:	b289      	uxth	r1, r1
9000056c:	fbb3 f6f7 	udiv	r6, r3, r7
90000570:	fb07 3316 	mls	r3, r7, r6, r3
90000574:	ea41 4103 	orr.w	r1, r1, r3, lsl #16
90000578:	fb06 f30e 	mul.w	r3, r6, lr
9000057c:	428b      	cmp	r3, r1
9000057e:	d908      	bls.n	90000592 <__udivmoddi4+0x28a>
90000580:	eb1c 0101 	adds.w	r1, ip, r1
90000584:	f106 38ff 	add.w	r8, r6, #4294967295
90000588:	d216      	bcs.n	900005b8 <__udivmoddi4+0x2b0>
9000058a:	428b      	cmp	r3, r1
9000058c:	d914      	bls.n	900005b8 <__udivmoddi4+0x2b0>
9000058e:	3e02      	subs	r6, #2
90000590:	4461      	add	r1, ip
90000592:	1ac9      	subs	r1, r1, r3
90000594:	ea46 4600 	orr.w	r6, r6, r0, lsl #16
90000598:	e738      	b.n	9000040c <__udivmoddi4+0x104>
9000059a:	462e      	mov	r6, r5
9000059c:	4628      	mov	r0, r5
9000059e:	e705      	b.n	900003ac <__udivmoddi4+0xa4>
900005a0:	4606      	mov	r6, r0
900005a2:	e6e3      	b.n	9000036c <__udivmoddi4+0x64>
900005a4:	4618      	mov	r0, r3
900005a6:	e6f8      	b.n	9000039a <__udivmoddi4+0x92>
900005a8:	454b      	cmp	r3, r9
900005aa:	d2a9      	bcs.n	90000500 <__udivmoddi4+0x1f8>
900005ac:	ebb9 0802 	subs.w	r8, r9, r2
900005b0:	eb64 0e0c 	sbc.w	lr, r4, ip
900005b4:	3801      	subs	r0, #1
900005b6:	e7a3      	b.n	90000500 <__udivmoddi4+0x1f8>
900005b8:	4646      	mov	r6, r8
900005ba:	e7ea      	b.n	90000592 <__udivmoddi4+0x28a>
900005bc:	4620      	mov	r0, r4
900005be:	e794      	b.n	900004ea <__udivmoddi4+0x1e2>
900005c0:	4640      	mov	r0, r8
900005c2:	e7d1      	b.n	90000568 <__udivmoddi4+0x260>
900005c4:	46d0      	mov	r8, sl
900005c6:	e77b      	b.n	900004c0 <__udivmoddi4+0x1b8>
900005c8:	3b02      	subs	r3, #2
900005ca:	4461      	add	r1, ip
900005cc:	e732      	b.n	90000434 <__udivmoddi4+0x12c>
900005ce:	4630      	mov	r0, r6
900005d0:	e709      	b.n	900003e6 <__udivmoddi4+0xde>
900005d2:	4464      	add	r4, ip
900005d4:	3802      	subs	r0, #2
900005d6:	e742      	b.n	9000045e <__udivmoddi4+0x156>

900005d8 <__aeabi_idiv0>:
900005d8:	4770      	bx	lr
900005da:	bf00      	nop

900005dc <MX_GPIO_Init>:
     PC14-OSC32_IN (OSC32_IN)   ------> RCC_OSC32_IN
     PA13 (JTMS/SWDIO)   ------> DEBUG_JTMS-SWDIO
     PH0-OSC_IN (PH0)   ------> RCC_OSC_IN
*/
void MX_GPIO_Init(void)
{
900005dc:	b480      	push	{r7}
900005de:	b085      	sub	sp, #20
900005e0:	af00      	add	r7, sp, #0

  /* GPIO Ports Clock Enable */
  __HAL_RCC_GPIOA_CLK_ENABLE();
900005e2:	4b19      	ldr	r3, [pc, #100]	; (90000648 <MX_GPIO_Init+0x6c>)
900005e4:	f8d3 30e0 	ldr.w	r3, [r3, #224]	; 0xe0
900005e8:	4a17      	ldr	r2, [pc, #92]	; (90000648 <MX_GPIO_Init+0x6c>)
900005ea:	f043 0301 	orr.w	r3, r3, #1
900005ee:	f8c2 30e0 	str.w	r3, [r2, #224]	; 0xe0
900005f2:	4b15      	ldr	r3, [pc, #84]	; (90000648 <MX_GPIO_Init+0x6c>)
900005f4:	f8d3 30e0 	ldr.w	r3, [r3, #224]	; 0xe0
900005f8:	f003 0301 	and.w	r3, r3, #1
900005fc:	60fb      	str	r3, [r7, #12]
900005fe:	68fb      	ldr	r3, [r7, #12]
  __HAL_RCC_GPIOC_CLK_ENABLE();
90000600:	4b11      	ldr	r3, [pc, #68]	; (90000648 <MX_GPIO_Init+0x6c>)
90000602:	f8d3 30e0 	ldr.w	r3, [r3, #224]	; 0xe0
90000606:	4a10      	ldr	r2, [pc, #64]	; (90000648 <MX_GPIO_Init+0x6c>)
90000608:	f043 0304 	orr.w	r3, r3, #4
9000060c:	f8c2 30e0 	str.w	r3, [r2, #224]	; 0xe0
90000610:	4b0d      	ldr	r3, [pc, #52]	; (90000648 <MX_GPIO_Init+0x6c>)
90000612:	f8d3 30e0 	ldr.w	r3, [r3, #224]	; 0xe0
90000616:	f003 0304 	and.w	r3, r3, #4
9000061a:	60bb      	str	r3, [r7, #8]
9000061c:	68bb      	ldr	r3, [r7, #8]
  __HAL_RCC_GPIOH_CLK_ENABLE();
9000061e:	4b0a      	ldr	r3, [pc, #40]	; (90000648 <MX_GPIO_Init+0x6c>)
90000620:	f8d3 30e0 	ldr.w	r3, [r3, #224]	; 0xe0
90000624:	4a08      	ldr	r2, [pc, #32]	; (90000648 <MX_GPIO_Init+0x6c>)
90000626:	f043 0380 	orr.w	r3, r3, #128	; 0x80
9000062a:	f8c2 30e0 	str.w	r3, [r2, #224]	; 0xe0
9000062e:	4b06      	ldr	r3, [pc, #24]	; (90000648 <MX_GPIO_Init+0x6c>)
90000630:	f8d3 30e0 	ldr.w	r3, [r3, #224]	; 0xe0
90000634:	f003 0380 	and.w	r3, r3, #128	; 0x80
90000638:	607b      	str	r3, [r7, #4]
9000063a:	687b      	ldr	r3, [r7, #4]

}
9000063c:	bf00      	nop
9000063e:	3714      	adds	r7, #20
90000640:	46bd      	mov	sp, r7
90000642:	f85d 7b04 	ldr.w	r7, [sp], #4
90000646:	4770      	bx	lr
90000648:	58024400 	.word	0x58024400

9000064c <main>:
/**
  * @brief  The application entry point.
  * @retval int
  */
int main(void)
{
9000064c:	b580      	push	{r7, lr}
9000064e:	b084      	sub	sp, #16
90000650:	af00      	add	r7, sp, #0
  /* USER CODE BEGIN 1 */
  SCB ->VTOR = 0x90000000;
90000652:	4b3c      	ldr	r3, [pc, #240]	; (90000744 <main+0xf8>)
90000654:	f04f 4210 	mov.w	r2, #2415919104	; 0x90000000
90000658:	609a      	str	r2, [r3, #8]

  /* USER CODE END 1 */

  /* MPU Configuration--------------------------------------------------------*/
  MPU_Config();
9000065a:	f000 f8e3 	bl	90000824 <MPU_Config>
  \details Turns on I-Cache
  */
__STATIC_FORCEINLINE void SCB_EnableICache (void)
{
  #if defined (__ICACHE_PRESENT) && (__ICACHE_PRESENT == 1U)
    if (SCB->CCR & SCB_CCR_IC_Msk) return;  /* return if ICache is already enabled */
9000065e:	4b39      	ldr	r3, [pc, #228]	; (90000744 <main+0xf8>)
90000660:	695b      	ldr	r3, [r3, #20]
90000662:	f403 3300 	and.w	r3, r3, #131072	; 0x20000
90000666:	2b00      	cmp	r3, #0
90000668:	d11b      	bne.n	900006a2 <main+0x56>
  \details Acts as a special kind of Data Memory Barrier.
           It completes when all explicit memory accesses before this instruction complete.
 */
__STATIC_FORCEINLINE void __DSB(void)
{
  __ASM volatile ("dsb 0xF":::"memory");
9000066a:	f3bf 8f4f 	dsb	sy
}
9000066e:	bf00      	nop
  __ASM volatile ("isb 0xF":::"memory");
90000670:	f3bf 8f6f 	isb	sy
}
90000674:	bf00      	nop

    __DSB();
    __ISB();
    SCB->ICIALLU = 0UL;                     /* invalidate I-Cache */
90000676:	4b33      	ldr	r3, [pc, #204]	; (90000744 <main+0xf8>)
90000678:	2200      	movs	r2, #0
9000067a:	f8c3 2250 	str.w	r2, [r3, #592]	; 0x250
  __ASM volatile ("dsb 0xF":::"memory");
9000067e:	f3bf 8f4f 	dsb	sy
}
90000682:	bf00      	nop
  __ASM volatile ("isb 0xF":::"memory");
90000684:	f3bf 8f6f 	isb	sy
}
90000688:	bf00      	nop
    __DSB();
    __ISB();
    SCB->CCR |=  (uint32_t)SCB_CCR_IC_Msk;  /* enable I-Cache */
9000068a:	4b2e      	ldr	r3, [pc, #184]	; (90000744 <main+0xf8>)
9000068c:	695b      	ldr	r3, [r3, #20]
9000068e:	4a2d      	ldr	r2, [pc, #180]	; (90000744 <main+0xf8>)
90000690:	f443 3300 	orr.w	r3, r3, #131072	; 0x20000
90000694:	6153      	str	r3, [r2, #20]
  __ASM volatile ("dsb 0xF":::"memory");
90000696:	f3bf 8f4f 	dsb	sy
}
9000069a:	bf00      	nop
  __ASM volatile ("isb 0xF":::"memory");
9000069c:	f3bf 8f6f 	isb	sy
}
900006a0:	e000      	b.n	900006a4 <main+0x58>
    if (SCB->CCR & SCB_CCR_IC_Msk) return;  /* return if ICache is already enabled */
900006a2:	bf00      	nop
  #if defined (__DCACHE_PRESENT) && (__DCACHE_PRESENT == 1U)
    uint32_t ccsidr;
    uint32_t sets;
    uint32_t ways;

    if (SCB->CCR & SCB_CCR_DC_Msk) return;  /* return if DCache is already enabled */
900006a4:	4b27      	ldr	r3, [pc, #156]	; (90000744 <main+0xf8>)
900006a6:	695b      	ldr	r3, [r3, #20]
900006a8:	f403 3380 	and.w	r3, r3, #65536	; 0x10000
900006ac:	2b00      	cmp	r3, #0
900006ae:	d138      	bne.n	90000722 <main+0xd6>

    SCB->CSSELR = 0U;                       /* select Level 1 data cache */
900006b0:	4b24      	ldr	r3, [pc, #144]	; (90000744 <main+0xf8>)
900006b2:	2200      	movs	r2, #0
900006b4:	f8c3 2084 	str.w	r2, [r3, #132]	; 0x84
  __ASM volatile ("dsb 0xF":::"memory");
900006b8:	f3bf 8f4f 	dsb	sy
}
900006bc:	bf00      	nop
    __DSB();

    ccsidr = SCB->CCSIDR;
900006be:	4b21      	ldr	r3, [pc, #132]	; (90000744 <main+0xf8>)
900006c0:	f8d3 3080 	ldr.w	r3, [r3, #128]	; 0x80
900006c4:	60fb      	str	r3, [r7, #12]

                                            /* invalidate D-Cache */
    sets = (uint32_t)(CCSIDR_SETS(ccsidr));
900006c6:	68fb      	ldr	r3, [r7, #12]
900006c8:	0b5b      	lsrs	r3, r3, #13
900006ca:	f3c3 030e 	ubfx	r3, r3, #0, #15
900006ce:	60bb      	str	r3, [r7, #8]
    do {
      ways = (uint32_t)(CCSIDR_WAYS(ccsidr));
900006d0:	68fb      	ldr	r3, [r7, #12]
900006d2:	08db      	lsrs	r3, r3, #3
900006d4:	f3c3 0309 	ubfx	r3, r3, #0, #10
900006d8:	607b      	str	r3, [r7, #4]
      do {
        SCB->DCISW = (((sets << SCB_DCISW_SET_Pos) & SCB_DCISW_SET_Msk) |
900006da:	68bb      	ldr	r3, [r7, #8]
900006dc:	015a      	lsls	r2, r3, #5
900006de:	f643 73e0 	movw	r3, #16352	; 0x3fe0
900006e2:	4013      	ands	r3, r2
                      ((ways << SCB_DCISW_WAY_Pos) & SCB_DCISW_WAY_Msk)  );
900006e4:	687a      	ldr	r2, [r7, #4]
900006e6:	0792      	lsls	r2, r2, #30
        SCB->DCISW = (((sets << SCB_DCISW_SET_Pos) & SCB_DCISW_SET_Msk) |
900006e8:	4916      	ldr	r1, [pc, #88]	; (90000744 <main+0xf8>)
900006ea:	4313      	orrs	r3, r2
900006ec:	f8c1 3260 	str.w	r3, [r1, #608]	; 0x260
        #if defined ( __CC_ARM )
          __schedule_barrier();
        #endif
      } while (ways-- != 0U);
900006f0:	687b      	ldr	r3, [r7, #4]
900006f2:	1e5a      	subs	r2, r3, #1
900006f4:	607a      	str	r2, [r7, #4]
900006f6:	2b00      	cmp	r3, #0
900006f8:	d1ef      	bne.n	900006da <main+0x8e>
    } while(sets-- != 0U);
900006fa:	68bb      	ldr	r3, [r7, #8]
900006fc:	1e5a      	subs	r2, r3, #1
900006fe:	60ba      	str	r2, [r7, #8]
90000700:	2b00      	cmp	r3, #0
90000702:	d1e5      	bne.n	900006d0 <main+0x84>
  __ASM volatile ("dsb 0xF":::"memory");
90000704:	f3bf 8f4f 	dsb	sy
}
90000708:	bf00      	nop
    __DSB();

    SCB->CCR |=  (uint32_t)SCB_CCR_DC_Msk;  /* enable D-Cache */
9000070a:	4b0e      	ldr	r3, [pc, #56]	; (90000744 <main+0xf8>)
9000070c:	695b      	ldr	r3, [r3, #20]
9000070e:	4a0d      	ldr	r2, [pc, #52]	; (90000744 <main+0xf8>)
90000710:	f443 3380 	orr.w	r3, r3, #65536	; 0x10000
90000714:	6153      	str	r3, [r2, #20]
  __ASM volatile ("dsb 0xF":::"memory");
90000716:	f3bf 8f4f 	dsb	sy
}
9000071a:	bf00      	nop
  __ASM volatile ("isb 0xF":::"memory");
9000071c:	f3bf 8f6f 	isb	sy
}
90000720:	e000      	b.n	90000724 <main+0xd8>
    if (SCB->CCR & SCB_CCR_DC_Msk) return;  /* return if DCache is already enabled */
90000722:	bf00      	nop
  SCB_EnableDCache();

  /* MCU Configuration--------------------------------------------------------*/

  /* Reset of all peripherals, Initializes the Flash interface and the Systick. */
  HAL_Init();
90000724:	f000 fa70 	bl	90000c08 <HAL_Init>
  /* USER CODE BEGIN Init */

  /* USER CODE END Init */

  /* Configure the system clock */
  SystemClock_Config();
90000728:	f000 f812 	bl	90000750 <SystemClock_Config>
  /* USER CODE BEGIN SysInit */

  /* USER CODE END SysInit */

  /* Initialize all configured peripherals */
  MX_GPIO_Init();
9000072c:	f7ff ff56 	bl	900005dc <MX_GPIO_Init>
  MX_USART1_UART_Init();
90000730:	f000 f98e 	bl	90000a50 <MX_USART1_UART_Init>
  /* USER CODE BEGIN 2 */
  HAL_UART_Transmit(&huart1, "HELLO!\r\n", 9, 1000);
90000734:	f44f 737a 	mov.w	r3, #1000	; 0x3e8
90000738:	2209      	movs	r2, #9
9000073a:	4903      	ldr	r1, [pc, #12]	; (90000748 <main+0xfc>)
9000073c:	4803      	ldr	r0, [pc, #12]	; (9000074c <main+0x100>)
9000073e:	f004 fb4d 	bl	90004ddc <HAL_UART_Transmit>

  /* USER CODE END 2 */

  /* Infinite loop */
  /* USER CODE BEGIN WHILE */
  while (1)
90000742:	e7fe      	b.n	90000742 <main+0xf6>
90000744:	e000ed00 	.word	0xe000ed00
90000748:	90006500 	.word	0x90006500
9000074c:	2400002c 	.word	0x2400002c

90000750 <SystemClock_Config>:
/**
  * @brief System Clock Configuration
  * @retval None
  */
void SystemClock_Config(void)
{
90000750:	b580      	push	{r7, lr}
90000752:	b09c      	sub	sp, #112	; 0x70
90000754:	af00      	add	r7, sp, #0
  RCC_OscInitTypeDef RCC_OscInitStruct = {0};
90000756:	f107 0324 	add.w	r3, r7, #36	; 0x24
9000075a:	224c      	movs	r2, #76	; 0x4c
9000075c:	2100      	movs	r1, #0
9000075e:	4618      	mov	r0, r3
90000760:	f005 feba 	bl	900064d8 <memset>
  RCC_ClkInitTypeDef RCC_ClkInitStruct = {0};
90000764:	1d3b      	adds	r3, r7, #4
90000766:	2220      	movs	r2, #32
90000768:	2100      	movs	r1, #0
9000076a:	4618      	mov	r0, r3
9000076c:	f005 feb4 	bl	900064d8 <memset>

  /** Supply configuration update enable
  */
  HAL_PWREx_ConfigSupply(PWR_EXTERNAL_SOURCE_SUPPLY);
90000770:	2001      	movs	r0, #1
90000772:	f001 f851 	bl	90001818 <HAL_PWREx_ConfigSupply>

  /** Configure the main internal regulator output voltage
  */
  __HAL_PWR_VOLTAGESCALING_CONFIG(PWR_REGULATOR_VOLTAGE_SCALE1);
90000776:	2300      	movs	r3, #0
90000778:	603b      	str	r3, [r7, #0]
9000077a:	4b28      	ldr	r3, [pc, #160]	; (9000081c <SystemClock_Config+0xcc>)
9000077c:	6adb      	ldr	r3, [r3, #44]	; 0x2c
9000077e:	4a27      	ldr	r2, [pc, #156]	; (9000081c <SystemClock_Config+0xcc>)
90000780:	f023 0301 	bic.w	r3, r3, #1
90000784:	62d3      	str	r3, [r2, #44]	; 0x2c
90000786:	4b25      	ldr	r3, [pc, #148]	; (9000081c <SystemClock_Config+0xcc>)
90000788:	6adb      	ldr	r3, [r3, #44]	; 0x2c
9000078a:	f003 0301 	and.w	r3, r3, #1
9000078e:	603b      	str	r3, [r7, #0]
90000790:	4b23      	ldr	r3, [pc, #140]	; (90000820 <SystemClock_Config+0xd0>)
90000792:	699b      	ldr	r3, [r3, #24]
90000794:	4a22      	ldr	r2, [pc, #136]	; (90000820 <SystemClock_Config+0xd0>)
90000796:	f443 4340 	orr.w	r3, r3, #49152	; 0xc000
9000079a:	6193      	str	r3, [r2, #24]
9000079c:	4b20      	ldr	r3, [pc, #128]	; (90000820 <SystemClock_Config+0xd0>)
9000079e:	699b      	ldr	r3, [r3, #24]
900007a0:	f403 4340 	and.w	r3, r3, #49152	; 0xc000
900007a4:	603b      	str	r3, [r7, #0]
900007a6:	683b      	ldr	r3, [r7, #0]

  while(!__HAL_PWR_GET_FLAG(PWR_FLAG_VOSRDY)) {}
900007a8:	bf00      	nop
900007aa:	4b1d      	ldr	r3, [pc, #116]	; (90000820 <SystemClock_Config+0xd0>)
900007ac:	699b      	ldr	r3, [r3, #24]
900007ae:	f403 5300 	and.w	r3, r3, #8192	; 0x2000
900007b2:	f5b3 5f00 	cmp.w	r3, #8192	; 0x2000
900007b6:	d1f8      	bne.n	900007aa <SystemClock_Config+0x5a>

  /** Initializes the RCC Oscillators according to the specified parameters
  * in the RCC_OscInitTypeDef structure.
  */
  RCC_OscInitStruct.OscillatorType = RCC_OSCILLATORTYPE_HSI;
900007b8:	2302      	movs	r3, #2
900007ba:	627b      	str	r3, [r7, #36]	; 0x24
  RCC_OscInitStruct.HSIState = RCC_HSI_DIV1;
900007bc:	2301      	movs	r3, #1
900007be:	633b      	str	r3, [r7, #48]	; 0x30
  RCC_OscInitStruct.HSICalibrationValue = RCC_HSICALIBRATION_DEFAULT;
900007c0:	2340      	movs	r3, #64	; 0x40
900007c2:	637b      	str	r3, [r7, #52]	; 0x34
  RCC_OscInitStruct.PLL.PLLState = RCC_PLL_NONE;
900007c4:	2300      	movs	r3, #0
900007c6:	64bb      	str	r3, [r7, #72]	; 0x48
  if (HAL_RCC_OscConfig(&RCC_OscInitStruct) != HAL_OK)
900007c8:	f107 0324 	add.w	r3, r7, #36	; 0x24
900007cc:	4618      	mov	r0, r3
900007ce:	f001 f869 	bl	900018a4 <HAL_RCC_OscConfig>
900007d2:	4603      	mov	r3, r0
900007d4:	2b00      	cmp	r3, #0
900007d6:	d001      	beq.n	900007dc <SystemClock_Config+0x8c>
  {
    Error_Handler();
900007d8:	f000 f85e 	bl	90000898 <Error_Handler>
  }

  /** Initializes the CPU, AHB and APB buses clocks
  */
  RCC_ClkInitStruct.ClockType = RCC_CLOCKTYPE_HCLK|RCC_CLOCKTYPE_SYSCLK
900007dc:	233f      	movs	r3, #63	; 0x3f
900007de:	607b      	str	r3, [r7, #4]
                              |RCC_CLOCKTYPE_PCLK1|RCC_CLOCKTYPE_PCLK2
                              |RCC_CLOCKTYPE_D3PCLK1|RCC_CLOCKTYPE_D1PCLK1;
  RCC_ClkInitStruct.SYSCLKSource = RCC_SYSCLKSOURCE_HSI;
900007e0:	2300      	movs	r3, #0
900007e2:	60bb      	str	r3, [r7, #8]
  RCC_ClkInitStruct.SYSCLKDivider = RCC_SYSCLK_DIV1;
900007e4:	2300      	movs	r3, #0
900007e6:	60fb      	str	r3, [r7, #12]
  RCC_ClkInitStruct.AHBCLKDivider = RCC_HCLK_DIV2;
900007e8:	2308      	movs	r3, #8
900007ea:	613b      	str	r3, [r7, #16]
  RCC_ClkInitStruct.APB3CLKDivider = RCC_APB3_DIV2;
900007ec:	2340      	movs	r3, #64	; 0x40
900007ee:	617b      	str	r3, [r7, #20]
  RCC_ClkInitStruct.APB1CLKDivider = RCC_APB1_DIV2;
900007f0:	2340      	movs	r3, #64	; 0x40
900007f2:	61bb      	str	r3, [r7, #24]
  RCC_ClkInitStruct.APB2CLKDivider = RCC_APB2_DIV2;
900007f4:	f44f 6380 	mov.w	r3, #1024	; 0x400
900007f8:	61fb      	str	r3, [r7, #28]
  RCC_ClkInitStruct.APB4CLKDivider = RCC_APB4_DIV2;
900007fa:	2340      	movs	r3, #64	; 0x40
900007fc:	623b      	str	r3, [r7, #32]

  if (HAL_RCC_ClockConfig(&RCC_ClkInitStruct, FLASH_LATENCY_0) != HAL_OK)
900007fe:	1d3b      	adds	r3, r7, #4
90000800:	2100      	movs	r1, #0
90000802:	4618      	mov	r0, r3
90000804:	f001 fdc4 	bl	90002390 <HAL_RCC_ClockConfig>
90000808:	4603      	mov	r3, r0
9000080a:	2b00      	cmp	r3, #0
9000080c:	d001      	beq.n	90000812 <SystemClock_Config+0xc2>
  {
    Error_Handler();
9000080e:	f000 f843 	bl	90000898 <Error_Handler>
  }
}
90000812:	bf00      	nop
90000814:	3770      	adds	r7, #112	; 0x70
90000816:	46bd      	mov	sp, r7
90000818:	bd80      	pop	{r7, pc}
9000081a:	bf00      	nop
9000081c:	58000400 	.word	0x58000400
90000820:	58024800 	.word	0x58024800

90000824 <MPU_Config>:
/* USER CODE END 4 */

/* MPU Configuration */

void MPU_Config(void)
{
90000824:	b580      	push	{r7, lr}
90000826:	b084      	sub	sp, #16
90000828:	af00      	add	r7, sp, #0
  MPU_Region_InitTypeDef MPU_InitStruct = {0};
9000082a:	463b      	mov	r3, r7
9000082c:	2200      	movs	r2, #0
9000082e:	601a      	str	r2, [r3, #0]
90000830:	605a      	str	r2, [r3, #4]
90000832:	609a      	str	r2, [r3, #8]
90000834:	60da      	str	r2, [r3, #12]

  /* Disables the MPU */
  HAL_MPU_Disable();
90000836:	f000 fb8d 	bl	90000f54 <HAL_MPU_Disable>

  /** Initializes and configures the Region and the memory to be protected
  */
  MPU_InitStruct.Enable = MPU_REGION_ENABLE;
9000083a:	2301      	movs	r3, #1
9000083c:	703b      	strb	r3, [r7, #0]
  MPU_InitStruct.Number = MPU_REGION_NUMBER0;
9000083e:	2300      	movs	r3, #0
90000840:	707b      	strb	r3, [r7, #1]
  MPU_InitStruct.BaseAddress = 0x24000000;
90000842:	f04f 5310 	mov.w	r3, #603979776	; 0x24000000
90000846:	607b      	str	r3, [r7, #4]
  MPU_InitStruct.Size = MPU_REGION_SIZE_64KB;
90000848:	230f      	movs	r3, #15
9000084a:	723b      	strb	r3, [r7, #8]
  MPU_InitStruct.SubRegionDisable = 0x0;
9000084c:	2300      	movs	r3, #0
9000084e:	727b      	strb	r3, [r7, #9]
  MPU_InitStruct.TypeExtField = MPU_TEX_LEVEL1;
90000850:	2301      	movs	r3, #1
90000852:	72bb      	strb	r3, [r7, #10]
  MPU_InitStruct.AccessPermission = MPU_REGION_FULL_ACCESS;
90000854:	2303      	movs	r3, #3
90000856:	72fb      	strb	r3, [r7, #11]
  MPU_InitStruct.DisableExec = MPU_INSTRUCTION_ACCESS_ENABLE;
90000858:	2300      	movs	r3, #0
9000085a:	733b      	strb	r3, [r7, #12]
  MPU_InitStruct.IsShareable = MPU_ACCESS_NOT_SHAREABLE;
9000085c:	2300      	movs	r3, #0
9000085e:	737b      	strb	r3, [r7, #13]
  MPU_InitStruct.IsCacheable = MPU_ACCESS_NOT_CACHEABLE;
90000860:	2300      	movs	r3, #0
90000862:	73bb      	strb	r3, [r7, #14]
  MPU_InitStruct.IsBufferable = MPU_ACCESS_NOT_BUFFERABLE;
90000864:	2300      	movs	r3, #0
90000866:	73fb      	strb	r3, [r7, #15]

  HAL_MPU_ConfigRegion(&MPU_InitStruct);
90000868:	463b      	mov	r3, r7
9000086a:	4618      	mov	r0, r3
9000086c:	f000 fbaa 	bl	90000fc4 <HAL_MPU_ConfigRegion>

  /** Initializes and configures the Region and the memory to be protected
  */
  MPU_InitStruct.Number = MPU_REGION_NUMBER1;
90000870:	2301      	movs	r3, #1
90000872:	707b      	strb	r3, [r7, #1]
  MPU_InitStruct.BaseAddress = 0xD0000000;
90000874:	f04f 4350 	mov.w	r3, #3489660928	; 0xd0000000
90000878:	607b      	str	r3, [r7, #4]
  MPU_InitStruct.Size = MPU_REGION_SIZE_32MB;
9000087a:	2318      	movs	r3, #24
9000087c:	723b      	strb	r3, [r7, #8]
  MPU_InitStruct.TypeExtField = MPU_TEX_LEVEL0;
9000087e:	2300      	movs	r3, #0
90000880:	72bb      	strb	r3, [r7, #10]

  HAL_MPU_ConfigRegion(&MPU_InitStruct);
90000882:	463b      	mov	r3, r7
90000884:	4618      	mov	r0, r3
90000886:	f000 fb9d 	bl	90000fc4 <HAL_MPU_ConfigRegion>
  /* Enables the MPU */
  HAL_MPU_Enable(MPU_PRIVILEGED_DEFAULT);
9000088a:	2004      	movs	r0, #4
9000088c:	f000 fb7a 	bl	90000f84 <HAL_MPU_Enable>

}
90000890:	bf00      	nop
90000892:	3710      	adds	r7, #16
90000894:	46bd      	mov	sp, r7
90000896:	bd80      	pop	{r7, pc}

90000898 <Error_Handler>:
/**
  * @brief  This function is executed in case of error occurrence.
  * @retval None
  */
void Error_Handler(void)
{
90000898:	b480      	push	{r7}
9000089a:	af00      	add	r7, sp, #0
  __ASM volatile ("cpsid i" : : : "memory");
9000089c:	b672      	cpsid	i
}
9000089e:	bf00      	nop
  /* USER CODE BEGIN Error_Handler_Debug */
  /* User can add his own implementation to report the HAL error return state */
  __disable_irq();
  while (1)
900008a0:	e7fe      	b.n	900008a0 <Error_Handler+0x8>

900008a2 <assert_failed>:
  * @param  file: pointer to the source file name
  * @param  line: assert_param error line source number
  * @retval None
  */
void assert_failed(uint8_t *file, uint32_t line)
{
900008a2:	b480      	push	{r7}
900008a4:	b083      	sub	sp, #12
900008a6:	af00      	add	r7, sp, #0
900008a8:	6078      	str	r0, [r7, #4]
900008aa:	6039      	str	r1, [r7, #0]
  /* USER CODE BEGIN 6 */
  /* User can add his own implementation to report the file name and line number,
     ex: printf("Wrong parameters value: file %s on line %d\r\n", file, line) */
  /* USER CODE END 6 */
}
900008ac:	bf00      	nop
900008ae:	370c      	adds	r7, #12
900008b0:	46bd      	mov	sp, r7
900008b2:	f85d 7b04 	ldr.w	r7, [sp], #4
900008b6:	4770      	bx	lr

900008b8 <HAL_MspInit>:
/* USER CODE END 0 */
/**
  * Initializes the Global MSP.
  */
void HAL_MspInit(void)
{
900008b8:	b480      	push	{r7}
900008ba:	b083      	sub	sp, #12
900008bc:	af00      	add	r7, sp, #0
  /* USER CODE BEGIN MspInit 0 */

  /* USER CODE END MspInit 0 */

  __HAL_RCC_SYSCFG_CLK_ENABLE();
900008be:	4b0a      	ldr	r3, [pc, #40]	; (900008e8 <HAL_MspInit+0x30>)
900008c0:	f8d3 30f4 	ldr.w	r3, [r3, #244]	; 0xf4
900008c4:	4a08      	ldr	r2, [pc, #32]	; (900008e8 <HAL_MspInit+0x30>)
900008c6:	f043 0302 	orr.w	r3, r3, #2
900008ca:	f8c2 30f4 	str.w	r3, [r2, #244]	; 0xf4
900008ce:	4b06      	ldr	r3, [pc, #24]	; (900008e8 <HAL_MspInit+0x30>)
900008d0:	f8d3 30f4 	ldr.w	r3, [r3, #244]	; 0xf4
900008d4:	f003 0302 	and.w	r3, r3, #2
900008d8:	607b      	str	r3, [r7, #4]
900008da:	687b      	ldr	r3, [r7, #4]
  /* System interrupt init*/

  /* USER CODE BEGIN MspInit 1 */

  /* USER CODE END MspInit 1 */
}
900008dc:	bf00      	nop
900008de:	370c      	adds	r7, #12
900008e0:	46bd      	mov	sp, r7
900008e2:	f85d 7b04 	ldr.w	r7, [sp], #4
900008e6:	4770      	bx	lr
900008e8:	58024400 	.word	0x58024400

900008ec <NMI_Handler>:
/******************************************************************************/
/**
  * @brief This function handles Non maskable interrupt.
  */
void NMI_Handler(void)
{
900008ec:	b480      	push	{r7}
900008ee:	af00      	add	r7, sp, #0
  /* USER CODE BEGIN NonMaskableInt_IRQn 0 */

  /* USER CODE END NonMaskableInt_IRQn 0 */
  /* USER CODE BEGIN NonMaskableInt_IRQn 1 */
  while (1)
900008f0:	e7fe      	b.n	900008f0 <NMI_Handler+0x4>

900008f2 <HardFault_Handler>:

/**
  * @brief This function handles Hard fault interrupt.
  */
void HardFault_Handler(void)
{
900008f2:	b480      	push	{r7}
900008f4:	af00      	add	r7, sp, #0
  /* USER CODE BEGIN HardFault_IRQn 0 */

  /* USER CODE END HardFault_IRQn 0 */
  while (1)
900008f6:	e7fe      	b.n	900008f6 <HardFault_Handler+0x4>

900008f8 <MemManage_Handler>:

/**
  * @brief This function handles Memory management fault.
  */
void MemManage_Handler(void)
{
900008f8:	b480      	push	{r7}
900008fa:	af00      	add	r7, sp, #0
  /* USER CODE BEGIN MemoryManagement_IRQn 0 */

  /* USER CODE END MemoryManagement_IRQn 0 */
  while (1)
900008fc:	e7fe      	b.n	900008fc <MemManage_Handler+0x4>

900008fe <BusFault_Handler>:

/**
  * @brief This function handles Pre-fetch fault, memory access fault.
  */
void BusFault_Handler(void)
{
900008fe:	b480      	push	{r7}
90000900:	af00      	add	r7, sp, #0
  /* USER CODE BEGIN BusFault_IRQn 0 */

  /* USER CODE END BusFault_IRQn 0 */
  while (1)
90000902:	e7fe      	b.n	90000902 <BusFault_Handler+0x4>

90000904 <UsageFault_Handler>:

/**
  * @brief This function handles Undefined instruction or illegal state.
  */
void UsageFault_Handler(void)
{
90000904:	b480      	push	{r7}
90000906:	af00      	add	r7, sp, #0
  /* USER CODE BEGIN UsageFault_IRQn 0 */

  /* USER CODE END UsageFault_IRQn 0 */
  while (1)
90000908:	e7fe      	b.n	90000908 <UsageFault_Handler+0x4>

9000090a <SVC_Handler>:

/**
  * @brief This function handles System service call via SWI instruction.
  */
void SVC_Handler(void)
{
9000090a:	b480      	push	{r7}
9000090c:	af00      	add	r7, sp, #0

  /* USER CODE END SVCall_IRQn 0 */
  /* USER CODE BEGIN SVCall_IRQn 1 */

  /* USER CODE END SVCall_IRQn 1 */
}
9000090e:	bf00      	nop
90000910:	46bd      	mov	sp, r7
90000912:	f85d 7b04 	ldr.w	r7, [sp], #4
90000916:	4770      	bx	lr

90000918 <DebugMon_Handler>:

/**
  * @brief This function handles Debug monitor.
  */
void DebugMon_Handler(void)
{
90000918:	b480      	push	{r7}
9000091a:	af00      	add	r7, sp, #0

  /* USER CODE END DebugMonitor_IRQn 0 */
  /* USER CODE BEGIN DebugMonitor_IRQn 1 */

  /* USER CODE END DebugMonitor_IRQn 1 */
}
9000091c:	bf00      	nop
9000091e:	46bd      	mov	sp, r7
90000920:	f85d 7b04 	ldr.w	r7, [sp], #4
90000924:	4770      	bx	lr

90000926 <PendSV_Handler>:

/**
  * @brief This function handles Pendable request for system service.
  */
void PendSV_Handler(void)
{
90000926:	b480      	push	{r7}
90000928:	af00      	add	r7, sp, #0

  /* USER CODE END PendSV_IRQn 0 */
  /* USER CODE BEGIN PendSV_IRQn 1 */

  /* USER CODE END PendSV_IRQn 1 */
}
9000092a:	bf00      	nop
9000092c:	46bd      	mov	sp, r7
9000092e:	f85d 7b04 	ldr.w	r7, [sp], #4
90000932:	4770      	bx	lr

90000934 <SysTick_Handler>:

/**
  * @brief This function handles System tick timer.
  */
void SysTick_Handler(void)
{
90000934:	b580      	push	{r7, lr}
90000936:	af00      	add	r7, sp, #0
  /* USER CODE BEGIN SysTick_IRQn 0 */

  /* USER CODE END SysTick_IRQn 0 */
  HAL_IncTick();
90000938:	f000 f9d8 	bl	90000cec <HAL_IncTick>
  /* USER CODE BEGIN SysTick_IRQn 1 */

  /* USER CODE END SysTick_IRQn 1 */
}
9000093c:	bf00      	nop
9000093e:	bd80      	pop	{r7, pc}

90000940 <SystemInit>:
  *         configuration.
  * @param  None
  * @retval None
  */
void SystemInit (void)
{
90000940:	b480      	push	{r7}
90000942:	af00      	add	r7, sp, #0
 __IO uint32_t tmpreg;
#endif /* DATA_IN_D2_SRAM */

  /* FPU settings ------------------------------------------------------------*/
  #if (__FPU_PRESENT == 1) && (__FPU_USED == 1)
    SCB->CPACR |= ((3UL << (10*2))|(3UL << (11*2)));  /* set CP10 and CP11 Full Access */
90000944:	4b37      	ldr	r3, [pc, #220]	; (90000a24 <SystemInit+0xe4>)
90000946:	f8d3 3088 	ldr.w	r3, [r3, #136]	; 0x88
9000094a:	4a36      	ldr	r2, [pc, #216]	; (90000a24 <SystemInit+0xe4>)
9000094c:	f443 0370 	orr.w	r3, r3, #15728640	; 0xf00000
90000950:	f8c2 3088 	str.w	r3, [r2, #136]	; 0x88
  #endif
  /* Reset the RCC clock configuration to the default reset state ------------*/

   /* Increasing the CPU frequency */
  if(FLASH_LATENCY_DEFAULT  > (READ_BIT((FLASH->ACR), FLASH_ACR_LATENCY)))
90000954:	4b34      	ldr	r3, [pc, #208]	; (90000a28 <SystemInit+0xe8>)
90000956:	681b      	ldr	r3, [r3, #0]
90000958:	f003 030f 	and.w	r3, r3, #15
9000095c:	2b06      	cmp	r3, #6
9000095e:	d807      	bhi.n	90000970 <SystemInit+0x30>
  {
    /* Program the new number of wait states to the LATENCY bits in the FLASH_ACR register */
    MODIFY_REG(FLASH->ACR, FLASH_ACR_LATENCY, (uint32_t)(FLASH_LATENCY_DEFAULT));
90000960:	4b31      	ldr	r3, [pc, #196]	; (90000a28 <SystemInit+0xe8>)
90000962:	681b      	ldr	r3, [r3, #0]
90000964:	f023 030f 	bic.w	r3, r3, #15
90000968:	4a2f      	ldr	r2, [pc, #188]	; (90000a28 <SystemInit+0xe8>)
9000096a:	f043 0307 	orr.w	r3, r3, #7
9000096e:	6013      	str	r3, [r2, #0]
  }

  /* Set HSION bit */
  RCC->CR |= RCC_CR_HSION;
90000970:	4b2e      	ldr	r3, [pc, #184]	; (90000a2c <SystemInit+0xec>)
90000972:	681b      	ldr	r3, [r3, #0]
90000974:	4a2d      	ldr	r2, [pc, #180]	; (90000a2c <SystemInit+0xec>)
90000976:	f043 0301 	orr.w	r3, r3, #1
9000097a:	6013      	str	r3, [r2, #0]

  /* Reset CFGR register */
  RCC->CFGR = 0x00000000;
9000097c:	4b2b      	ldr	r3, [pc, #172]	; (90000a2c <SystemInit+0xec>)
9000097e:	2200      	movs	r2, #0
90000980:	611a      	str	r2, [r3, #16]

  /* Reset HSEON, HSECSSON, CSION, HSI48ON, CSIKERON, PLL1ON, PLL2ON and PLL3ON bits */
  RCC->CR &= 0xEAF6ED7FU;
90000982:	4b2a      	ldr	r3, [pc, #168]	; (90000a2c <SystemInit+0xec>)
90000984:	681a      	ldr	r2, [r3, #0]
90000986:	4929      	ldr	r1, [pc, #164]	; (90000a2c <SystemInit+0xec>)
90000988:	4b29      	ldr	r3, [pc, #164]	; (90000a30 <SystemInit+0xf0>)
9000098a:	4013      	ands	r3, r2
9000098c:	600b      	str	r3, [r1, #0]

   /* Decreasing the number of wait states because of lower CPU frequency */
  if(FLASH_LATENCY_DEFAULT  < (READ_BIT((FLASH->ACR), FLASH_ACR_LATENCY)))
9000098e:	4b26      	ldr	r3, [pc, #152]	; (90000a28 <SystemInit+0xe8>)
90000990:	681b      	ldr	r3, [r3, #0]
90000992:	f003 0308 	and.w	r3, r3, #8
90000996:	2b00      	cmp	r3, #0
90000998:	d007      	beq.n	900009aa <SystemInit+0x6a>
  {
    /* Program the new number of wait states to the LATENCY bits in the FLASH_ACR register */
    MODIFY_REG(FLASH->ACR, FLASH_ACR_LATENCY, (uint32_t)(FLASH_LATENCY_DEFAULT));
9000099a:	4b23      	ldr	r3, [pc, #140]	; (90000a28 <SystemInit+0xe8>)
9000099c:	681b      	ldr	r3, [r3, #0]
9000099e:	f023 030f 	bic.w	r3, r3, #15
900009a2:	4a21      	ldr	r2, [pc, #132]	; (90000a28 <SystemInit+0xe8>)
900009a4:	f043 0307 	orr.w	r3, r3, #7
900009a8:	6013      	str	r3, [r2, #0]
  }

#if defined(D3_SRAM_BASE)
  /* Reset D1CFGR register */
  RCC->D1CFGR = 0x00000000;
900009aa:	4b20      	ldr	r3, [pc, #128]	; (90000a2c <SystemInit+0xec>)
900009ac:	2200      	movs	r2, #0
900009ae:	619a      	str	r2, [r3, #24]

  /* Reset D2CFGR register */
  RCC->D2CFGR = 0x00000000;
900009b0:	4b1e      	ldr	r3, [pc, #120]	; (90000a2c <SystemInit+0xec>)
900009b2:	2200      	movs	r2, #0
900009b4:	61da      	str	r2, [r3, #28]

  /* Reset D3CFGR register */
  RCC->D3CFGR = 0x00000000;
900009b6:	4b1d      	ldr	r3, [pc, #116]	; (90000a2c <SystemInit+0xec>)
900009b8:	2200      	movs	r2, #0
900009ba:	621a      	str	r2, [r3, #32]

  /* Reset SRDCFGR register */
  RCC->SRDCFGR = 0x00000000;
#endif
  /* Reset PLLCKSELR register */
  RCC->PLLCKSELR = 0x02020200;
900009bc:	4b1b      	ldr	r3, [pc, #108]	; (90000a2c <SystemInit+0xec>)
900009be:	4a1d      	ldr	r2, [pc, #116]	; (90000a34 <SystemInit+0xf4>)
900009c0:	629a      	str	r2, [r3, #40]	; 0x28

  /* Reset PLLCFGR register */
  RCC->PLLCFGR = 0x01FF0000;
900009c2:	4b1a      	ldr	r3, [pc, #104]	; (90000a2c <SystemInit+0xec>)
900009c4:	4a1c      	ldr	r2, [pc, #112]	; (90000a38 <SystemInit+0xf8>)
900009c6:	62da      	str	r2, [r3, #44]	; 0x2c
  /* Reset PLL1DIVR register */
  RCC->PLL1DIVR = 0x01010280;
900009c8:	4b18      	ldr	r3, [pc, #96]	; (90000a2c <SystemInit+0xec>)
900009ca:	4a1c      	ldr	r2, [pc, #112]	; (90000a3c <SystemInit+0xfc>)
900009cc:	631a      	str	r2, [r3, #48]	; 0x30
  /* Reset PLL1FRACR register */
  RCC->PLL1FRACR = 0x00000000;
900009ce:	4b17      	ldr	r3, [pc, #92]	; (90000a2c <SystemInit+0xec>)
900009d0:	2200      	movs	r2, #0
900009d2:	635a      	str	r2, [r3, #52]	; 0x34

  /* Reset PLL2DIVR register */
  RCC->PLL2DIVR = 0x01010280;
900009d4:	4b15      	ldr	r3, [pc, #84]	; (90000a2c <SystemInit+0xec>)
900009d6:	4a19      	ldr	r2, [pc, #100]	; (90000a3c <SystemInit+0xfc>)
900009d8:	639a      	str	r2, [r3, #56]	; 0x38

  /* Reset PLL2FRACR register */

  RCC->PLL2FRACR = 0x00000000;
900009da:	4b14      	ldr	r3, [pc, #80]	; (90000a2c <SystemInit+0xec>)
900009dc:	2200      	movs	r2, #0
900009de:	63da      	str	r2, [r3, #60]	; 0x3c
  /* Reset PLL3DIVR register */
  RCC->PLL3DIVR = 0x01010280;
900009e0:	4b12      	ldr	r3, [pc, #72]	; (90000a2c <SystemInit+0xec>)
900009e2:	4a16      	ldr	r2, [pc, #88]	; (90000a3c <SystemInit+0xfc>)
900009e4:	641a      	str	r2, [r3, #64]	; 0x40

  /* Reset PLL3FRACR register */
  RCC->PLL3FRACR = 0x00000000;
900009e6:	4b11      	ldr	r3, [pc, #68]	; (90000a2c <SystemInit+0xec>)
900009e8:	2200      	movs	r2, #0
900009ea:	645a      	str	r2, [r3, #68]	; 0x44

  /* Reset HSEBYP bit */
  RCC->CR &= 0xFFFBFFFFU;
900009ec:	4b0f      	ldr	r3, [pc, #60]	; (90000a2c <SystemInit+0xec>)
900009ee:	681b      	ldr	r3, [r3, #0]
900009f0:	4a0e      	ldr	r2, [pc, #56]	; (90000a2c <SystemInit+0xec>)
900009f2:	f423 2380 	bic.w	r3, r3, #262144	; 0x40000
900009f6:	6013      	str	r3, [r2, #0]

  /* Disable all interrupts */
  RCC->CIER = 0x00000000;
900009f8:	4b0c      	ldr	r3, [pc, #48]	; (90000a2c <SystemInit+0xec>)
900009fa:	2200      	movs	r2, #0
900009fc:	661a      	str	r2, [r3, #96]	; 0x60

#if (STM32H7_DEV_ID == 0x450UL)
  /* dual core CM7 or single core line */
  if((DBGMCU->IDCODE & 0xFFFF0000U) < 0x20000000U)
900009fe:	4b10      	ldr	r3, [pc, #64]	; (90000a40 <SystemInit+0x100>)
90000a00:	681a      	ldr	r2, [r3, #0]
90000a02:	4b10      	ldr	r3, [pc, #64]	; (90000a44 <SystemInit+0x104>)
90000a04:	4013      	ands	r3, r2
90000a06:	f1b3 5f00 	cmp.w	r3, #536870912	; 0x20000000
90000a0a:	d202      	bcs.n	90000a12 <SystemInit+0xd2>
  {
    /* if stm32h7 revY*/
    /* Change  the switch matrix read issuing capability to 1 for the AXI SRAM target (Target 7) */
    *((__IO uint32_t*)0x51008108) = 0x000000001U;
90000a0c:	4b0e      	ldr	r3, [pc, #56]	; (90000a48 <SystemInit+0x108>)
90000a0e:	2201      	movs	r2, #1
90000a10:	601a      	str	r2, [r3, #0]
  /*
   * Disable the FMC bank1 (enabled after reset).
   * This, prevents CPU speculation access on this bank which blocks the use of FMC during
   * 24us. During this time the others FMC master (such as LTDC) cannot use it!
   */
  FMC_Bank1_R->BTCR[0] = 0x000030D2;
90000a12:	4b0e      	ldr	r3, [pc, #56]	; (90000a4c <SystemInit+0x10c>)
90000a14:	f243 02d2 	movw	r2, #12498	; 0x30d2
90000a18:	601a      	str	r2, [r3, #0]
#if defined(USER_VECT_TAB_ADDRESS)
  SCB->VTOR = VECT_TAB_BASE_ADDRESS | VECT_TAB_OFFSET; /* Vector Table Relocation in Internal D1 AXI-RAM or in Internal FLASH */
#endif /* USER_VECT_TAB_ADDRESS */

#endif /*DUAL_CORE && CORE_CM4*/
}
90000a1a:	bf00      	nop
90000a1c:	46bd      	mov	sp, r7
90000a1e:	f85d 7b04 	ldr.w	r7, [sp], #4
90000a22:	4770      	bx	lr
90000a24:	e000ed00 	.word	0xe000ed00
90000a28:	52002000 	.word	0x52002000
90000a2c:	58024400 	.word	0x58024400
90000a30:	eaf6ed7f 	.word	0xeaf6ed7f
90000a34:	02020200 	.word	0x02020200
90000a38:	01ff0000 	.word	0x01ff0000
90000a3c:	01010280 	.word	0x01010280
90000a40:	5c001000 	.word	0x5c001000
90000a44:	ffff0000 	.word	0xffff0000
90000a48:	51008108 	.word	0x51008108
90000a4c:	52004000 	.word	0x52004000

90000a50 <MX_USART1_UART_Init>:
UART_HandleTypeDef huart1;

/* USART1 init function */

void MX_USART1_UART_Init(void)
{
90000a50:	b580      	push	{r7, lr}
90000a52:	af00      	add	r7, sp, #0
  /* USER CODE END USART1_Init 0 */

  /* USER CODE BEGIN USART1_Init 1 */

  /* USER CODE END USART1_Init 1 */
  huart1.Instance = USART1;
90000a54:	4b22      	ldr	r3, [pc, #136]	; (90000ae0 <MX_USART1_UART_Init+0x90>)
90000a56:	4a23      	ldr	r2, [pc, #140]	; (90000ae4 <MX_USART1_UART_Init+0x94>)
90000a58:	601a      	str	r2, [r3, #0]
  huart1.Init.BaudRate = 115200;
90000a5a:	4b21      	ldr	r3, [pc, #132]	; (90000ae0 <MX_USART1_UART_Init+0x90>)
90000a5c:	f44f 32e1 	mov.w	r2, #115200	; 0x1c200
90000a60:	605a      	str	r2, [r3, #4]
  huart1.Init.WordLength = UART_WORDLENGTH_8B;
90000a62:	4b1f      	ldr	r3, [pc, #124]	; (90000ae0 <MX_USART1_UART_Init+0x90>)
90000a64:	2200      	movs	r2, #0
90000a66:	609a      	str	r2, [r3, #8]
  huart1.Init.StopBits = UART_STOPBITS_1;
90000a68:	4b1d      	ldr	r3, [pc, #116]	; (90000ae0 <MX_USART1_UART_Init+0x90>)
90000a6a:	2200      	movs	r2, #0
90000a6c:	60da      	str	r2, [r3, #12]
  huart1.Init.Parity = UART_PARITY_NONE;
90000a6e:	4b1c      	ldr	r3, [pc, #112]	; (90000ae0 <MX_USART1_UART_Init+0x90>)
90000a70:	2200      	movs	r2, #0
90000a72:	611a      	str	r2, [r3, #16]
  huart1.Init.Mode = UART_MODE_TX_RX;
90000a74:	4b1a      	ldr	r3, [pc, #104]	; (90000ae0 <MX_USART1_UART_Init+0x90>)
90000a76:	220c      	movs	r2, #12
90000a78:	615a      	str	r2, [r3, #20]
  huart1.Init.HwFlowCtl = UART_HWCONTROL_NONE;
90000a7a:	4b19      	ldr	r3, [pc, #100]	; (90000ae0 <MX_USART1_UART_Init+0x90>)
90000a7c:	2200      	movs	r2, #0
90000a7e:	619a      	str	r2, [r3, #24]
  huart1.Init.OverSampling = UART_OVERSAMPLING_16;
90000a80:	4b17      	ldr	r3, [pc, #92]	; (90000ae0 <MX_USART1_UART_Init+0x90>)
90000a82:	2200      	movs	r2, #0
90000a84:	61da      	str	r2, [r3, #28]
  huart1.Init.OneBitSampling = UART_ONE_BIT_SAMPLE_DISABLE;
90000a86:	4b16      	ldr	r3, [pc, #88]	; (90000ae0 <MX_USART1_UART_Init+0x90>)
90000a88:	2200      	movs	r2, #0
90000a8a:	621a      	str	r2, [r3, #32]
  huart1.Init.ClockPrescaler = UART_PRESCALER_DIV1;
90000a8c:	4b14      	ldr	r3, [pc, #80]	; (90000ae0 <MX_USART1_UART_Init+0x90>)
90000a8e:	2200      	movs	r2, #0
90000a90:	625a      	str	r2, [r3, #36]	; 0x24
  huart1.AdvancedInit.AdvFeatureInit = UART_ADVFEATURE_NO_INIT;
90000a92:	4b13      	ldr	r3, [pc, #76]	; (90000ae0 <MX_USART1_UART_Init+0x90>)
90000a94:	2200      	movs	r2, #0
90000a96:	629a      	str	r2, [r3, #40]	; 0x28
  if (HAL_UART_Init(&huart1) != HAL_OK)
90000a98:	4811      	ldr	r0, [pc, #68]	; (90000ae0 <MX_USART1_UART_Init+0x90>)
90000a9a:	f004 f8d1 	bl	90004c40 <HAL_UART_Init>
90000a9e:	4603      	mov	r3, r0
90000aa0:	2b00      	cmp	r3, #0
90000aa2:	d001      	beq.n	90000aa8 <MX_USART1_UART_Init+0x58>
  {
    Error_Handler();
90000aa4:	f7ff fef8 	bl	90000898 <Error_Handler>
  }
  if (HAL_UARTEx_SetTxFifoThreshold(&huart1, UART_TXFIFO_THRESHOLD_1_8) != HAL_OK)
90000aa8:	2100      	movs	r1, #0
90000aaa:	480d      	ldr	r0, [pc, #52]	; (90000ae0 <MX_USART1_UART_Init+0x90>)
90000aac:	f005 fb6e 	bl	9000618c <HAL_UARTEx_SetTxFifoThreshold>
90000ab0:	4603      	mov	r3, r0
90000ab2:	2b00      	cmp	r3, #0
90000ab4:	d001      	beq.n	90000aba <MX_USART1_UART_Init+0x6a>
  {
    Error_Handler();
90000ab6:	f7ff feef 	bl	90000898 <Error_Handler>
  }
  if (HAL_UARTEx_SetRxFifoThreshold(&huart1, UART_RXFIFO_THRESHOLD_1_8) != HAL_OK)
90000aba:	2100      	movs	r1, #0
90000abc:	4808      	ldr	r0, [pc, #32]	; (90000ae0 <MX_USART1_UART_Init+0x90>)
90000abe:	f005 fbff 	bl	900062c0 <HAL_UARTEx_SetRxFifoThreshold>
90000ac2:	4603      	mov	r3, r0
90000ac4:	2b00      	cmp	r3, #0
90000ac6:	d001      	beq.n	90000acc <MX_USART1_UART_Init+0x7c>
  {
    Error_Handler();
90000ac8:	f7ff fee6 	bl	90000898 <Error_Handler>
  }
  if (HAL_UARTEx_DisableFifoMode(&huart1) != HAL_OK)
90000acc:	4804      	ldr	r0, [pc, #16]	; (90000ae0 <MX_USART1_UART_Init+0x90>)
90000ace:	f005 fae7 	bl	900060a0 <HAL_UARTEx_DisableFifoMode>
90000ad2:	4603      	mov	r3, r0
90000ad4:	2b00      	cmp	r3, #0
90000ad6:	d001      	beq.n	90000adc <MX_USART1_UART_Init+0x8c>
  {
    Error_Handler();
90000ad8:	f7ff fede 	bl	90000898 <Error_Handler>
  }
  /* USER CODE BEGIN USART1_Init 2 */

  /* USER CODE END USART1_Init 2 */

}
90000adc:	bf00      	nop
90000ade:	bd80      	pop	{r7, pc}
90000ae0:	2400002c 	.word	0x2400002c
90000ae4:	40011000 	.word	0x40011000

90000ae8 <HAL_UART_MspInit>:

void HAL_UART_MspInit(UART_HandleTypeDef* uartHandle)
{
90000ae8:	b580      	push	{r7, lr}
90000aea:	b0b8      	sub	sp, #224	; 0xe0
90000aec:	af00      	add	r7, sp, #0
90000aee:	6078      	str	r0, [r7, #4]

  GPIO_InitTypeDef GPIO_InitStruct = {0};
90000af0:	f107 03cc 	add.w	r3, r7, #204	; 0xcc
90000af4:	2200      	movs	r2, #0
90000af6:	601a      	str	r2, [r3, #0]
90000af8:	605a      	str	r2, [r3, #4]
90000afa:	609a      	str	r2, [r3, #8]
90000afc:	60da      	str	r2, [r3, #12]
90000afe:	611a      	str	r2, [r3, #16]
  RCC_PeriphCLKInitTypeDef PeriphClkInitStruct = {0};
90000b00:	f107 0310 	add.w	r3, r7, #16
90000b04:	22bc      	movs	r2, #188	; 0xbc
90000b06:	2100      	movs	r1, #0
90000b08:	4618      	mov	r0, r3
90000b0a:	f005 fce5 	bl	900064d8 <memset>
  if(uartHandle->Instance==USART1)
90000b0e:	687b      	ldr	r3, [r7, #4]
90000b10:	681b      	ldr	r3, [r3, #0]
90000b12:	4a25      	ldr	r2, [pc, #148]	; (90000ba8 <HAL_UART_MspInit+0xc0>)
90000b14:	4293      	cmp	r3, r2
90000b16:	d142      	bne.n	90000b9e <HAL_UART_MspInit+0xb6>

  /* USER CODE END USART1_MspInit 0 */

  /** Initializes the peripherals clock
  */
    PeriphClkInitStruct.PeriphClockSelection = RCC_PERIPHCLK_USART1;
90000b18:	2301      	movs	r3, #1
90000b1a:	613b      	str	r3, [r7, #16]
    PeriphClkInitStruct.Usart16ClockSelection = RCC_USART16CLKSOURCE_D2PCLK2;
90000b1c:	2300      	movs	r3, #0
90000b1e:	f8c7 3088 	str.w	r3, [r7, #136]	; 0x88
    if (HAL_RCCEx_PeriphCLKConfig(&PeriphClkInitStruct) != HAL_OK)
90000b22:	f107 0310 	add.w	r3, r7, #16
90000b26:	4618      	mov	r0, r3
90000b28:	f002 f978 	bl	90002e1c <HAL_RCCEx_PeriphCLKConfig>
90000b2c:	4603      	mov	r3, r0
90000b2e:	2b00      	cmp	r3, #0
90000b30:	d001      	beq.n	90000b36 <HAL_UART_MspInit+0x4e>
    {
      Error_Handler();
90000b32:	f7ff feb1 	bl	90000898 <Error_Handler>
    }

    /* USART1 clock enable */
    __HAL_RCC_USART1_CLK_ENABLE();
90000b36:	4b1d      	ldr	r3, [pc, #116]	; (90000bac <HAL_UART_MspInit+0xc4>)
90000b38:	f8d3 30f0 	ldr.w	r3, [r3, #240]	; 0xf0
90000b3c:	4a1b      	ldr	r2, [pc, #108]	; (90000bac <HAL_UART_MspInit+0xc4>)
90000b3e:	f043 0310 	orr.w	r3, r3, #16
90000b42:	f8c2 30f0 	str.w	r3, [r2, #240]	; 0xf0
90000b46:	4b19      	ldr	r3, [pc, #100]	; (90000bac <HAL_UART_MspInit+0xc4>)
90000b48:	f8d3 30f0 	ldr.w	r3, [r3, #240]	; 0xf0
90000b4c:	f003 0310 	and.w	r3, r3, #16
90000b50:	60fb      	str	r3, [r7, #12]
90000b52:	68fb      	ldr	r3, [r7, #12]

    __HAL_RCC_GPIOA_CLK_ENABLE();
90000b54:	4b15      	ldr	r3, [pc, #84]	; (90000bac <HAL_UART_MspInit+0xc4>)
90000b56:	f8d3 30e0 	ldr.w	r3, [r3, #224]	; 0xe0
90000b5a:	4a14      	ldr	r2, [pc, #80]	; (90000bac <HAL_UART_MspInit+0xc4>)
90000b5c:	f043 0301 	orr.w	r3, r3, #1
90000b60:	f8c2 30e0 	str.w	r3, [r2, #224]	; 0xe0
90000b64:	4b11      	ldr	r3, [pc, #68]	; (90000bac <HAL_UART_MspInit+0xc4>)
90000b66:	f8d3 30e0 	ldr.w	r3, [r3, #224]	; 0xe0
90000b6a:	f003 0301 	and.w	r3, r3, #1
90000b6e:	60bb      	str	r3, [r7, #8]
90000b70:	68bb      	ldr	r3, [r7, #8]
    /**USART1 GPIO Configuration
    PA10     ------> USART1_RX
    PA9     ------> USART1_TX
    */
    GPIO_InitStruct.Pin = GPIO_PIN_10|GPIO_PIN_9;
90000b72:	f44f 63c0 	mov.w	r3, #1536	; 0x600
90000b76:	f8c7 30cc 	str.w	r3, [r7, #204]	; 0xcc
    GPIO_InitStruct.Mode = GPIO_MODE_AF_PP;
90000b7a:	2302      	movs	r3, #2
90000b7c:	f8c7 30d0 	str.w	r3, [r7, #208]	; 0xd0
    GPIO_InitStruct.Pull = GPIO_NOPULL;
90000b80:	2300      	movs	r3, #0
90000b82:	f8c7 30d4 	str.w	r3, [r7, #212]	; 0xd4
    GPIO_InitStruct.Speed = GPIO_SPEED_FREQ_LOW;
90000b86:	2300      	movs	r3, #0
90000b88:	f8c7 30d8 	str.w	r3, [r7, #216]	; 0xd8
    GPIO_InitStruct.Alternate = GPIO_AF7_USART1;
90000b8c:	2307      	movs	r3, #7
90000b8e:	f8c7 30dc 	str.w	r3, [r7, #220]	; 0xdc
    HAL_GPIO_Init(GPIOA, &GPIO_InitStruct);
90000b92:	f107 03cc 	add.w	r3, r7, #204	; 0xcc
90000b96:	4619      	mov	r1, r3
90000b98:	4805      	ldr	r0, [pc, #20]	; (90000bb0 <HAL_UART_MspInit+0xc8>)
90000b9a:	f000 fb8f 	bl	900012bc <HAL_GPIO_Init>

  /* USER CODE BEGIN USART1_MspInit 1 */

  /* USER CODE END USART1_MspInit 1 */
  }
}
90000b9e:	bf00      	nop
90000ba0:	37e0      	adds	r7, #224	; 0xe0
90000ba2:	46bd      	mov	sp, r7
90000ba4:	bd80      	pop	{r7, pc}
90000ba6:	bf00      	nop
90000ba8:	40011000 	.word	0x40011000
90000bac:	58024400 	.word	0x58024400
90000bb0:	58020000 	.word	0x58020000

90000bb4 <Reset_Handler>:

    .section  .text.Reset_Handler
  .weak  Reset_Handler
  .type  Reset_Handler, %function
Reset_Handler:
  ldr   sp, =_estack      /* set stack pointer */
90000bb4:	f8df d034 	ldr.w	sp, [pc, #52]	; 90000bec <LoopFillZerobss+0xe>

/* Call the clock system initialization function.*/
  bl  SystemInit
90000bb8:	f7ff fec2 	bl	90000940 <SystemInit>

/* Copy the data segment initializers from flash to SRAM */
  ldr r0, =_sdata
90000bbc:	480c      	ldr	r0, [pc, #48]	; (90000bf0 <LoopFillZerobss+0x12>)
  ldr r1, =_edata
90000bbe:	490d      	ldr	r1, [pc, #52]	; (90000bf4 <LoopFillZerobss+0x16>)
  ldr r2, =_sidata
90000bc0:	4a0d      	ldr	r2, [pc, #52]	; (90000bf8 <LoopFillZerobss+0x1a>)
  movs r3, #0
90000bc2:	2300      	movs	r3, #0
  b LoopCopyDataInit
90000bc4:	e002      	b.n	90000bcc <LoopCopyDataInit>

90000bc6 <CopyDataInit>:

CopyDataInit:
  ldr r4, [r2, r3]
90000bc6:	58d4      	ldr	r4, [r2, r3]
  str r4, [r0, r3]
90000bc8:	50c4      	str	r4, [r0, r3]
  adds r3, r3, #4
90000bca:	3304      	adds	r3, #4

90000bcc <LoopCopyDataInit>:

LoopCopyDataInit:
  adds r4, r0, r3
90000bcc:	18c4      	adds	r4, r0, r3
  cmp r4, r1
90000bce:	428c      	cmp	r4, r1
  bcc CopyDataInit
90000bd0:	d3f9      	bcc.n	90000bc6 <CopyDataInit>
/* Zero fill the bss segment. */
  ldr r2, =_sbss
90000bd2:	4a0a      	ldr	r2, [pc, #40]	; (90000bfc <LoopFillZerobss+0x1e>)
  ldr r4, =_ebss
90000bd4:	4c0a      	ldr	r4, [pc, #40]	; (90000c00 <LoopFillZerobss+0x22>)
  movs r3, #0
90000bd6:	2300      	movs	r3, #0
  b LoopFillZerobss
90000bd8:	e001      	b.n	90000bde <LoopFillZerobss>

90000bda <FillZerobss>:

FillZerobss:
  str  r3, [r2]
90000bda:	6013      	str	r3, [r2, #0]
  adds r2, r2, #4
90000bdc:	3204      	adds	r2, #4

90000bde <LoopFillZerobss>:

LoopFillZerobss:
  cmp r2, r4
90000bde:	42a2      	cmp	r2, r4
  bcc FillZerobss
90000be0:	d3fb      	bcc.n	90000bda <FillZerobss>

/* Call static constructors */
    bl __libc_init_array
90000be2:	f005 fc55 	bl	90006490 <__libc_init_array>
/* Call the application's entry point.*/
  bl  main
90000be6:	f7ff fd31 	bl	9000064c <main>
  bx  lr
90000bea:	4770      	bx	lr
  ldr   sp, =_estack      /* set stack pointer */
90000bec:	24080000 	.word	0x24080000
  ldr r0, =_sdata
90000bf0:	24000000 	.word	0x24000000
  ldr r1, =_edata
90000bf4:	24000010 	.word	0x24000010
  ldr r2, =_sidata
90000bf8:	900066f4 	.word	0x900066f4
  ldr r2, =_sbss
90000bfc:	24000010 	.word	0x24000010
  ldr r4, =_ebss
90000c00:	240000c0 	.word	0x240000c0

90000c04 <ADC3_IRQHandler>:
 * @retval None
*/
    .section  .text.Default_Handler,"ax",%progbits
Default_Handler:
Infinite_Loop:
  b  Infinite_Loop
90000c04:	e7fe      	b.n	90000c04 <ADC3_IRQHandler>
	...

90000c08 <HAL_Init>:
  *         need to ensure that the SysTick time base is always set to 1 millisecond
  *         to have correct HAL operation.
  * @retval HAL status
  */
HAL_StatusTypeDef HAL_Init(void)
{
90000c08:	b580      	push	{r7, lr}
90000c0a:	b082      	sub	sp, #8
90000c0c:	af00      	add	r7, sp, #0
   __HAL_ART_CONFIG_BASE_ADDRESS(0x08100000UL);  /* Configure the Cortex-M4 ART Base address to the Flash Bank 2 : */
   __HAL_ART_ENABLE();                           /* Enable the Cortex-M4 ART */
#endif /* DUAL_CORE &&  CORE_CM4 */

  /* Set Interrupt Group Priority */
  HAL_NVIC_SetPriorityGrouping(NVIC_PRIORITYGROUP_4);
90000c0e:	2003      	movs	r0, #3
90000c10:	f000 f94a 	bl	90000ea8 <HAL_NVIC_SetPriorityGrouping>

  /* Update the SystemCoreClock global variable */
#if defined(RCC_D1CFGR_D1CPRE)
  common_system_clock = HAL_RCC_GetSysClockFreq() >> ((D1CorePrescTable[(RCC->D1CFGR & RCC_D1CFGR_D1CPRE)>> RCC_D1CFGR_D1CPRE_Pos]) & 0x1FU);
90000c14:	f001 ff2c 	bl	90002a70 <HAL_RCC_GetSysClockFreq>
90000c18:	4602      	mov	r2, r0
90000c1a:	4b15      	ldr	r3, [pc, #84]	; (90000c70 <HAL_Init+0x68>)
90000c1c:	699b      	ldr	r3, [r3, #24]
90000c1e:	0a1b      	lsrs	r3, r3, #8
90000c20:	f003 030f 	and.w	r3, r3, #15
90000c24:	4913      	ldr	r1, [pc, #76]	; (90000c74 <HAL_Init+0x6c>)
90000c26:	5ccb      	ldrb	r3, [r1, r3]
90000c28:	f003 031f 	and.w	r3, r3, #31
90000c2c:	fa22 f303 	lsr.w	r3, r2, r3
90000c30:	607b      	str	r3, [r7, #4]
  common_system_clock = HAL_RCC_GetSysClockFreq() >> ((D1CorePrescTable[(RCC->CDCFGR1 & RCC_CDCFGR1_CDCPRE)>> RCC_CDCFGR1_CDCPRE_Pos]) & 0x1FU);
#endif

  /* Update the SystemD2Clock global variable */
#if defined(RCC_D1CFGR_HPRE)
  SystemD2Clock = (common_system_clock >> ((D1CorePrescTable[(RCC->D1CFGR & RCC_D1CFGR_HPRE)>> RCC_D1CFGR_HPRE_Pos]) & 0x1FU));
90000c32:	4b0f      	ldr	r3, [pc, #60]	; (90000c70 <HAL_Init+0x68>)
90000c34:	699b      	ldr	r3, [r3, #24]
90000c36:	f003 030f 	and.w	r3, r3, #15
90000c3a:	4a0e      	ldr	r2, [pc, #56]	; (90000c74 <HAL_Init+0x6c>)
90000c3c:	5cd3      	ldrb	r3, [r2, r3]
90000c3e:	f003 031f 	and.w	r3, r3, #31
90000c42:	687a      	ldr	r2, [r7, #4]
90000c44:	fa22 f303 	lsr.w	r3, r2, r3
90000c48:	4a0b      	ldr	r2, [pc, #44]	; (90000c78 <HAL_Init+0x70>)
90000c4a:	6013      	str	r3, [r2, #0]
#endif

#if defined(DUAL_CORE) && defined(CORE_CM4)
  SystemCoreClock = SystemD2Clock;
#else
  SystemCoreClock = common_system_clock;
90000c4c:	4a0b      	ldr	r2, [pc, #44]	; (90000c7c <HAL_Init+0x74>)
90000c4e:	687b      	ldr	r3, [r7, #4]
90000c50:	6013      	str	r3, [r2, #0]
#endif /* DUAL_CORE && CORE_CM4 */

  /* Use systick as time base source and configure 1ms tick (default clock after Reset is HSI) */
  if(HAL_InitTick(TICK_INT_PRIORITY) != HAL_OK)
90000c52:	200f      	movs	r0, #15
90000c54:	f000 f814 	bl	90000c80 <HAL_InitTick>
90000c58:	4603      	mov	r3, r0
90000c5a:	2b00      	cmp	r3, #0
90000c5c:	d001      	beq.n	90000c62 <HAL_Init+0x5a>
  {
    return HAL_ERROR;
90000c5e:	2301      	movs	r3, #1
90000c60:	e002      	b.n	90000c68 <HAL_Init+0x60>
  }

  /* Init the low level hardware */
  HAL_MspInit();
90000c62:	f7ff fe29 	bl	900008b8 <HAL_MspInit>

  /* Return function status */
  return HAL_OK;
90000c66:	2300      	movs	r3, #0
}
90000c68:	4618      	mov	r0, r3
90000c6a:	3708      	adds	r7, #8
90000c6c:	46bd      	mov	sp, r7
90000c6e:	bd80      	pop	{r7, pc}
90000c70:	58024400 	.word	0x58024400
90000c74:	900066ac 	.word	0x900066ac
90000c78:	24000004 	.word	0x24000004
90000c7c:	24000000 	.word	0x24000000

90000c80 <HAL_InitTick>:
  *       implementation  in user file.
  * @param TickPriority: Tick interrupt priority.
  * @retval HAL status
  */
__weak HAL_StatusTypeDef HAL_InitTick(uint32_t TickPriority)
{
90000c80:	b580      	push	{r7, lr}
90000c82:	b082      	sub	sp, #8
90000c84:	af00      	add	r7, sp, #0
90000c86:	6078      	str	r0, [r7, #4]
  /* Check uwTickFreq for MisraC 2012 (even if uwTickFreq is a enum type that don't take the value zero)*/
  if((uint32_t)uwTickFreq == 0UL)
90000c88:	4b15      	ldr	r3, [pc, #84]	; (90000ce0 <HAL_InitTick+0x60>)
90000c8a:	781b      	ldrb	r3, [r3, #0]
90000c8c:	2b00      	cmp	r3, #0
90000c8e:	d101      	bne.n	90000c94 <HAL_InitTick+0x14>
  {
    return HAL_ERROR;
90000c90:	2301      	movs	r3, #1
90000c92:	e021      	b.n	90000cd8 <HAL_InitTick+0x58>
  }

    /* Configure the SysTick to have interrupt in 1ms time basis*/
    if (HAL_SYSTICK_Config(SystemCoreClock / (1000UL / (uint32_t)uwTickFreq)) > 0U)
90000c94:	4b13      	ldr	r3, [pc, #76]	; (90000ce4 <HAL_InitTick+0x64>)
90000c96:	681a      	ldr	r2, [r3, #0]
90000c98:	4b11      	ldr	r3, [pc, #68]	; (90000ce0 <HAL_InitTick+0x60>)
90000c9a:	781b      	ldrb	r3, [r3, #0]
90000c9c:	4619      	mov	r1, r3
90000c9e:	f44f 737a 	mov.w	r3, #1000	; 0x3e8
90000ca2:	fbb3 f3f1 	udiv	r3, r3, r1
90000ca6:	fbb2 f3f3 	udiv	r3, r2, r3
90000caa:	4618      	mov	r0, r3
90000cac:	f000 f946 	bl	90000f3c <HAL_SYSTICK_Config>
90000cb0:	4603      	mov	r3, r0
90000cb2:	2b00      	cmp	r3, #0
90000cb4:	d001      	beq.n	90000cba <HAL_InitTick+0x3a>
    {
      return HAL_ERROR;
90000cb6:	2301      	movs	r3, #1
90000cb8:	e00e      	b.n	90000cd8 <HAL_InitTick+0x58>
    }

  /* Configure the SysTick IRQ priority */
  if (TickPriority < (1UL << __NVIC_PRIO_BITS))
90000cba:	687b      	ldr	r3, [r7, #4]
90000cbc:	2b0f      	cmp	r3, #15
90000cbe:	d80a      	bhi.n	90000cd6 <HAL_InitTick+0x56>
  {
    HAL_NVIC_SetPriority(SysTick_IRQn, TickPriority, 0U);
90000cc0:	2200      	movs	r2, #0
90000cc2:	6879      	ldr	r1, [r7, #4]
90000cc4:	f04f 30ff 	mov.w	r0, #4294967295
90000cc8:	f000 f90e 	bl	90000ee8 <HAL_NVIC_SetPriority>
    uwTickPrio = TickPriority;
90000ccc:	4a06      	ldr	r2, [pc, #24]	; (90000ce8 <HAL_InitTick+0x68>)
90000cce:	687b      	ldr	r3, [r7, #4]
90000cd0:	6013      	str	r3, [r2, #0]
  {
    return HAL_ERROR;
  }

  /* Return function status */
  return HAL_OK;
90000cd2:	2300      	movs	r3, #0
90000cd4:	e000      	b.n	90000cd8 <HAL_InitTick+0x58>
    return HAL_ERROR;
90000cd6:	2301      	movs	r3, #1
}
90000cd8:	4618      	mov	r0, r3
90000cda:	3708      	adds	r7, #8
90000cdc:	46bd      	mov	sp, r7
90000cde:	bd80      	pop	{r7, pc}
90000ce0:	2400000c 	.word	0x2400000c
90000ce4:	24000000 	.word	0x24000000
90000ce8:	24000008 	.word	0x24000008

90000cec <HAL_IncTick>:
 * @note This function is declared as __weak to be overwritten in case of other
  *      implementations in user file.
  * @retval None
  */
__weak void HAL_IncTick(void)
{
90000cec:	b480      	push	{r7}
90000cee:	af00      	add	r7, sp, #0
  uwTick += (uint32_t)uwTickFreq;
90000cf0:	4b06      	ldr	r3, [pc, #24]	; (90000d0c <HAL_IncTick+0x20>)
90000cf2:	781b      	ldrb	r3, [r3, #0]
90000cf4:	461a      	mov	r2, r3
90000cf6:	4b06      	ldr	r3, [pc, #24]	; (90000d10 <HAL_IncTick+0x24>)
90000cf8:	681b      	ldr	r3, [r3, #0]
90000cfa:	4413      	add	r3, r2
90000cfc:	4a04      	ldr	r2, [pc, #16]	; (90000d10 <HAL_IncTick+0x24>)
90000cfe:	6013      	str	r3, [r2, #0]
}
90000d00:	bf00      	nop
90000d02:	46bd      	mov	sp, r7
90000d04:	f85d 7b04 	ldr.w	r7, [sp], #4
90000d08:	4770      	bx	lr
90000d0a:	bf00      	nop
90000d0c:	2400000c 	.word	0x2400000c
90000d10:	240000bc 	.word	0x240000bc

90000d14 <HAL_GetTick>:
  * @note This function is declared as __weak to be overwritten in case of other
  *       implementations in user file.
  * @retval tick value
  */
__weak uint32_t HAL_GetTick(void)
{
90000d14:	b480      	push	{r7}
90000d16:	af00      	add	r7, sp, #0
  return uwTick;
90000d18:	4b03      	ldr	r3, [pc, #12]	; (90000d28 <HAL_GetTick+0x14>)
90000d1a:	681b      	ldr	r3, [r3, #0]
}
90000d1c:	4618      	mov	r0, r3
90000d1e:	46bd      	mov	sp, r7
90000d20:	f85d 7b04 	ldr.w	r7, [sp], #4
90000d24:	4770      	bx	lr
90000d26:	bf00      	nop
90000d28:	240000bc 	.word	0x240000bc

90000d2c <HAL_GetREVID>:
/**
  * @brief  Returns the device revision identifier.
  * @retval Device revision identifier
  */
uint32_t HAL_GetREVID(void)
{
90000d2c:	b480      	push	{r7}
90000d2e:	af00      	add	r7, sp, #0
   return((DBGMCU->IDCODE) >> 16);
90000d30:	4b03      	ldr	r3, [pc, #12]	; (90000d40 <HAL_GetREVID+0x14>)
90000d32:	681b      	ldr	r3, [r3, #0]
90000d34:	0c1b      	lsrs	r3, r3, #16
}
90000d36:	4618      	mov	r0, r3
90000d38:	46bd      	mov	sp, r7
90000d3a:	f85d 7b04 	ldr.w	r7, [sp], #4
90000d3e:	4770      	bx	lr
90000d40:	5c001000 	.word	0x5c001000

90000d44 <__NVIC_SetPriorityGrouping>:
{
90000d44:	b480      	push	{r7}
90000d46:	b085      	sub	sp, #20
90000d48:	af00      	add	r7, sp, #0
90000d4a:	6078      	str	r0, [r7, #4]
  uint32_t PriorityGroupTmp = (PriorityGroup & (uint32_t)0x07UL);             /* only values 0..7 are used          */
90000d4c:	687b      	ldr	r3, [r7, #4]
90000d4e:	f003 0307 	and.w	r3, r3, #7
90000d52:	60fb      	str	r3, [r7, #12]
  reg_value  =  SCB->AIRCR;                                                   /* read old register configuration    */
90000d54:	4b0b      	ldr	r3, [pc, #44]	; (90000d84 <__NVIC_SetPriorityGrouping+0x40>)
90000d56:	68db      	ldr	r3, [r3, #12]
90000d58:	60bb      	str	r3, [r7, #8]
  reg_value &= ~((uint32_t)(SCB_AIRCR_VECTKEY_Msk | SCB_AIRCR_PRIGROUP_Msk)); /* clear bits to change               */
90000d5a:	68ba      	ldr	r2, [r7, #8]
90000d5c:	f64f 03ff 	movw	r3, #63743	; 0xf8ff
90000d60:	4013      	ands	r3, r2
90000d62:	60bb      	str	r3, [r7, #8]
                (PriorityGroupTmp << SCB_AIRCR_PRIGROUP_Pos)  );              /* Insert write key and priority group */
90000d64:	68fb      	ldr	r3, [r7, #12]
90000d66:	021a      	lsls	r2, r3, #8
                ((uint32_t)0x5FAUL << SCB_AIRCR_VECTKEY_Pos) |
90000d68:	68bb      	ldr	r3, [r7, #8]
90000d6a:	431a      	orrs	r2, r3
  reg_value  =  (reg_value                                   |
90000d6c:	4b06      	ldr	r3, [pc, #24]	; (90000d88 <__NVIC_SetPriorityGrouping+0x44>)
90000d6e:	4313      	orrs	r3, r2
90000d70:	60bb      	str	r3, [r7, #8]
  SCB->AIRCR =  reg_value;
90000d72:	4a04      	ldr	r2, [pc, #16]	; (90000d84 <__NVIC_SetPriorityGrouping+0x40>)
90000d74:	68bb      	ldr	r3, [r7, #8]
90000d76:	60d3      	str	r3, [r2, #12]
}
90000d78:	bf00      	nop
90000d7a:	3714      	adds	r7, #20
90000d7c:	46bd      	mov	sp, r7
90000d7e:	f85d 7b04 	ldr.w	r7, [sp], #4
90000d82:	4770      	bx	lr
90000d84:	e000ed00 	.word	0xe000ed00
90000d88:	05fa0000 	.word	0x05fa0000

90000d8c <__NVIC_GetPriorityGrouping>:
{
90000d8c:	b480      	push	{r7}
90000d8e:	af00      	add	r7, sp, #0
  return ((uint32_t)((SCB->AIRCR & SCB_AIRCR_PRIGROUP_Msk) >> SCB_AIRCR_PRIGROUP_Pos));
90000d90:	4b04      	ldr	r3, [pc, #16]	; (90000da4 <__NVIC_GetPriorityGrouping+0x18>)
90000d92:	68db      	ldr	r3, [r3, #12]
90000d94:	0a1b      	lsrs	r3, r3, #8
90000d96:	f003 0307 	and.w	r3, r3, #7
}
90000d9a:	4618      	mov	r0, r3
90000d9c:	46bd      	mov	sp, r7
90000d9e:	f85d 7b04 	ldr.w	r7, [sp], #4
90000da2:	4770      	bx	lr
90000da4:	e000ed00 	.word	0xe000ed00

90000da8 <__NVIC_SetPriority>:
{
90000da8:	b480      	push	{r7}
90000daa:	b083      	sub	sp, #12
90000dac:	af00      	add	r7, sp, #0
90000dae:	4603      	mov	r3, r0
90000db0:	6039      	str	r1, [r7, #0]
90000db2:	80fb      	strh	r3, [r7, #6]
  if ((int32_t)(IRQn) >= 0)
90000db4:	f9b7 3006 	ldrsh.w	r3, [r7, #6]
90000db8:	2b00      	cmp	r3, #0
90000dba:	db0a      	blt.n	90000dd2 <__NVIC_SetPriority+0x2a>
    NVIC->IP[((uint32_t)IRQn)]                = (uint8_t)((priority << (8U - __NVIC_PRIO_BITS)) & (uint32_t)0xFFUL);
90000dbc:	683b      	ldr	r3, [r7, #0]
90000dbe:	b2da      	uxtb	r2, r3
90000dc0:	490c      	ldr	r1, [pc, #48]	; (90000df4 <__NVIC_SetPriority+0x4c>)
90000dc2:	f9b7 3006 	ldrsh.w	r3, [r7, #6]
90000dc6:	0112      	lsls	r2, r2, #4
90000dc8:	b2d2      	uxtb	r2, r2
90000dca:	440b      	add	r3, r1
90000dcc:	f883 2300 	strb.w	r2, [r3, #768]	; 0x300
}
90000dd0:	e00a      	b.n	90000de8 <__NVIC_SetPriority+0x40>
    SCB->SHPR[(((uint32_t)IRQn) & 0xFUL)-4UL] = (uint8_t)((priority << (8U - __NVIC_PRIO_BITS)) & (uint32_t)0xFFUL);
90000dd2:	683b      	ldr	r3, [r7, #0]
90000dd4:	b2da      	uxtb	r2, r3
90000dd6:	4908      	ldr	r1, [pc, #32]	; (90000df8 <__NVIC_SetPriority+0x50>)
90000dd8:	88fb      	ldrh	r3, [r7, #6]
90000dda:	f003 030f 	and.w	r3, r3, #15
90000dde:	3b04      	subs	r3, #4
90000de0:	0112      	lsls	r2, r2, #4
90000de2:	b2d2      	uxtb	r2, r2
90000de4:	440b      	add	r3, r1
90000de6:	761a      	strb	r2, [r3, #24]
}
90000de8:	bf00      	nop
90000dea:	370c      	adds	r7, #12
90000dec:	46bd      	mov	sp, r7
90000dee:	f85d 7b04 	ldr.w	r7, [sp], #4
90000df2:	4770      	bx	lr
90000df4:	e000e100 	.word	0xe000e100
90000df8:	e000ed00 	.word	0xe000ed00

90000dfc <NVIC_EncodePriority>:
{
90000dfc:	b480      	push	{r7}
90000dfe:	b089      	sub	sp, #36	; 0x24
90000e00:	af00      	add	r7, sp, #0
90000e02:	60f8      	str	r0, [r7, #12]
90000e04:	60b9      	str	r1, [r7, #8]
90000e06:	607a      	str	r2, [r7, #4]
  uint32_t PriorityGroupTmp = (PriorityGroup & (uint32_t)0x07UL);   /* only values 0..7 are used          */
90000e08:	68fb      	ldr	r3, [r7, #12]
90000e0a:	f003 0307 	and.w	r3, r3, #7
90000e0e:	61fb      	str	r3, [r7, #28]
  PreemptPriorityBits = ((7UL - PriorityGroupTmp) > (uint32_t)(__NVIC_PRIO_BITS)) ? (uint32_t)(__NVIC_PRIO_BITS) : (uint32_t)(7UL - PriorityGroupTmp);
90000e10:	69fb      	ldr	r3, [r7, #28]
90000e12:	f1c3 0307 	rsb	r3, r3, #7
90000e16:	2b04      	cmp	r3, #4
90000e18:	bf28      	it	cs
90000e1a:	2304      	movcs	r3, #4
90000e1c:	61bb      	str	r3, [r7, #24]
  SubPriorityBits     = ((PriorityGroupTmp + (uint32_t)(__NVIC_PRIO_BITS)) < (uint32_t)7UL) ? (uint32_t)0UL : (uint32_t)((PriorityGroupTmp - 7UL) + (uint32_t)(__NVIC_PRIO_BITS));
90000e1e:	69fb      	ldr	r3, [r7, #28]
90000e20:	3304      	adds	r3, #4
90000e22:	2b06      	cmp	r3, #6
90000e24:	d902      	bls.n	90000e2c <NVIC_EncodePriority+0x30>
90000e26:	69fb      	ldr	r3, [r7, #28]
90000e28:	3b03      	subs	r3, #3
90000e2a:	e000      	b.n	90000e2e <NVIC_EncodePriority+0x32>
90000e2c:	2300      	movs	r3, #0
90000e2e:	617b      	str	r3, [r7, #20]
           ((PreemptPriority & (uint32_t)((1UL << (PreemptPriorityBits)) - 1UL)) << SubPriorityBits) |
90000e30:	f04f 32ff 	mov.w	r2, #4294967295
90000e34:	69bb      	ldr	r3, [r7, #24]
90000e36:	fa02 f303 	lsl.w	r3, r2, r3
90000e3a:	43da      	mvns	r2, r3
90000e3c:	68bb      	ldr	r3, [r7, #8]
90000e3e:	401a      	ands	r2, r3
90000e40:	697b      	ldr	r3, [r7, #20]
90000e42:	409a      	lsls	r2, r3
           ((SubPriority     & (uint32_t)((1UL << (SubPriorityBits    )) - 1UL)))
90000e44:	f04f 31ff 	mov.w	r1, #4294967295
90000e48:	697b      	ldr	r3, [r7, #20]
90000e4a:	fa01 f303 	lsl.w	r3, r1, r3
90000e4e:	43d9      	mvns	r1, r3
90000e50:	687b      	ldr	r3, [r7, #4]
90000e52:	400b      	ands	r3, r1
           ((PreemptPriority & (uint32_t)((1UL << (PreemptPriorityBits)) - 1UL)) << SubPriorityBits) |
90000e54:	4313      	orrs	r3, r2
}
90000e56:	4618      	mov	r0, r3
90000e58:	3724      	adds	r7, #36	; 0x24
90000e5a:	46bd      	mov	sp, r7
90000e5c:	f85d 7b04 	ldr.w	r7, [sp], #4
90000e60:	4770      	bx	lr
	...

90000e64 <SysTick_Config>:
  \note    When the variable <b>__Vendor_SysTickConfig</b> is set to 1, then the
           function <b>SysTick_Config</b> is not included. In this case, the file <b><i>device</i>.h</b>
           must contain a vendor-specific implementation of this function.
 */
__STATIC_INLINE uint32_t SysTick_Config(uint32_t ticks)
{
90000e64:	b580      	push	{r7, lr}
90000e66:	b082      	sub	sp, #8
90000e68:	af00      	add	r7, sp, #0
90000e6a:	6078      	str	r0, [r7, #4]
  if ((ticks - 1UL) > SysTick_LOAD_RELOAD_Msk)
90000e6c:	687b      	ldr	r3, [r7, #4]
90000e6e:	3b01      	subs	r3, #1
90000e70:	f1b3 7f80 	cmp.w	r3, #16777216	; 0x1000000
90000e74:	d301      	bcc.n	90000e7a <SysTick_Config+0x16>
  {
    return (1UL);                                                   /* Reload value impossible */
90000e76:	2301      	movs	r3, #1
90000e78:	e00f      	b.n	90000e9a <SysTick_Config+0x36>
  }

  SysTick->LOAD  = (uint32_t)(ticks - 1UL);                         /* set reload register */
90000e7a:	4a0a      	ldr	r2, [pc, #40]	; (90000ea4 <SysTick_Config+0x40>)
90000e7c:	687b      	ldr	r3, [r7, #4]
90000e7e:	3b01      	subs	r3, #1
90000e80:	6053      	str	r3, [r2, #4]
  NVIC_SetPriority (SysTick_IRQn, (1UL << __NVIC_PRIO_BITS) - 1UL); /* set Priority for Systick Interrupt */
90000e82:	210f      	movs	r1, #15
90000e84:	f04f 30ff 	mov.w	r0, #4294967295
90000e88:	f7ff ff8e 	bl	90000da8 <__NVIC_SetPriority>
  SysTick->VAL   = 0UL;                                             /* Load the SysTick Counter Value */
90000e8c:	4b05      	ldr	r3, [pc, #20]	; (90000ea4 <SysTick_Config+0x40>)
90000e8e:	2200      	movs	r2, #0
90000e90:	609a      	str	r2, [r3, #8]
  SysTick->CTRL  = SysTick_CTRL_CLKSOURCE_Msk |
90000e92:	4b04      	ldr	r3, [pc, #16]	; (90000ea4 <SysTick_Config+0x40>)
90000e94:	2207      	movs	r2, #7
90000e96:	601a      	str	r2, [r3, #0]
                   SysTick_CTRL_TICKINT_Msk   |
                   SysTick_CTRL_ENABLE_Msk;                         /* Enable SysTick IRQ and SysTick Timer */
  return (0UL);                                                     /* Function successful */
90000e98:	2300      	movs	r3, #0
}
90000e9a:	4618      	mov	r0, r3
90000e9c:	3708      	adds	r7, #8
90000e9e:	46bd      	mov	sp, r7
90000ea0:	bd80      	pop	{r7, pc}
90000ea2:	bf00      	nop
90000ea4:	e000e010 	.word	0xe000e010

90000ea8 <HAL_NVIC_SetPriorityGrouping>:
  * @note   When the NVIC_PriorityGroup_0 is selected, IRQ preemption is no more possible.
  *         The pending IRQ priority will be managed only by the subpriority.
  * @retval None
  */
void HAL_NVIC_SetPriorityGrouping(uint32_t PriorityGroup)
{
90000ea8:	b580      	push	{r7, lr}
90000eaa:	b082      	sub	sp, #8
90000eac:	af00      	add	r7, sp, #0
90000eae:	6078      	str	r0, [r7, #4]
  /* Check the parameters */
  assert_param(IS_NVIC_PRIORITY_GROUP(PriorityGroup));
90000eb0:	687b      	ldr	r3, [r7, #4]
90000eb2:	2b07      	cmp	r3, #7
90000eb4:	d00f      	beq.n	90000ed6 <HAL_NVIC_SetPriorityGrouping+0x2e>
90000eb6:	687b      	ldr	r3, [r7, #4]
90000eb8:	2b06      	cmp	r3, #6
90000eba:	d00c      	beq.n	90000ed6 <HAL_NVIC_SetPriorityGrouping+0x2e>
90000ebc:	687b      	ldr	r3, [r7, #4]
90000ebe:	2b05      	cmp	r3, #5
90000ec0:	d009      	beq.n	90000ed6 <HAL_NVIC_SetPriorityGrouping+0x2e>
90000ec2:	687b      	ldr	r3, [r7, #4]
90000ec4:	2b04      	cmp	r3, #4
90000ec6:	d006      	beq.n	90000ed6 <HAL_NVIC_SetPriorityGrouping+0x2e>
90000ec8:	687b      	ldr	r3, [r7, #4]
90000eca:	2b03      	cmp	r3, #3
90000ecc:	d003      	beq.n	90000ed6 <HAL_NVIC_SetPriorityGrouping+0x2e>
90000ece:	2191      	movs	r1, #145	; 0x91
90000ed0:	4804      	ldr	r0, [pc, #16]	; (90000ee4 <HAL_NVIC_SetPriorityGrouping+0x3c>)
90000ed2:	f7ff fce6 	bl	900008a2 <assert_failed>

  /* Set the PRIGROUP[10:8] bits according to the PriorityGroup parameter value */
  NVIC_SetPriorityGrouping(PriorityGroup);
90000ed6:	6878      	ldr	r0, [r7, #4]
90000ed8:	f7ff ff34 	bl	90000d44 <__NVIC_SetPriorityGrouping>
}
90000edc:	bf00      	nop
90000ede:	3708      	adds	r7, #8
90000ee0:	46bd      	mov	sp, r7
90000ee2:	bd80      	pop	{r7, pc}
90000ee4:	9000650c 	.word	0x9000650c

90000ee8 <HAL_NVIC_SetPriority>:
  *         This parameter can be a value between 0 and 15
  *         A lower priority value indicates a higher priority.
  * @retval None
  */
void HAL_NVIC_SetPriority(IRQn_Type IRQn, uint32_t PreemptPriority, uint32_t SubPriority)
{
90000ee8:	b580      	push	{r7, lr}
90000eea:	b086      	sub	sp, #24
90000eec:	af00      	add	r7, sp, #0
90000eee:	4603      	mov	r3, r0
90000ef0:	60b9      	str	r1, [r7, #8]
90000ef2:	607a      	str	r2, [r7, #4]
90000ef4:	81fb      	strh	r3, [r7, #14]
  uint32_t prioritygroup;

  /* Check the parameters */
  assert_param(IS_NVIC_SUB_PRIORITY(SubPriority));
90000ef6:	687b      	ldr	r3, [r7, #4]
90000ef8:	2b0f      	cmp	r3, #15
90000efa:	d903      	bls.n	90000f04 <HAL_NVIC_SetPriority+0x1c>
90000efc:	21a9      	movs	r1, #169	; 0xa9
90000efe:	480e      	ldr	r0, [pc, #56]	; (90000f38 <HAL_NVIC_SetPriority+0x50>)
90000f00:	f7ff fccf 	bl	900008a2 <assert_failed>
  assert_param(IS_NVIC_PREEMPTION_PRIORITY(PreemptPriority));
90000f04:	68bb      	ldr	r3, [r7, #8]
90000f06:	2b0f      	cmp	r3, #15
90000f08:	d903      	bls.n	90000f12 <HAL_NVIC_SetPriority+0x2a>
90000f0a:	21aa      	movs	r1, #170	; 0xaa
90000f0c:	480a      	ldr	r0, [pc, #40]	; (90000f38 <HAL_NVIC_SetPriority+0x50>)
90000f0e:	f7ff fcc8 	bl	900008a2 <assert_failed>

  prioritygroup = NVIC_GetPriorityGrouping();
90000f12:	f7ff ff3b 	bl	90000d8c <__NVIC_GetPriorityGrouping>
90000f16:	6178      	str	r0, [r7, #20]

  NVIC_SetPriority(IRQn, NVIC_EncodePriority(prioritygroup, PreemptPriority, SubPriority));
90000f18:	687a      	ldr	r2, [r7, #4]
90000f1a:	68b9      	ldr	r1, [r7, #8]
90000f1c:	6978      	ldr	r0, [r7, #20]
90000f1e:	f7ff ff6d 	bl	90000dfc <NVIC_EncodePriority>
90000f22:	4602      	mov	r2, r0
90000f24:	f9b7 300e 	ldrsh.w	r3, [r7, #14]
90000f28:	4611      	mov	r1, r2
90000f2a:	4618      	mov	r0, r3
90000f2c:	f7ff ff3c 	bl	90000da8 <__NVIC_SetPriority>
}
90000f30:	bf00      	nop
90000f32:	3718      	adds	r7, #24
90000f34:	46bd      	mov	sp, r7
90000f36:	bd80      	pop	{r7, pc}
90000f38:	9000650c 	.word	0x9000650c

90000f3c <HAL_SYSTICK_Config>:
  * @param  TicksNumb Specifies the ticks Number of ticks between two interrupts.
  * @retval status   - 0  Function succeeded.
  *                  - 1  Function failed.
  */
uint32_t HAL_SYSTICK_Config(uint32_t TicksNumb)
{
90000f3c:	b580      	push	{r7, lr}
90000f3e:	b082      	sub	sp, #8
90000f40:	af00      	add	r7, sp, #0
90000f42:	6078      	str	r0, [r7, #4]
   return SysTick_Config(TicksNumb);
90000f44:	6878      	ldr	r0, [r7, #4]
90000f46:	f7ff ff8d 	bl	90000e64 <SysTick_Config>
90000f4a:	4603      	mov	r3, r0
}
90000f4c:	4618      	mov	r0, r3
90000f4e:	3708      	adds	r7, #8
90000f50:	46bd      	mov	sp, r7
90000f52:	bd80      	pop	{r7, pc}

90000f54 <HAL_MPU_Disable>:
/**
  * @brief  Disables the MPU
  * @retval None
  */
void HAL_MPU_Disable(void)
{
90000f54:	b480      	push	{r7}
90000f56:	af00      	add	r7, sp, #0
  \details Ensures the apparent order of the explicit memory operations before
           and after the instruction, without ensuring their completion.
 */
__STATIC_FORCEINLINE void __DMB(void)
{
  __ASM volatile ("dmb 0xF":::"memory");
90000f58:	f3bf 8f5f 	dmb	sy
}
90000f5c:	bf00      	nop
  /* Make sure outstanding transfers are done */
  __DMB();

  /* Disable fault exceptions */
  SCB->SHCSR &= ~SCB_SHCSR_MEMFAULTENA_Msk;
90000f5e:	4b07      	ldr	r3, [pc, #28]	; (90000f7c <HAL_MPU_Disable+0x28>)
90000f60:	6a5b      	ldr	r3, [r3, #36]	; 0x24
90000f62:	4a06      	ldr	r2, [pc, #24]	; (90000f7c <HAL_MPU_Disable+0x28>)
90000f64:	f423 3380 	bic.w	r3, r3, #65536	; 0x10000
90000f68:	6253      	str	r3, [r2, #36]	; 0x24

  /* Disable the MPU and clear the control register*/
  MPU->CTRL = 0;
90000f6a:	4b05      	ldr	r3, [pc, #20]	; (90000f80 <HAL_MPU_Disable+0x2c>)
90000f6c:	2200      	movs	r2, #0
90000f6e:	605a      	str	r2, [r3, #4]
}
90000f70:	bf00      	nop
90000f72:	46bd      	mov	sp, r7
90000f74:	f85d 7b04 	ldr.w	r7, [sp], #4
90000f78:	4770      	bx	lr
90000f7a:	bf00      	nop
90000f7c:	e000ed00 	.word	0xe000ed00
90000f80:	e000ed90 	.word	0xe000ed90

90000f84 <HAL_MPU_Enable>:
  *            @arg MPU_PRIVILEGED_DEFAULT
  *            @arg MPU_HFNMI_PRIVDEF
  * @retval None
  */
void HAL_MPU_Enable(uint32_t MPU_Control)
{
90000f84:	b480      	push	{r7}
90000f86:	b083      	sub	sp, #12
90000f88:	af00      	add	r7, sp, #0
90000f8a:	6078      	str	r0, [r7, #4]
  /* Enable the MPU */
  MPU->CTRL = MPU_Control | MPU_CTRL_ENABLE_Msk;
90000f8c:	4a0b      	ldr	r2, [pc, #44]	; (90000fbc <HAL_MPU_Enable+0x38>)
90000f8e:	687b      	ldr	r3, [r7, #4]
90000f90:	f043 0301 	orr.w	r3, r3, #1
90000f94:	6053      	str	r3, [r2, #4]

  /* Enable fault exceptions */
  SCB->SHCSR |= SCB_SHCSR_MEMFAULTENA_Msk;
90000f96:	4b0a      	ldr	r3, [pc, #40]	; (90000fc0 <HAL_MPU_Enable+0x3c>)
90000f98:	6a5b      	ldr	r3, [r3, #36]	; 0x24
90000f9a:	4a09      	ldr	r2, [pc, #36]	; (90000fc0 <HAL_MPU_Enable+0x3c>)
90000f9c:	f443 3380 	orr.w	r3, r3, #65536	; 0x10000
90000fa0:	6253      	str	r3, [r2, #36]	; 0x24
  __ASM volatile ("dsb 0xF":::"memory");
90000fa2:	f3bf 8f4f 	dsb	sy
}
90000fa6:	bf00      	nop
  __ASM volatile ("isb 0xF":::"memory");
90000fa8:	f3bf 8f6f 	isb	sy
}
90000fac:	bf00      	nop

  /* Ensure MPU setting take effects */
  __DSB();
  __ISB();
}
90000fae:	bf00      	nop
90000fb0:	370c      	adds	r7, #12
90000fb2:	46bd      	mov	sp, r7
90000fb4:	f85d 7b04 	ldr.w	r7, [sp], #4
90000fb8:	4770      	bx	lr
90000fba:	bf00      	nop
90000fbc:	e000ed90 	.word	0xe000ed90
90000fc0:	e000ed00 	.word	0xe000ed00

90000fc4 <HAL_MPU_ConfigRegion>:
  * @param  MPU_Init Pointer to a MPU_Region_InitTypeDef structure that contains
  *                  the initialization and configuration information.
  * @retval None
  */
void HAL_MPU_ConfigRegion(MPU_Region_InitTypeDef *MPU_Init)
{
90000fc4:	b580      	push	{r7, lr}
90000fc6:	b082      	sub	sp, #8
90000fc8:	af00      	add	r7, sp, #0
90000fca:	6078      	str	r0, [r7, #4]
  /* Check the parameters */
  assert_param(IS_MPU_REGION_NUMBER(MPU_Init->Number));
90000fcc:	687b      	ldr	r3, [r7, #4]
90000fce:	785b      	ldrb	r3, [r3, #1]
90000fd0:	2b00      	cmp	r3, #0
90000fd2:	d040      	beq.n	90001056 <HAL_MPU_ConfigRegion+0x92>
90000fd4:	687b      	ldr	r3, [r7, #4]
90000fd6:	785b      	ldrb	r3, [r3, #1]
90000fd8:	2b01      	cmp	r3, #1
90000fda:	d03c      	beq.n	90001056 <HAL_MPU_ConfigRegion+0x92>
90000fdc:	687b      	ldr	r3, [r7, #4]
90000fde:	785b      	ldrb	r3, [r3, #1]
90000fe0:	2b02      	cmp	r3, #2
90000fe2:	d038      	beq.n	90001056 <HAL_MPU_ConfigRegion+0x92>
90000fe4:	687b      	ldr	r3, [r7, #4]
90000fe6:	785b      	ldrb	r3, [r3, #1]
90000fe8:	2b03      	cmp	r3, #3
90000fea:	d034      	beq.n	90001056 <HAL_MPU_ConfigRegion+0x92>
90000fec:	687b      	ldr	r3, [r7, #4]
90000fee:	785b      	ldrb	r3, [r3, #1]
90000ff0:	2b04      	cmp	r3, #4
90000ff2:	d030      	beq.n	90001056 <HAL_MPU_ConfigRegion+0x92>
90000ff4:	687b      	ldr	r3, [r7, #4]
90000ff6:	785b      	ldrb	r3, [r3, #1]
90000ff8:	2b05      	cmp	r3, #5
90000ffa:	d02c      	beq.n	90001056 <HAL_MPU_ConfigRegion+0x92>
90000ffc:	687b      	ldr	r3, [r7, #4]
90000ffe:	785b      	ldrb	r3, [r3, #1]
90001000:	2b06      	cmp	r3, #6
90001002:	d028      	beq.n	90001056 <HAL_MPU_ConfigRegion+0x92>
90001004:	687b      	ldr	r3, [r7, #4]
90001006:	785b      	ldrb	r3, [r3, #1]
90001008:	2b07      	cmp	r3, #7
9000100a:	d024      	beq.n	90001056 <HAL_MPU_ConfigRegion+0x92>
9000100c:	687b      	ldr	r3, [r7, #4]
9000100e:	785b      	ldrb	r3, [r3, #1]
90001010:	2b08      	cmp	r3, #8
90001012:	d020      	beq.n	90001056 <HAL_MPU_ConfigRegion+0x92>
90001014:	687b      	ldr	r3, [r7, #4]
90001016:	785b      	ldrb	r3, [r3, #1]
90001018:	2b09      	cmp	r3, #9
9000101a:	d01c      	beq.n	90001056 <HAL_MPU_ConfigRegion+0x92>
9000101c:	687b      	ldr	r3, [r7, #4]
9000101e:	785b      	ldrb	r3, [r3, #1]
90001020:	2b0a      	cmp	r3, #10
90001022:	d018      	beq.n	90001056 <HAL_MPU_ConfigRegion+0x92>
90001024:	687b      	ldr	r3, [r7, #4]
90001026:	785b      	ldrb	r3, [r3, #1]
90001028:	2b0b      	cmp	r3, #11
9000102a:	d014      	beq.n	90001056 <HAL_MPU_ConfigRegion+0x92>
9000102c:	687b      	ldr	r3, [r7, #4]
9000102e:	785b      	ldrb	r3, [r3, #1]
90001030:	2b0c      	cmp	r3, #12
90001032:	d010      	beq.n	90001056 <HAL_MPU_ConfigRegion+0x92>
90001034:	687b      	ldr	r3, [r7, #4]
90001036:	785b      	ldrb	r3, [r3, #1]
90001038:	2b0d      	cmp	r3, #13
9000103a:	d00c      	beq.n	90001056 <HAL_MPU_ConfigRegion+0x92>
9000103c:	687b      	ldr	r3, [r7, #4]
9000103e:	785b      	ldrb	r3, [r3, #1]
90001040:	2b0e      	cmp	r3, #14
90001042:	d008      	beq.n	90001056 <HAL_MPU_ConfigRegion+0x92>
90001044:	687b      	ldr	r3, [r7, #4]
90001046:	785b      	ldrb	r3, [r3, #1]
90001048:	2b0f      	cmp	r3, #15
9000104a:	d004      	beq.n	90001056 <HAL_MPU_ConfigRegion+0x92>
9000104c:	f44f 7196 	mov.w	r1, #300	; 0x12c
90001050:	488c      	ldr	r0, [pc, #560]	; (90001284 <HAL_MPU_ConfigRegion+0x2c0>)
90001052:	f7ff fc26 	bl	900008a2 <assert_failed>
  assert_param(IS_MPU_REGION_ENABLE(MPU_Init->Enable));
90001056:	687b      	ldr	r3, [r7, #4]
90001058:	781b      	ldrb	r3, [r3, #0]
9000105a:	2b01      	cmp	r3, #1
9000105c:	d008      	beq.n	90001070 <HAL_MPU_ConfigRegion+0xac>
9000105e:	687b      	ldr	r3, [r7, #4]
90001060:	781b      	ldrb	r3, [r3, #0]
90001062:	2b00      	cmp	r3, #0
90001064:	d004      	beq.n	90001070 <HAL_MPU_ConfigRegion+0xac>
90001066:	f240 112d 	movw	r1, #301	; 0x12d
9000106a:	4886      	ldr	r0, [pc, #536]	; (90001284 <HAL_MPU_ConfigRegion+0x2c0>)
9000106c:	f7ff fc19 	bl	900008a2 <assert_failed>

  /* Set the Region number */
  MPU->RNR = MPU_Init->Number;
90001070:	687b      	ldr	r3, [r7, #4]
90001072:	785a      	ldrb	r2, [r3, #1]
90001074:	4b84      	ldr	r3, [pc, #528]	; (90001288 <HAL_MPU_ConfigRegion+0x2c4>)
90001076:	609a      	str	r2, [r3, #8]

  if ((MPU_Init->Enable) != 0UL)
90001078:	687b      	ldr	r3, [r7, #4]
9000107a:	781b      	ldrb	r3, [r3, #0]
9000107c:	2b00      	cmp	r3, #0
9000107e:	f000 8110 	beq.w	900012a2 <HAL_MPU_ConfigRegion+0x2de>
  {
    /* Check the parameters */
    assert_param(IS_MPU_INSTRUCTION_ACCESS(MPU_Init->DisableExec));
90001082:	687b      	ldr	r3, [r7, #4]
90001084:	7b1b      	ldrb	r3, [r3, #12]
90001086:	2b00      	cmp	r3, #0
90001088:	d008      	beq.n	9000109c <HAL_MPU_ConfigRegion+0xd8>
9000108a:	687b      	ldr	r3, [r7, #4]
9000108c:	7b1b      	ldrb	r3, [r3, #12]
9000108e:	2b01      	cmp	r3, #1
90001090:	d004      	beq.n	9000109c <HAL_MPU_ConfigRegion+0xd8>
90001092:	f240 1135 	movw	r1, #309	; 0x135
90001096:	487b      	ldr	r0, [pc, #492]	; (90001284 <HAL_MPU_ConfigRegion+0x2c0>)
90001098:	f7ff fc03 	bl	900008a2 <assert_failed>
    assert_param(IS_MPU_REGION_PERMISSION_ATTRIBUTE(MPU_Init->AccessPermission));
9000109c:	687b      	ldr	r3, [r7, #4]
9000109e:	7adb      	ldrb	r3, [r3, #11]
900010a0:	2b00      	cmp	r3, #0
900010a2:	d018      	beq.n	900010d6 <HAL_MPU_ConfigRegion+0x112>
900010a4:	687b      	ldr	r3, [r7, #4]
900010a6:	7adb      	ldrb	r3, [r3, #11]
900010a8:	2b01      	cmp	r3, #1
900010aa:	d014      	beq.n	900010d6 <HAL_MPU_ConfigRegion+0x112>
900010ac:	687b      	ldr	r3, [r7, #4]
900010ae:	7adb      	ldrb	r3, [r3, #11]
900010b0:	2b02      	cmp	r3, #2
900010b2:	d010      	beq.n	900010d6 <HAL_MPU_ConfigRegion+0x112>
900010b4:	687b      	ldr	r3, [r7, #4]
900010b6:	7adb      	ldrb	r3, [r3, #11]
900010b8:	2b03      	cmp	r3, #3
900010ba:	d00c      	beq.n	900010d6 <HAL_MPU_ConfigRegion+0x112>
900010bc:	687b      	ldr	r3, [r7, #4]
900010be:	7adb      	ldrb	r3, [r3, #11]
900010c0:	2b05      	cmp	r3, #5
900010c2:	d008      	beq.n	900010d6 <HAL_MPU_ConfigRegion+0x112>
900010c4:	687b      	ldr	r3, [r7, #4]
900010c6:	7adb      	ldrb	r3, [r3, #11]
900010c8:	2b06      	cmp	r3, #6
900010ca:	d004      	beq.n	900010d6 <HAL_MPU_ConfigRegion+0x112>
900010cc:	f44f 719b 	mov.w	r1, #310	; 0x136
900010d0:	486c      	ldr	r0, [pc, #432]	; (90001284 <HAL_MPU_ConfigRegion+0x2c0>)
900010d2:	f7ff fbe6 	bl	900008a2 <assert_failed>
    assert_param(IS_MPU_TEX_LEVEL(MPU_Init->TypeExtField));
900010d6:	687b      	ldr	r3, [r7, #4]
900010d8:	7a9b      	ldrb	r3, [r3, #10]
900010da:	2b00      	cmp	r3, #0
900010dc:	d00c      	beq.n	900010f8 <HAL_MPU_ConfigRegion+0x134>
900010de:	687b      	ldr	r3, [r7, #4]
900010e0:	7a9b      	ldrb	r3, [r3, #10]
900010e2:	2b01      	cmp	r3, #1
900010e4:	d008      	beq.n	900010f8 <HAL_MPU_ConfigRegion+0x134>
900010e6:	687b      	ldr	r3, [r7, #4]
900010e8:	7a9b      	ldrb	r3, [r3, #10]
900010ea:	2b02      	cmp	r3, #2
900010ec:	d004      	beq.n	900010f8 <HAL_MPU_ConfigRegion+0x134>
900010ee:	f240 1137 	movw	r1, #311	; 0x137
900010f2:	4864      	ldr	r0, [pc, #400]	; (90001284 <HAL_MPU_ConfigRegion+0x2c0>)
900010f4:	f7ff fbd5 	bl	900008a2 <assert_failed>
    assert_param(IS_MPU_ACCESS_SHAREABLE(MPU_Init->IsShareable));
900010f8:	687b      	ldr	r3, [r7, #4]
900010fa:	7b5b      	ldrb	r3, [r3, #13]
900010fc:	2b01      	cmp	r3, #1
900010fe:	d008      	beq.n	90001112 <HAL_MPU_ConfigRegion+0x14e>
90001100:	687b      	ldr	r3, [r7, #4]
90001102:	7b5b      	ldrb	r3, [r3, #13]
90001104:	2b00      	cmp	r3, #0
90001106:	d004      	beq.n	90001112 <HAL_MPU_ConfigRegion+0x14e>
90001108:	f44f 719c 	mov.w	r1, #312	; 0x138
9000110c:	485d      	ldr	r0, [pc, #372]	; (90001284 <HAL_MPU_ConfigRegion+0x2c0>)
9000110e:	f7ff fbc8 	bl	900008a2 <assert_failed>
    assert_param(IS_MPU_ACCESS_CACHEABLE(MPU_Init->IsCacheable));
90001112:	687b      	ldr	r3, [r7, #4]
90001114:	7b9b      	ldrb	r3, [r3, #14]
90001116:	2b01      	cmp	r3, #1
90001118:	d008      	beq.n	9000112c <HAL_MPU_ConfigRegion+0x168>
9000111a:	687b      	ldr	r3, [r7, #4]
9000111c:	7b9b      	ldrb	r3, [r3, #14]
9000111e:	2b00      	cmp	r3, #0
90001120:	d004      	beq.n	9000112c <HAL_MPU_ConfigRegion+0x168>
90001122:	f240 1139 	movw	r1, #313	; 0x139
90001126:	4857      	ldr	r0, [pc, #348]	; (90001284 <HAL_MPU_ConfigRegion+0x2c0>)
90001128:	f7ff fbbb 	bl	900008a2 <assert_failed>
    assert_param(IS_MPU_ACCESS_BUFFERABLE(MPU_Init->IsBufferable));
9000112c:	687b      	ldr	r3, [r7, #4]
9000112e:	7bdb      	ldrb	r3, [r3, #15]
90001130:	2b01      	cmp	r3, #1
90001132:	d008      	beq.n	90001146 <HAL_MPU_ConfigRegion+0x182>
90001134:	687b      	ldr	r3, [r7, #4]
90001136:	7bdb      	ldrb	r3, [r3, #15]
90001138:	2b00      	cmp	r3, #0
9000113a:	d004      	beq.n	90001146 <HAL_MPU_ConfigRegion+0x182>
9000113c:	f44f 719d 	mov.w	r1, #314	; 0x13a
90001140:	4850      	ldr	r0, [pc, #320]	; (90001284 <HAL_MPU_ConfigRegion+0x2c0>)
90001142:	f7ff fbae 	bl	900008a2 <assert_failed>
    assert_param(IS_MPU_SUB_REGION_DISABLE(MPU_Init->SubRegionDisable));
90001146:	687b      	ldr	r3, [r7, #4]
90001148:	7a5b      	ldrb	r3, [r3, #9]
9000114a:	2bff      	cmp	r3, #255	; 0xff
9000114c:	d104      	bne.n	90001158 <HAL_MPU_ConfigRegion+0x194>
9000114e:	f240 113b 	movw	r1, #315	; 0x13b
90001152:	484c      	ldr	r0, [pc, #304]	; (90001284 <HAL_MPU_ConfigRegion+0x2c0>)
90001154:	f7ff fba5 	bl	900008a2 <assert_failed>
    assert_param(IS_MPU_REGION_SIZE(MPU_Init->Size));
90001158:	687b      	ldr	r3, [r7, #4]
9000115a:	7a1b      	ldrb	r3, [r3, #8]
9000115c:	2b04      	cmp	r3, #4
9000115e:	d070      	beq.n	90001242 <HAL_MPU_ConfigRegion+0x27e>
90001160:	687b      	ldr	r3, [r7, #4]
90001162:	7a1b      	ldrb	r3, [r3, #8]
90001164:	2b05      	cmp	r3, #5
90001166:	d06c      	beq.n	90001242 <HAL_MPU_ConfigRegion+0x27e>
90001168:	687b      	ldr	r3, [r7, #4]
9000116a:	7a1b      	ldrb	r3, [r3, #8]
9000116c:	2b06      	cmp	r3, #6
9000116e:	d068      	beq.n	90001242 <HAL_MPU_ConfigRegion+0x27e>
90001170:	687b      	ldr	r3, [r7, #4]
90001172:	7a1b      	ldrb	r3, [r3, #8]
90001174:	2b07      	cmp	r3, #7
90001176:	d064      	beq.n	90001242 <HAL_MPU_ConfigRegion+0x27e>
90001178:	687b      	ldr	r3, [r7, #4]
9000117a:	7a1b      	ldrb	r3, [r3, #8]
9000117c:	2b08      	cmp	r3, #8
9000117e:	d060      	beq.n	90001242 <HAL_MPU_ConfigRegion+0x27e>
90001180:	687b      	ldr	r3, [r7, #4]
90001182:	7a1b      	ldrb	r3, [r3, #8]
90001184:	2b09      	cmp	r3, #9
90001186:	d05c      	beq.n	90001242 <HAL_MPU_ConfigRegion+0x27e>
90001188:	687b      	ldr	r3, [r7, #4]
9000118a:	7a1b      	ldrb	r3, [r3, #8]
9000118c:	2b0a      	cmp	r3, #10
9000118e:	d058      	beq.n	90001242 <HAL_MPU_ConfigRegion+0x27e>
90001190:	687b      	ldr	r3, [r7, #4]
90001192:	7a1b      	ldrb	r3, [r3, #8]
90001194:	2b0b      	cmp	r3, #11
90001196:	d054      	beq.n	90001242 <HAL_MPU_ConfigRegion+0x27e>
90001198:	687b      	ldr	r3, [r7, #4]
9000119a:	7a1b      	ldrb	r3, [r3, #8]
9000119c:	2b0c      	cmp	r3, #12
9000119e:	d050      	beq.n	90001242 <HAL_MPU_ConfigRegion+0x27e>
900011a0:	687b      	ldr	r3, [r7, #4]
900011a2:	7a1b      	ldrb	r3, [r3, #8]
900011a4:	2b0d      	cmp	r3, #13
900011a6:	d04c      	beq.n	90001242 <HAL_MPU_ConfigRegion+0x27e>
900011a8:	687b      	ldr	r3, [r7, #4]
900011aa:	7a1b      	ldrb	r3, [r3, #8]
900011ac:	2b0e      	cmp	r3, #14
900011ae:	d048      	beq.n	90001242 <HAL_MPU_ConfigRegion+0x27e>
900011b0:	687b      	ldr	r3, [r7, #4]
900011b2:	7a1b      	ldrb	r3, [r3, #8]
900011b4:	2b0f      	cmp	r3, #15
900011b6:	d044      	beq.n	90001242 <HAL_MPU_ConfigRegion+0x27e>
900011b8:	687b      	ldr	r3, [r7, #4]
900011ba:	7a1b      	ldrb	r3, [r3, #8]
900011bc:	2b10      	cmp	r3, #16
900011be:	d040      	beq.n	90001242 <HAL_MPU_ConfigRegion+0x27e>
900011c0:	687b      	ldr	r3, [r7, #4]
900011c2:	7a1b      	ldrb	r3, [r3, #8]
900011c4:	2b11      	cmp	r3, #17
900011c6:	d03c      	beq.n	90001242 <HAL_MPU_ConfigRegion+0x27e>
900011c8:	687b      	ldr	r3, [r7, #4]
900011ca:	7a1b      	ldrb	r3, [r3, #8]
900011cc:	2b12      	cmp	r3, #18
900011ce:	d038      	beq.n	90001242 <HAL_MPU_ConfigRegion+0x27e>
900011d0:	687b      	ldr	r3, [r7, #4]
900011d2:	7a1b      	ldrb	r3, [r3, #8]
900011d4:	2b13      	cmp	r3, #19
900011d6:	d034      	beq.n	90001242 <HAL_MPU_ConfigRegion+0x27e>
900011d8:	687b      	ldr	r3, [r7, #4]
900011da:	7a1b      	ldrb	r3, [r3, #8]
900011dc:	2b14      	cmp	r3, #20
900011de:	d030      	beq.n	90001242 <HAL_MPU_ConfigRegion+0x27e>
900011e0:	687b      	ldr	r3, [r7, #4]
900011e2:	7a1b      	ldrb	r3, [r3, #8]
900011e4:	2b15      	cmp	r3, #21
900011e6:	d02c      	beq.n	90001242 <HAL_MPU_ConfigRegion+0x27e>
900011e8:	687b      	ldr	r3, [r7, #4]
900011ea:	7a1b      	ldrb	r3, [r3, #8]
900011ec:	2b16      	cmp	r3, #22
900011ee:	d028      	beq.n	90001242 <HAL_MPU_ConfigRegion+0x27e>
900011f0:	687b      	ldr	r3, [r7, #4]
900011f2:	7a1b      	ldrb	r3, [r3, #8]
900011f4:	2b17      	cmp	r3, #23
900011f6:	d024      	beq.n	90001242 <HAL_MPU_ConfigRegion+0x27e>
900011f8:	687b      	ldr	r3, [r7, #4]
900011fa:	7a1b      	ldrb	r3, [r3, #8]
900011fc:	2b18      	cmp	r3, #24
900011fe:	d020      	beq.n	90001242 <HAL_MPU_ConfigRegion+0x27e>
90001200:	687b      	ldr	r3, [r7, #4]
90001202:	7a1b      	ldrb	r3, [r3, #8]
90001204:	2b19      	cmp	r3, #25
90001206:	d01c      	beq.n	90001242 <HAL_MPU_ConfigRegion+0x27e>
90001208:	687b      	ldr	r3, [r7, #4]
9000120a:	7a1b      	ldrb	r3, [r3, #8]
9000120c:	2b1a      	cmp	r3, #26
9000120e:	d018      	beq.n	90001242 <HAL_MPU_ConfigRegion+0x27e>
90001210:	687b      	ldr	r3, [r7, #4]
90001212:	7a1b      	ldrb	r3, [r3, #8]
90001214:	2b1b      	cmp	r3, #27
90001216:	d014      	beq.n	90001242 <HAL_MPU_ConfigRegion+0x27e>
90001218:	687b      	ldr	r3, [r7, #4]
9000121a:	7a1b      	ldrb	r3, [r3, #8]
9000121c:	2b1c      	cmp	r3, #28
9000121e:	d010      	beq.n	90001242 <HAL_MPU_ConfigRegion+0x27e>
90001220:	687b      	ldr	r3, [r7, #4]
90001222:	7a1b      	ldrb	r3, [r3, #8]
90001224:	2b1d      	cmp	r3, #29
90001226:	d00c      	beq.n	90001242 <HAL_MPU_ConfigRegion+0x27e>
90001228:	687b      	ldr	r3, [r7, #4]
9000122a:	7a1b      	ldrb	r3, [r3, #8]
9000122c:	2b1e      	cmp	r3, #30
9000122e:	d008      	beq.n	90001242 <HAL_MPU_ConfigRegion+0x27e>
90001230:	687b      	ldr	r3, [r7, #4]
90001232:	7a1b      	ldrb	r3, [r3, #8]
90001234:	2b1f      	cmp	r3, #31
90001236:	d004      	beq.n	90001242 <HAL_MPU_ConfigRegion+0x27e>
90001238:	f44f 719e 	mov.w	r1, #316	; 0x13c
9000123c:	4811      	ldr	r0, [pc, #68]	; (90001284 <HAL_MPU_ConfigRegion+0x2c0>)
9000123e:	f7ff fb30 	bl	900008a2 <assert_failed>

    MPU->RBAR = MPU_Init->BaseAddress;
90001242:	4a11      	ldr	r2, [pc, #68]	; (90001288 <HAL_MPU_ConfigRegion+0x2c4>)
90001244:	687b      	ldr	r3, [r7, #4]
90001246:	685b      	ldr	r3, [r3, #4]
90001248:	60d3      	str	r3, [r2, #12]
    MPU->RASR = ((uint32_t)MPU_Init->DisableExec             << MPU_RASR_XN_Pos)   |
9000124a:	687b      	ldr	r3, [r7, #4]
9000124c:	7b1b      	ldrb	r3, [r3, #12]
9000124e:	071a      	lsls	r2, r3, #28
                ((uint32_t)MPU_Init->AccessPermission        << MPU_RASR_AP_Pos)   |
90001250:	687b      	ldr	r3, [r7, #4]
90001252:	7adb      	ldrb	r3, [r3, #11]
90001254:	061b      	lsls	r3, r3, #24
    MPU->RASR = ((uint32_t)MPU_Init->DisableExec             << MPU_RASR_XN_Pos)   |
90001256:	431a      	orrs	r2, r3
                ((uint32_t)MPU_Init->TypeExtField            << MPU_RASR_TEX_Pos)  |
90001258:	687b      	ldr	r3, [r7, #4]
9000125a:	7a9b      	ldrb	r3, [r3, #10]
9000125c:	04db      	lsls	r3, r3, #19
                ((uint32_t)MPU_Init->AccessPermission        << MPU_RASR_AP_Pos)   |
9000125e:	431a      	orrs	r2, r3
                ((uint32_t)MPU_Init->IsShareable             << MPU_RASR_S_Pos)    |
90001260:	687b      	ldr	r3, [r7, #4]
90001262:	7b5b      	ldrb	r3, [r3, #13]
90001264:	049b      	lsls	r3, r3, #18
                ((uint32_t)MPU_Init->TypeExtField            << MPU_RASR_TEX_Pos)  |
90001266:	431a      	orrs	r2, r3
                ((uint32_t)MPU_Init->IsCacheable             << MPU_RASR_C_Pos)    |
90001268:	687b      	ldr	r3, [r7, #4]
9000126a:	7b9b      	ldrb	r3, [r3, #14]
9000126c:	045b      	lsls	r3, r3, #17
                ((uint32_t)MPU_Init->IsShareable             << MPU_RASR_S_Pos)    |
9000126e:	431a      	orrs	r2, r3
                ((uint32_t)MPU_Init->IsBufferable            << MPU_RASR_B_Pos)    |
90001270:	687b      	ldr	r3, [r7, #4]
90001272:	7bdb      	ldrb	r3, [r3, #15]
90001274:	041b      	lsls	r3, r3, #16
                ((uint32_t)MPU_Init->IsCacheable             << MPU_RASR_C_Pos)    |
90001276:	431a      	orrs	r2, r3
                ((uint32_t)MPU_Init->SubRegionDisable        << MPU_RASR_SRD_Pos)  |
90001278:	687b      	ldr	r3, [r7, #4]
9000127a:	7a5b      	ldrb	r3, [r3, #9]
9000127c:	021b      	lsls	r3, r3, #8
                ((uint32_t)MPU_Init->IsBufferable            << MPU_RASR_B_Pos)    |
9000127e:	431a      	orrs	r2, r3
90001280:	e004      	b.n	9000128c <HAL_MPU_ConfigRegion+0x2c8>
90001282:	bf00      	nop
90001284:	9000650c 	.word	0x9000650c
90001288:	e000ed90 	.word	0xe000ed90
                ((uint32_t)MPU_Init->Size                    << MPU_RASR_SIZE_Pos) |
9000128c:	687b      	ldr	r3, [r7, #4]
9000128e:	7a1b      	ldrb	r3, [r3, #8]
90001290:	005b      	lsls	r3, r3, #1
                ((uint32_t)MPU_Init->SubRegionDisable        << MPU_RASR_SRD_Pos)  |
90001292:	4313      	orrs	r3, r2
                ((uint32_t)MPU_Init->Enable                  << MPU_RASR_ENABLE_Pos);
90001294:	687a      	ldr	r2, [r7, #4]
90001296:	7812      	ldrb	r2, [r2, #0]
90001298:	4611      	mov	r1, r2
    MPU->RASR = ((uint32_t)MPU_Init->DisableExec             << MPU_RASR_XN_Pos)   |
9000129a:	4a07      	ldr	r2, [pc, #28]	; (900012b8 <HAL_MPU_ConfigRegion+0x2f4>)
                ((uint32_t)MPU_Init->Size                    << MPU_RASR_SIZE_Pos) |
9000129c:	430b      	orrs	r3, r1
    MPU->RASR = ((uint32_t)MPU_Init->DisableExec             << MPU_RASR_XN_Pos)   |
9000129e:	6113      	str	r3, [r2, #16]
  else
  {
    MPU->RBAR = 0x00;
    MPU->RASR = 0x00;
  }
}
900012a0:	e005      	b.n	900012ae <HAL_MPU_ConfigRegion+0x2ea>
    MPU->RBAR = 0x00;
900012a2:	4b05      	ldr	r3, [pc, #20]	; (900012b8 <HAL_MPU_ConfigRegion+0x2f4>)
900012a4:	2200      	movs	r2, #0
900012a6:	60da      	str	r2, [r3, #12]
    MPU->RASR = 0x00;
900012a8:	4b03      	ldr	r3, [pc, #12]	; (900012b8 <HAL_MPU_ConfigRegion+0x2f4>)
900012aa:	2200      	movs	r2, #0
900012ac:	611a      	str	r2, [r3, #16]
}
900012ae:	bf00      	nop
900012b0:	3708      	adds	r7, #8
900012b2:	46bd      	mov	sp, r7
900012b4:	bd80      	pop	{r7, pc}
900012b6:	bf00      	nop
900012b8:	e000ed90 	.word	0xe000ed90

900012bc <HAL_GPIO_Init>:
  * @param  GPIO_Init: pointer to a GPIO_InitTypeDef structure that contains
  *         the configuration information for the specified GPIO peripheral.
  * @retval None
  */
void HAL_GPIO_Init(GPIO_TypeDef  *GPIOx, GPIO_InitTypeDef *GPIO_Init)
{
900012bc:	b580      	push	{r7, lr}
900012be:	b088      	sub	sp, #32
900012c0:	af00      	add	r7, sp, #0
900012c2:	6078      	str	r0, [r7, #4]
900012c4:	6039      	str	r1, [r7, #0]
  uint32_t position = 0x00U;
900012c6:	2300      	movs	r3, #0
900012c8:	61fb      	str	r3, [r7, #28]
  EXTI_Core_TypeDef *EXTI_CurrentCPU;

#if defined(DUAL_CORE) && defined(CORE_CM4)
  EXTI_CurrentCPU = EXTI_D2; /* EXTI for CM4 CPU */
#else
  EXTI_CurrentCPU = EXTI_D1; /* EXTI for CM7 CPU */
900012ca:	4b44      	ldr	r3, [pc, #272]	; (900013dc <HAL_GPIO_Init+0x120>)
900012cc:	617b      	str	r3, [r7, #20]
#endif

  /* Check the parameters */
  assert_param(IS_GPIO_ALL_INSTANCE(GPIOx));
900012ce:	687b      	ldr	r3, [r7, #4]
900012d0:	4a43      	ldr	r2, [pc, #268]	; (900013e0 <HAL_GPIO_Init+0x124>)
900012d2:	4293      	cmp	r3, r2
900012d4:	d02b      	beq.n	9000132e <HAL_GPIO_Init+0x72>
900012d6:	687b      	ldr	r3, [r7, #4]
900012d8:	4a42      	ldr	r2, [pc, #264]	; (900013e4 <HAL_GPIO_Init+0x128>)
900012da:	4293      	cmp	r3, r2
900012dc:	d027      	beq.n	9000132e <HAL_GPIO_Init+0x72>
900012de:	687b      	ldr	r3, [r7, #4]
900012e0:	4a41      	ldr	r2, [pc, #260]	; (900013e8 <HAL_GPIO_Init+0x12c>)
900012e2:	4293      	cmp	r3, r2
900012e4:	d023      	beq.n	9000132e <HAL_GPIO_Init+0x72>
900012e6:	687b      	ldr	r3, [r7, #4]
900012e8:	4a40      	ldr	r2, [pc, #256]	; (900013ec <HAL_GPIO_Init+0x130>)
900012ea:	4293      	cmp	r3, r2
900012ec:	d01f      	beq.n	9000132e <HAL_GPIO_Init+0x72>
900012ee:	687b      	ldr	r3, [r7, #4]
900012f0:	4a3f      	ldr	r2, [pc, #252]	; (900013f0 <HAL_GPIO_Init+0x134>)
900012f2:	4293      	cmp	r3, r2
900012f4:	d01b      	beq.n	9000132e <HAL_GPIO_Init+0x72>
900012f6:	687b      	ldr	r3, [r7, #4]
900012f8:	4a3e      	ldr	r2, [pc, #248]	; (900013f4 <HAL_GPIO_Init+0x138>)
900012fa:	4293      	cmp	r3, r2
900012fc:	d017      	beq.n	9000132e <HAL_GPIO_Init+0x72>
900012fe:	687b      	ldr	r3, [r7, #4]
90001300:	4a3d      	ldr	r2, [pc, #244]	; (900013f8 <HAL_GPIO_Init+0x13c>)
90001302:	4293      	cmp	r3, r2
90001304:	d013      	beq.n	9000132e <HAL_GPIO_Init+0x72>
90001306:	687b      	ldr	r3, [r7, #4]
90001308:	4a3c      	ldr	r2, [pc, #240]	; (900013fc <HAL_GPIO_Init+0x140>)
9000130a:	4293      	cmp	r3, r2
9000130c:	d00f      	beq.n	9000132e <HAL_GPIO_Init+0x72>
9000130e:	687b      	ldr	r3, [r7, #4]
90001310:	4a3b      	ldr	r2, [pc, #236]	; (90001400 <HAL_GPIO_Init+0x144>)
90001312:	4293      	cmp	r3, r2
90001314:	d00b      	beq.n	9000132e <HAL_GPIO_Init+0x72>
90001316:	687b      	ldr	r3, [r7, #4]
90001318:	4a3a      	ldr	r2, [pc, #232]	; (90001404 <HAL_GPIO_Init+0x148>)
9000131a:	4293      	cmp	r3, r2
9000131c:	d007      	beq.n	9000132e <HAL_GPIO_Init+0x72>
9000131e:	687b      	ldr	r3, [r7, #4]
90001320:	4a39      	ldr	r2, [pc, #228]	; (90001408 <HAL_GPIO_Init+0x14c>)
90001322:	4293      	cmp	r3, r2
90001324:	d003      	beq.n	9000132e <HAL_GPIO_Init+0x72>
90001326:	21b3      	movs	r1, #179	; 0xb3
90001328:	4838      	ldr	r0, [pc, #224]	; (9000140c <HAL_GPIO_Init+0x150>)
9000132a:	f7ff faba 	bl	900008a2 <assert_failed>
  assert_param(IS_GPIO_PIN(GPIO_Init->Pin));
9000132e:	683b      	ldr	r3, [r7, #0]
90001330:	681b      	ldr	r3, [r3, #0]
90001332:	b29b      	uxth	r3, r3
90001334:	2b00      	cmp	r3, #0
90001336:	d005      	beq.n	90001344 <HAL_GPIO_Init+0x88>
90001338:	683b      	ldr	r3, [r7, #0]
9000133a:	681a      	ldr	r2, [r3, #0]
9000133c:	4b34      	ldr	r3, [pc, #208]	; (90001410 <HAL_GPIO_Init+0x154>)
9000133e:	4013      	ands	r3, r2
90001340:	2b00      	cmp	r3, #0
90001342:	d003      	beq.n	9000134c <HAL_GPIO_Init+0x90>
90001344:	21b4      	movs	r1, #180	; 0xb4
90001346:	4831      	ldr	r0, [pc, #196]	; (9000140c <HAL_GPIO_Init+0x150>)
90001348:	f7ff faab 	bl	900008a2 <assert_failed>
  assert_param(IS_GPIO_MODE(GPIO_Init->Mode));
9000134c:	683b      	ldr	r3, [r7, #0]
9000134e:	685b      	ldr	r3, [r3, #4]
90001350:	2b00      	cmp	r3, #0
90001352:	f000 8252 	beq.w	900017fa <HAL_GPIO_Init+0x53e>
90001356:	683b      	ldr	r3, [r7, #0]
90001358:	685b      	ldr	r3, [r3, #4]
9000135a:	2b01      	cmp	r3, #1
9000135c:	f000 824d 	beq.w	900017fa <HAL_GPIO_Init+0x53e>
90001360:	683b      	ldr	r3, [r7, #0]
90001362:	685b      	ldr	r3, [r3, #4]
90001364:	2b11      	cmp	r3, #17
90001366:	f000 8248 	beq.w	900017fa <HAL_GPIO_Init+0x53e>
9000136a:	683b      	ldr	r3, [r7, #0]
9000136c:	685b      	ldr	r3, [r3, #4]
9000136e:	2b02      	cmp	r3, #2
90001370:	f000 8243 	beq.w	900017fa <HAL_GPIO_Init+0x53e>
90001374:	683b      	ldr	r3, [r7, #0]
90001376:	685b      	ldr	r3, [r3, #4]
90001378:	2b12      	cmp	r3, #18
9000137a:	f000 823e 	beq.w	900017fa <HAL_GPIO_Init+0x53e>
9000137e:	683b      	ldr	r3, [r7, #0]
90001380:	685b      	ldr	r3, [r3, #4]
90001382:	f5b3 1f88 	cmp.w	r3, #1114112	; 0x110000
90001386:	f000 8238 	beq.w	900017fa <HAL_GPIO_Init+0x53e>
9000138a:	683b      	ldr	r3, [r7, #0]
9000138c:	685b      	ldr	r3, [r3, #4]
9000138e:	f5b3 1f04 	cmp.w	r3, #2162688	; 0x210000
90001392:	f000 8232 	beq.w	900017fa <HAL_GPIO_Init+0x53e>
90001396:	683b      	ldr	r3, [r7, #0]
90001398:	685b      	ldr	r3, [r3, #4]
9000139a:	f5b3 1f44 	cmp.w	r3, #3211264	; 0x310000
9000139e:	f000 822c 	beq.w	900017fa <HAL_GPIO_Init+0x53e>
900013a2:	683b      	ldr	r3, [r7, #0]
900013a4:	685b      	ldr	r3, [r3, #4]
900013a6:	f5b3 1f90 	cmp.w	r3, #1179648	; 0x120000
900013aa:	f000 8226 	beq.w	900017fa <HAL_GPIO_Init+0x53e>
900013ae:	683b      	ldr	r3, [r7, #0]
900013b0:	685b      	ldr	r3, [r3, #4]
900013b2:	f5b3 1f08 	cmp.w	r3, #2228224	; 0x220000
900013b6:	f000 8220 	beq.w	900017fa <HAL_GPIO_Init+0x53e>
900013ba:	683b      	ldr	r3, [r7, #0]
900013bc:	685b      	ldr	r3, [r3, #4]
900013be:	f5b3 1f48 	cmp.w	r3, #3276800	; 0x320000
900013c2:	f000 821a 	beq.w	900017fa <HAL_GPIO_Init+0x53e>
900013c6:	683b      	ldr	r3, [r7, #0]
900013c8:	685b      	ldr	r3, [r3, #4]
900013ca:	2b03      	cmp	r3, #3
900013cc:	f000 8215 	beq.w	900017fa <HAL_GPIO_Init+0x53e>
900013d0:	21b5      	movs	r1, #181	; 0xb5
900013d2:	480e      	ldr	r0, [pc, #56]	; (9000140c <HAL_GPIO_Init+0x150>)
900013d4:	f7ff fa65 	bl	900008a2 <assert_failed>

  /* Configure the port pins */
  while (((GPIO_Init->Pin) >> position) != 0x00U)
900013d8:	e20f      	b.n	900017fa <HAL_GPIO_Init+0x53e>
900013da:	bf00      	nop
900013dc:	58000080 	.word	0x58000080
900013e0:	58020000 	.word	0x58020000
900013e4:	58020400 	.word	0x58020400
900013e8:	58020800 	.word	0x58020800
900013ec:	58020c00 	.word	0x58020c00
900013f0:	58021000 	.word	0x58021000
900013f4:	58021400 	.word	0x58021400
900013f8:	58021800 	.word	0x58021800
900013fc:	58021c00 	.word	0x58021c00
90001400:	58022000 	.word	0x58022000
90001404:	58022400 	.word	0x58022400
90001408:	58022800 	.word	0x58022800
9000140c:	90006548 	.word	0x90006548
90001410:	ffff0000 	.word	0xffff0000
  {
    /* Get current io position */
    iocurrent = (GPIO_Init->Pin) & (1UL << position);
90001414:	683b      	ldr	r3, [r7, #0]
90001416:	681a      	ldr	r2, [r3, #0]
90001418:	2101      	movs	r1, #1
9000141a:	69fb      	ldr	r3, [r7, #28]
9000141c:	fa01 f303 	lsl.w	r3, r1, r3
90001420:	4013      	ands	r3, r2
90001422:	613b      	str	r3, [r7, #16]

    if (iocurrent != 0x00U)
90001424:	693b      	ldr	r3, [r7, #16]
90001426:	2b00      	cmp	r3, #0
90001428:	f000 81e4 	beq.w	900017f4 <HAL_GPIO_Init+0x538>
    {
      /*--------------------- GPIO Mode Configuration ------------------------*/
      /* In case of Output or Alternate function mode selection */
      if (((GPIO_Init->Mode & GPIO_MODE) == MODE_OUTPUT) || ((GPIO_Init->Mode & GPIO_MODE) == MODE_AF))
9000142c:	683b      	ldr	r3, [r7, #0]
9000142e:	685b      	ldr	r3, [r3, #4]
90001430:	f003 0303 	and.w	r3, r3, #3
90001434:	2b01      	cmp	r3, #1
90001436:	d005      	beq.n	90001444 <HAL_GPIO_Init+0x188>
90001438:	683b      	ldr	r3, [r7, #0]
9000143a:	685b      	ldr	r3, [r3, #4]
9000143c:	f003 0303 	and.w	r3, r3, #3
90001440:	2b02      	cmp	r3, #2
90001442:	d144      	bne.n	900014ce <HAL_GPIO_Init+0x212>
      {
        /* Check the Speed parameter */
        assert_param(IS_GPIO_SPEED(GPIO_Init->Speed));
90001444:	683b      	ldr	r3, [r7, #0]
90001446:	68db      	ldr	r3, [r3, #12]
90001448:	2b00      	cmp	r3, #0
9000144a:	d00f      	beq.n	9000146c <HAL_GPIO_Init+0x1b0>
9000144c:	683b      	ldr	r3, [r7, #0]
9000144e:	68db      	ldr	r3, [r3, #12]
90001450:	2b01      	cmp	r3, #1
90001452:	d00b      	beq.n	9000146c <HAL_GPIO_Init+0x1b0>
90001454:	683b      	ldr	r3, [r7, #0]
90001456:	68db      	ldr	r3, [r3, #12]
90001458:	2b02      	cmp	r3, #2
9000145a:	d007      	beq.n	9000146c <HAL_GPIO_Init+0x1b0>
9000145c:	683b      	ldr	r3, [r7, #0]
9000145e:	68db      	ldr	r3, [r3, #12]
90001460:	2b03      	cmp	r3, #3
90001462:	d003      	beq.n	9000146c <HAL_GPIO_Init+0x1b0>
90001464:	21c4      	movs	r1, #196	; 0xc4
90001466:	489a      	ldr	r0, [pc, #616]	; (900016d0 <HAL_GPIO_Init+0x414>)
90001468:	f7ff fa1b 	bl	900008a2 <assert_failed>

        /* Configure the IO Speed */
        temp = GPIOx->OSPEEDR;
9000146c:	687b      	ldr	r3, [r7, #4]
9000146e:	689b      	ldr	r3, [r3, #8]
90001470:	61bb      	str	r3, [r7, #24]
        temp &= ~(GPIO_OSPEEDR_OSPEED0 << (position * 2U));
90001472:	69fb      	ldr	r3, [r7, #28]
90001474:	005b      	lsls	r3, r3, #1
90001476:	2203      	movs	r2, #3
90001478:	fa02 f303 	lsl.w	r3, r2, r3
9000147c:	43db      	mvns	r3, r3
9000147e:	69ba      	ldr	r2, [r7, #24]
90001480:	4013      	ands	r3, r2
90001482:	61bb      	str	r3, [r7, #24]
        temp |= (GPIO_Init->Speed << (position * 2U));
90001484:	683b      	ldr	r3, [r7, #0]
90001486:	68da      	ldr	r2, [r3, #12]
90001488:	69fb      	ldr	r3, [r7, #28]
9000148a:	005b      	lsls	r3, r3, #1
9000148c:	fa02 f303 	lsl.w	r3, r2, r3
90001490:	69ba      	ldr	r2, [r7, #24]
90001492:	4313      	orrs	r3, r2
90001494:	61bb      	str	r3, [r7, #24]
        GPIOx->OSPEEDR = temp;
90001496:	687b      	ldr	r3, [r7, #4]
90001498:	69ba      	ldr	r2, [r7, #24]
9000149a:	609a      	str	r2, [r3, #8]

        /* Configure the IO Output Type */
        temp = GPIOx->OTYPER;
9000149c:	687b      	ldr	r3, [r7, #4]
9000149e:	685b      	ldr	r3, [r3, #4]
900014a0:	61bb      	str	r3, [r7, #24]
        temp &= ~(GPIO_OTYPER_OT0 << position) ;
900014a2:	2201      	movs	r2, #1
900014a4:	69fb      	ldr	r3, [r7, #28]
900014a6:	fa02 f303 	lsl.w	r3, r2, r3
900014aa:	43db      	mvns	r3, r3
900014ac:	69ba      	ldr	r2, [r7, #24]
900014ae:	4013      	ands	r3, r2
900014b0:	61bb      	str	r3, [r7, #24]
        temp |= (((GPIO_Init->Mode & OUTPUT_TYPE) >> OUTPUT_TYPE_Pos) << position);
900014b2:	683b      	ldr	r3, [r7, #0]
900014b4:	685b      	ldr	r3, [r3, #4]
900014b6:	091b      	lsrs	r3, r3, #4
900014b8:	f003 0201 	and.w	r2, r3, #1
900014bc:	69fb      	ldr	r3, [r7, #28]
900014be:	fa02 f303 	lsl.w	r3, r2, r3
900014c2:	69ba      	ldr	r2, [r7, #24]
900014c4:	4313      	orrs	r3, r2
900014c6:	61bb      	str	r3, [r7, #24]
        GPIOx->OTYPER = temp;
900014c8:	687b      	ldr	r3, [r7, #4]
900014ca:	69ba      	ldr	r2, [r7, #24]
900014cc:	605a      	str	r2, [r3, #4]
      }

      if ((GPIO_Init->Mode & GPIO_MODE) != MODE_ANALOG)
900014ce:	683b      	ldr	r3, [r7, #0]
900014d0:	685b      	ldr	r3, [r3, #4]
900014d2:	f003 0303 	and.w	r3, r3, #3
900014d6:	2b03      	cmp	r3, #3
900014d8:	d027      	beq.n	9000152a <HAL_GPIO_Init+0x26e>
      {
       /* Check the Pull parameter */
       assert_param(IS_GPIO_PULL(GPIO_Init->Pull));
900014da:	683b      	ldr	r3, [r7, #0]
900014dc:	689b      	ldr	r3, [r3, #8]
900014de:	2b00      	cmp	r3, #0
900014e0:	d00b      	beq.n	900014fa <HAL_GPIO_Init+0x23e>
900014e2:	683b      	ldr	r3, [r7, #0]
900014e4:	689b      	ldr	r3, [r3, #8]
900014e6:	2b01      	cmp	r3, #1
900014e8:	d007      	beq.n	900014fa <HAL_GPIO_Init+0x23e>
900014ea:	683b      	ldr	r3, [r7, #0]
900014ec:	689b      	ldr	r3, [r3, #8]
900014ee:	2b02      	cmp	r3, #2
900014f0:	d003      	beq.n	900014fa <HAL_GPIO_Init+0x23e>
900014f2:	21d6      	movs	r1, #214	; 0xd6
900014f4:	4876      	ldr	r0, [pc, #472]	; (900016d0 <HAL_GPIO_Init+0x414>)
900014f6:	f7ff f9d4 	bl	900008a2 <assert_failed>

      /* Activate the Pull-up or Pull down resistor for the current IO */
      temp = GPIOx->PUPDR;
900014fa:	687b      	ldr	r3, [r7, #4]
900014fc:	68db      	ldr	r3, [r3, #12]
900014fe:	61bb      	str	r3, [r7, #24]
      temp &= ~(GPIO_PUPDR_PUPD0 << (position * 2U));
90001500:	69fb      	ldr	r3, [r7, #28]
90001502:	005b      	lsls	r3, r3, #1
90001504:	2203      	movs	r2, #3
90001506:	fa02 f303 	lsl.w	r3, r2, r3
9000150a:	43db      	mvns	r3, r3
9000150c:	69ba      	ldr	r2, [r7, #24]
9000150e:	4013      	ands	r3, r2
90001510:	61bb      	str	r3, [r7, #24]
      temp |= ((GPIO_Init->Pull) << (position * 2U));
90001512:	683b      	ldr	r3, [r7, #0]
90001514:	689a      	ldr	r2, [r3, #8]
90001516:	69fb      	ldr	r3, [r7, #28]
90001518:	005b      	lsls	r3, r3, #1
9000151a:	fa02 f303 	lsl.w	r3, r2, r3
9000151e:	69ba      	ldr	r2, [r7, #24]
90001520:	4313      	orrs	r3, r2
90001522:	61bb      	str	r3, [r7, #24]
      GPIOx->PUPDR = temp;
90001524:	687b      	ldr	r3, [r7, #4]
90001526:	69ba      	ldr	r2, [r7, #24]
90001528:	60da      	str	r2, [r3, #12]
      }

      /* In case of Alternate function mode selection */
      if ((GPIO_Init->Mode & GPIO_MODE) == MODE_AF)
9000152a:	683b      	ldr	r3, [r7, #0]
9000152c:	685b      	ldr	r3, [r3, #4]
9000152e:	f003 0303 	and.w	r3, r3, #3
90001532:	2b02      	cmp	r3, #2
90001534:	d15b      	bne.n	900015ee <HAL_GPIO_Init+0x332>
      {
        /* Check the Alternate function parameters */
        assert_param(IS_GPIO_AF_INSTANCE(GPIOx));
90001536:	687b      	ldr	r3, [r7, #4]
90001538:	4a66      	ldr	r2, [pc, #408]	; (900016d4 <HAL_GPIO_Init+0x418>)
9000153a:	4293      	cmp	r3, r2
9000153c:	d02b      	beq.n	90001596 <HAL_GPIO_Init+0x2da>
9000153e:	687b      	ldr	r3, [r7, #4]
90001540:	4a65      	ldr	r2, [pc, #404]	; (900016d8 <HAL_GPIO_Init+0x41c>)
90001542:	4293      	cmp	r3, r2
90001544:	d027      	beq.n	90001596 <HAL_GPIO_Init+0x2da>
90001546:	687b      	ldr	r3, [r7, #4]
90001548:	4a64      	ldr	r2, [pc, #400]	; (900016dc <HAL_GPIO_Init+0x420>)
9000154a:	4293      	cmp	r3, r2
9000154c:	d023      	beq.n	90001596 <HAL_GPIO_Init+0x2da>
9000154e:	687b      	ldr	r3, [r7, #4]
90001550:	4a63      	ldr	r2, [pc, #396]	; (900016e0 <HAL_GPIO_Init+0x424>)
90001552:	4293      	cmp	r3, r2
90001554:	d01f      	beq.n	90001596 <HAL_GPIO_Init+0x2da>
90001556:	687b      	ldr	r3, [r7, #4]
90001558:	4a62      	ldr	r2, [pc, #392]	; (900016e4 <HAL_GPIO_Init+0x428>)
9000155a:	4293      	cmp	r3, r2
9000155c:	d01b      	beq.n	90001596 <HAL_GPIO_Init+0x2da>
9000155e:	687b      	ldr	r3, [r7, #4]
90001560:	4a61      	ldr	r2, [pc, #388]	; (900016e8 <HAL_GPIO_Init+0x42c>)
90001562:	4293      	cmp	r3, r2
90001564:	d017      	beq.n	90001596 <HAL_GPIO_Init+0x2da>
90001566:	687b      	ldr	r3, [r7, #4]
90001568:	4a60      	ldr	r2, [pc, #384]	; (900016ec <HAL_GPIO_Init+0x430>)
9000156a:	4293      	cmp	r3, r2
9000156c:	d013      	beq.n	90001596 <HAL_GPIO_Init+0x2da>
9000156e:	687b      	ldr	r3, [r7, #4]
90001570:	4a5f      	ldr	r2, [pc, #380]	; (900016f0 <HAL_GPIO_Init+0x434>)
90001572:	4293      	cmp	r3, r2
90001574:	d00f      	beq.n	90001596 <HAL_GPIO_Init+0x2da>
90001576:	687b      	ldr	r3, [r7, #4]
90001578:	4a5e      	ldr	r2, [pc, #376]	; (900016f4 <HAL_GPIO_Init+0x438>)
9000157a:	4293      	cmp	r3, r2
9000157c:	d00b      	beq.n	90001596 <HAL_GPIO_Init+0x2da>
9000157e:	687b      	ldr	r3, [r7, #4]
90001580:	4a5d      	ldr	r2, [pc, #372]	; (900016f8 <HAL_GPIO_Init+0x43c>)
90001582:	4293      	cmp	r3, r2
90001584:	d007      	beq.n	90001596 <HAL_GPIO_Init+0x2da>
90001586:	687b      	ldr	r3, [r7, #4]
90001588:	4a5c      	ldr	r2, [pc, #368]	; (900016fc <HAL_GPIO_Init+0x440>)
9000158a:	4293      	cmp	r3, r2
9000158c:	d003      	beq.n	90001596 <HAL_GPIO_Init+0x2da>
9000158e:	21e3      	movs	r1, #227	; 0xe3
90001590:	484f      	ldr	r0, [pc, #316]	; (900016d0 <HAL_GPIO_Init+0x414>)
90001592:	f7ff f986 	bl	900008a2 <assert_failed>
        assert_param(IS_GPIO_AF(GPIO_Init->Alternate));
90001596:	683b      	ldr	r3, [r7, #0]
90001598:	691b      	ldr	r3, [r3, #16]
9000159a:	2b0f      	cmp	r3, #15
9000159c:	d903      	bls.n	900015a6 <HAL_GPIO_Init+0x2ea>
9000159e:	21e4      	movs	r1, #228	; 0xe4
900015a0:	484b      	ldr	r0, [pc, #300]	; (900016d0 <HAL_GPIO_Init+0x414>)
900015a2:	f7ff f97e 	bl	900008a2 <assert_failed>

        /* Configure Alternate function mapped with the current IO */
        temp = GPIOx->AFR[position >> 3U];
900015a6:	69fb      	ldr	r3, [r7, #28]
900015a8:	08da      	lsrs	r2, r3, #3
900015aa:	687b      	ldr	r3, [r7, #4]
900015ac:	3208      	adds	r2, #8
900015ae:	f853 3022 	ldr.w	r3, [r3, r2, lsl #2]
900015b2:	61bb      	str	r3, [r7, #24]
        temp &= ~(0xFU << ((position & 0x07U) * 4U));
900015b4:	69fb      	ldr	r3, [r7, #28]
900015b6:	f003 0307 	and.w	r3, r3, #7
900015ba:	009b      	lsls	r3, r3, #2
900015bc:	220f      	movs	r2, #15
900015be:	fa02 f303 	lsl.w	r3, r2, r3
900015c2:	43db      	mvns	r3, r3
900015c4:	69ba      	ldr	r2, [r7, #24]
900015c6:	4013      	ands	r3, r2
900015c8:	61bb      	str	r3, [r7, #24]
        temp |= ((GPIO_Init->Alternate) << ((position & 0x07U) * 4U));
900015ca:	683b      	ldr	r3, [r7, #0]
900015cc:	691a      	ldr	r2, [r3, #16]
900015ce:	69fb      	ldr	r3, [r7, #28]
900015d0:	f003 0307 	and.w	r3, r3, #7
900015d4:	009b      	lsls	r3, r3, #2
900015d6:	fa02 f303 	lsl.w	r3, r2, r3
900015da:	69ba      	ldr	r2, [r7, #24]
900015dc:	4313      	orrs	r3, r2
900015de:	61bb      	str	r3, [r7, #24]
        GPIOx->AFR[position >> 3U] = temp;
900015e0:	69fb      	ldr	r3, [r7, #28]
900015e2:	08da      	lsrs	r2, r3, #3
900015e4:	687b      	ldr	r3, [r7, #4]
900015e6:	3208      	adds	r2, #8
900015e8:	69b9      	ldr	r1, [r7, #24]
900015ea:	f843 1022 	str.w	r1, [r3, r2, lsl #2]
      }

      /* Configure IO Direction mode (Input, Output, Alternate or Analog) */
      temp = GPIOx->MODER;
900015ee:	687b      	ldr	r3, [r7, #4]
900015f0:	681b      	ldr	r3, [r3, #0]
900015f2:	61bb      	str	r3, [r7, #24]
      temp &= ~(GPIO_MODER_MODE0 << (position * 2U));
900015f4:	69fb      	ldr	r3, [r7, #28]
900015f6:	005b      	lsls	r3, r3, #1
900015f8:	2203      	movs	r2, #3
900015fa:	fa02 f303 	lsl.w	r3, r2, r3
900015fe:	43db      	mvns	r3, r3
90001600:	69ba      	ldr	r2, [r7, #24]
90001602:	4013      	ands	r3, r2
90001604:	61bb      	str	r3, [r7, #24]
      temp |= ((GPIO_Init->Mode & GPIO_MODE) << (position * 2U));
90001606:	683b      	ldr	r3, [r7, #0]
90001608:	685b      	ldr	r3, [r3, #4]
9000160a:	f003 0203 	and.w	r2, r3, #3
9000160e:	69fb      	ldr	r3, [r7, #28]
90001610:	005b      	lsls	r3, r3, #1
90001612:	fa02 f303 	lsl.w	r3, r2, r3
90001616:	69ba      	ldr	r2, [r7, #24]
90001618:	4313      	orrs	r3, r2
9000161a:	61bb      	str	r3, [r7, #24]
      GPIOx->MODER = temp;
9000161c:	687b      	ldr	r3, [r7, #4]
9000161e:	69ba      	ldr	r2, [r7, #24]
90001620:	601a      	str	r2, [r3, #0]

      /*--------------------- EXTI Mode Configuration ------------------------*/
      /* Configure the External Interrupt or event for the current IO */
      if ((GPIO_Init->Mode & EXTI_MODE) != 0x00U)
90001622:	683b      	ldr	r3, [r7, #0]
90001624:	685b      	ldr	r3, [r3, #4]
90001626:	f403 3340 	and.w	r3, r3, #196608	; 0x30000
9000162a:	2b00      	cmp	r3, #0
9000162c:	f000 80e2 	beq.w	900017f4 <HAL_GPIO_Init+0x538>
      {
        /* Enable SYSCFG Clock */
        __HAL_RCC_SYSCFG_CLK_ENABLE();
90001630:	4b33      	ldr	r3, [pc, #204]	; (90001700 <HAL_GPIO_Init+0x444>)
90001632:	f8d3 30f4 	ldr.w	r3, [r3, #244]	; 0xf4
90001636:	4a32      	ldr	r2, [pc, #200]	; (90001700 <HAL_GPIO_Init+0x444>)
90001638:	f043 0302 	orr.w	r3, r3, #2
9000163c:	f8c2 30f4 	str.w	r3, [r2, #244]	; 0xf4
90001640:	4b2f      	ldr	r3, [pc, #188]	; (90001700 <HAL_GPIO_Init+0x444>)
90001642:	f8d3 30f4 	ldr.w	r3, [r3, #244]	; 0xf4
90001646:	f003 0302 	and.w	r3, r3, #2
9000164a:	60fb      	str	r3, [r7, #12]
9000164c:	68fb      	ldr	r3, [r7, #12]

        temp = SYSCFG->EXTICR[position >> 2U];
9000164e:	4a2d      	ldr	r2, [pc, #180]	; (90001704 <HAL_GPIO_Init+0x448>)
90001650:	69fb      	ldr	r3, [r7, #28]
90001652:	089b      	lsrs	r3, r3, #2
90001654:	3302      	adds	r3, #2
90001656:	f852 3023 	ldr.w	r3, [r2, r3, lsl #2]
9000165a:	61bb      	str	r3, [r7, #24]
        temp &= ~(0x0FUL << (4U * (position & 0x03U)));
9000165c:	69fb      	ldr	r3, [r7, #28]
9000165e:	f003 0303 	and.w	r3, r3, #3
90001662:	009b      	lsls	r3, r3, #2
90001664:	220f      	movs	r2, #15
90001666:	fa02 f303 	lsl.w	r3, r2, r3
9000166a:	43db      	mvns	r3, r3
9000166c:	69ba      	ldr	r2, [r7, #24]
9000166e:	4013      	ands	r3, r2
90001670:	61bb      	str	r3, [r7, #24]
        temp |= (GPIO_GET_INDEX(GPIOx) << (4U * (position & 0x03U)));
90001672:	687b      	ldr	r3, [r7, #4]
90001674:	4a17      	ldr	r2, [pc, #92]	; (900016d4 <HAL_GPIO_Init+0x418>)
90001676:	4293      	cmp	r3, r2
90001678:	d054      	beq.n	90001724 <HAL_GPIO_Init+0x468>
9000167a:	687b      	ldr	r3, [r7, #4]
9000167c:	4a16      	ldr	r2, [pc, #88]	; (900016d8 <HAL_GPIO_Init+0x41c>)
9000167e:	4293      	cmp	r3, r2
90001680:	d04e      	beq.n	90001720 <HAL_GPIO_Init+0x464>
90001682:	687b      	ldr	r3, [r7, #4]
90001684:	4a15      	ldr	r2, [pc, #84]	; (900016dc <HAL_GPIO_Init+0x420>)
90001686:	4293      	cmp	r3, r2
90001688:	d048      	beq.n	9000171c <HAL_GPIO_Init+0x460>
9000168a:	687b      	ldr	r3, [r7, #4]
9000168c:	4a14      	ldr	r2, [pc, #80]	; (900016e0 <HAL_GPIO_Init+0x424>)
9000168e:	4293      	cmp	r3, r2
90001690:	d042      	beq.n	90001718 <HAL_GPIO_Init+0x45c>
90001692:	687b      	ldr	r3, [r7, #4]
90001694:	4a13      	ldr	r2, [pc, #76]	; (900016e4 <HAL_GPIO_Init+0x428>)
90001696:	4293      	cmp	r3, r2
90001698:	d03c      	beq.n	90001714 <HAL_GPIO_Init+0x458>
9000169a:	687b      	ldr	r3, [r7, #4]
9000169c:	4a12      	ldr	r2, [pc, #72]	; (900016e8 <HAL_GPIO_Init+0x42c>)
9000169e:	4293      	cmp	r3, r2
900016a0:	d036      	beq.n	90001710 <HAL_GPIO_Init+0x454>
900016a2:	687b      	ldr	r3, [r7, #4]
900016a4:	4a11      	ldr	r2, [pc, #68]	; (900016ec <HAL_GPIO_Init+0x430>)
900016a6:	4293      	cmp	r3, r2
900016a8:	d030      	beq.n	9000170c <HAL_GPIO_Init+0x450>
900016aa:	687b      	ldr	r3, [r7, #4]
900016ac:	4a10      	ldr	r2, [pc, #64]	; (900016f0 <HAL_GPIO_Init+0x434>)
900016ae:	4293      	cmp	r3, r2
900016b0:	d02a      	beq.n	90001708 <HAL_GPIO_Init+0x44c>
900016b2:	687b      	ldr	r3, [r7, #4]
900016b4:	4a0f      	ldr	r2, [pc, #60]	; (900016f4 <HAL_GPIO_Init+0x438>)
900016b6:	4293      	cmp	r3, r2
900016b8:	d007      	beq.n	900016ca <HAL_GPIO_Init+0x40e>
900016ba:	687b      	ldr	r3, [r7, #4]
900016bc:	4a0e      	ldr	r2, [pc, #56]	; (900016f8 <HAL_GPIO_Init+0x43c>)
900016be:	4293      	cmp	r3, r2
900016c0:	d101      	bne.n	900016c6 <HAL_GPIO_Init+0x40a>
900016c2:	2309      	movs	r3, #9
900016c4:	e02f      	b.n	90001726 <HAL_GPIO_Init+0x46a>
900016c6:	230a      	movs	r3, #10
900016c8:	e02d      	b.n	90001726 <HAL_GPIO_Init+0x46a>
900016ca:	2308      	movs	r3, #8
900016cc:	e02b      	b.n	90001726 <HAL_GPIO_Init+0x46a>
900016ce:	bf00      	nop
900016d0:	90006548 	.word	0x90006548
900016d4:	58020000 	.word	0x58020000
900016d8:	58020400 	.word	0x58020400
900016dc:	58020800 	.word	0x58020800
900016e0:	58020c00 	.word	0x58020c00
900016e4:	58021000 	.word	0x58021000
900016e8:	58021400 	.word	0x58021400
900016ec:	58021800 	.word	0x58021800
900016f0:	58021c00 	.word	0x58021c00
900016f4:	58022000 	.word	0x58022000
900016f8:	58022400 	.word	0x58022400
900016fc:	58022800 	.word	0x58022800
90001700:	58024400 	.word	0x58024400
90001704:	58000400 	.word	0x58000400
90001708:	2307      	movs	r3, #7
9000170a:	e00c      	b.n	90001726 <HAL_GPIO_Init+0x46a>
9000170c:	2306      	movs	r3, #6
9000170e:	e00a      	b.n	90001726 <HAL_GPIO_Init+0x46a>
90001710:	2305      	movs	r3, #5
90001712:	e008      	b.n	90001726 <HAL_GPIO_Init+0x46a>
90001714:	2304      	movs	r3, #4
90001716:	e006      	b.n	90001726 <HAL_GPIO_Init+0x46a>
90001718:	2303      	movs	r3, #3
9000171a:	e004      	b.n	90001726 <HAL_GPIO_Init+0x46a>
9000171c:	2302      	movs	r3, #2
9000171e:	e002      	b.n	90001726 <HAL_GPIO_Init+0x46a>
90001720:	2301      	movs	r3, #1
90001722:	e000      	b.n	90001726 <HAL_GPIO_Init+0x46a>
90001724:	2300      	movs	r3, #0
90001726:	69fa      	ldr	r2, [r7, #28]
90001728:	f002 0203 	and.w	r2, r2, #3
9000172c:	0092      	lsls	r2, r2, #2
9000172e:	4093      	lsls	r3, r2
90001730:	69ba      	ldr	r2, [r7, #24]
90001732:	4313      	orrs	r3, r2
90001734:	61bb      	str	r3, [r7, #24]
        SYSCFG->EXTICR[position >> 2U] = temp;
90001736:	4937      	ldr	r1, [pc, #220]	; (90001814 <HAL_GPIO_Init+0x558>)
90001738:	69fb      	ldr	r3, [r7, #28]
9000173a:	089b      	lsrs	r3, r3, #2
9000173c:	3302      	adds	r3, #2
9000173e:	69ba      	ldr	r2, [r7, #24]
90001740:	f841 2023 	str.w	r2, [r1, r3, lsl #2]

        /* Clear Rising Falling edge configuration */
        temp = EXTI->RTSR1;
90001744:	f04f 43b0 	mov.w	r3, #1476395008	; 0x58000000
90001748:	681b      	ldr	r3, [r3, #0]
9000174a:	61bb      	str	r3, [r7, #24]
        temp &= ~(iocurrent);
9000174c:	693b      	ldr	r3, [r7, #16]
9000174e:	43db      	mvns	r3, r3
90001750:	69ba      	ldr	r2, [r7, #24]
90001752:	4013      	ands	r3, r2
90001754:	61bb      	str	r3, [r7, #24]
        if ((GPIO_Init->Mode & TRIGGER_RISING) != 0x00U)
90001756:	683b      	ldr	r3, [r7, #0]
90001758:	685b      	ldr	r3, [r3, #4]
9000175a:	f403 1380 	and.w	r3, r3, #1048576	; 0x100000
9000175e:	2b00      	cmp	r3, #0
90001760:	d003      	beq.n	9000176a <HAL_GPIO_Init+0x4ae>
        {
          temp |= iocurrent;
90001762:	69ba      	ldr	r2, [r7, #24]
90001764:	693b      	ldr	r3, [r7, #16]
90001766:	4313      	orrs	r3, r2
90001768:	61bb      	str	r3, [r7, #24]
        }
        EXTI->RTSR1 = temp;
9000176a:	f04f 42b0 	mov.w	r2, #1476395008	; 0x58000000
9000176e:	69bb      	ldr	r3, [r7, #24]
90001770:	6013      	str	r3, [r2, #0]

        temp = EXTI->FTSR1;
90001772:	f04f 43b0 	mov.w	r3, #1476395008	; 0x58000000
90001776:	685b      	ldr	r3, [r3, #4]
90001778:	61bb      	str	r3, [r7, #24]
        temp &= ~(iocurrent);
9000177a:	693b      	ldr	r3, [r7, #16]
9000177c:	43db      	mvns	r3, r3
9000177e:	69ba      	ldr	r2, [r7, #24]
90001780:	4013      	ands	r3, r2
90001782:	61bb      	str	r3, [r7, #24]
        if ((GPIO_Init->Mode & TRIGGER_FALLING) != 0x00U)
90001784:	683b      	ldr	r3, [r7, #0]
90001786:	685b      	ldr	r3, [r3, #4]
90001788:	f403 1300 	and.w	r3, r3, #2097152	; 0x200000
9000178c:	2b00      	cmp	r3, #0
9000178e:	d003      	beq.n	90001798 <HAL_GPIO_Init+0x4dc>
        {
          temp |= iocurrent;
90001790:	69ba      	ldr	r2, [r7, #24]
90001792:	693b      	ldr	r3, [r7, #16]
90001794:	4313      	orrs	r3, r2
90001796:	61bb      	str	r3, [r7, #24]
        }
        EXTI->FTSR1 = temp;
90001798:	f04f 42b0 	mov.w	r2, #1476395008	; 0x58000000
9000179c:	69bb      	ldr	r3, [r7, #24]
9000179e:	6053      	str	r3, [r2, #4]

        temp = EXTI_CurrentCPU->EMR1;
900017a0:	697b      	ldr	r3, [r7, #20]
900017a2:	685b      	ldr	r3, [r3, #4]
900017a4:	61bb      	str	r3, [r7, #24]
        temp &= ~(iocurrent);
900017a6:	693b      	ldr	r3, [r7, #16]
900017a8:	43db      	mvns	r3, r3
900017aa:	69ba      	ldr	r2, [r7, #24]
900017ac:	4013      	ands	r3, r2
900017ae:	61bb      	str	r3, [r7, #24]
        if ((GPIO_Init->Mode & EXTI_EVT) != 0x00U)
900017b0:	683b      	ldr	r3, [r7, #0]
900017b2:	685b      	ldr	r3, [r3, #4]
900017b4:	f403 3300 	and.w	r3, r3, #131072	; 0x20000
900017b8:	2b00      	cmp	r3, #0
900017ba:	d003      	beq.n	900017c4 <HAL_GPIO_Init+0x508>
        {
          temp |= iocurrent;
900017bc:	69ba      	ldr	r2, [r7, #24]
900017be:	693b      	ldr	r3, [r7, #16]
900017c0:	4313      	orrs	r3, r2
900017c2:	61bb      	str	r3, [r7, #24]
        }
        EXTI_CurrentCPU->EMR1 = temp;
900017c4:	697b      	ldr	r3, [r7, #20]
900017c6:	69ba      	ldr	r2, [r7, #24]
900017c8:	605a      	str	r2, [r3, #4]

        /* Clear EXTI line configuration */
        temp = EXTI_CurrentCPU->IMR1;
900017ca:	697b      	ldr	r3, [r7, #20]
900017cc:	681b      	ldr	r3, [r3, #0]
900017ce:	61bb      	str	r3, [r7, #24]
        temp &= ~(iocurrent);
900017d0:	693b      	ldr	r3, [r7, #16]
900017d2:	43db      	mvns	r3, r3
900017d4:	69ba      	ldr	r2, [r7, #24]
900017d6:	4013      	ands	r3, r2
900017d8:	61bb      	str	r3, [r7, #24]
        if ((GPIO_Init->Mode & EXTI_IT) != 0x00U)
900017da:	683b      	ldr	r3, [r7, #0]
900017dc:	685b      	ldr	r3, [r3, #4]
900017de:	f403 3380 	and.w	r3, r3, #65536	; 0x10000
900017e2:	2b00      	cmp	r3, #0
900017e4:	d003      	beq.n	900017ee <HAL_GPIO_Init+0x532>
        {
          temp |= iocurrent;
900017e6:	69ba      	ldr	r2, [r7, #24]
900017e8:	693b      	ldr	r3, [r7, #16]
900017ea:	4313      	orrs	r3, r2
900017ec:	61bb      	str	r3, [r7, #24]
        }
        EXTI_CurrentCPU->IMR1 = temp;
900017ee:	697b      	ldr	r3, [r7, #20]
900017f0:	69ba      	ldr	r2, [r7, #24]
900017f2:	601a      	str	r2, [r3, #0]
      }
    }

    position++;
900017f4:	69fb      	ldr	r3, [r7, #28]
900017f6:	3301      	adds	r3, #1
900017f8:	61fb      	str	r3, [r7, #28]
  while (((GPIO_Init->Pin) >> position) != 0x00U)
900017fa:	683b      	ldr	r3, [r7, #0]
900017fc:	681a      	ldr	r2, [r3, #0]
900017fe:	69fb      	ldr	r3, [r7, #28]
90001800:	fa22 f303 	lsr.w	r3, r2, r3
90001804:	2b00      	cmp	r3, #0
90001806:	f47f ae05 	bne.w	90001414 <HAL_GPIO_Init+0x158>
  }
}
9000180a:	bf00      	nop
9000180c:	bf00      	nop
9000180e:	3720      	adds	r7, #32
90001810:	46bd      	mov	sp, r7
90001812:	bd80      	pop	{r7, pc}
90001814:	58000400 	.word	0x58000400

90001818 <HAL_PWREx_ConfigSupply>:
  *         PWR_SMPS_2V5_SUPPLIES_EXT are used only for lines that supports SMPS
  *         regulator.
  * @retval HAL status.
  */
HAL_StatusTypeDef HAL_PWREx_ConfigSupply (uint32_t SupplySource)
{
90001818:	b580      	push	{r7, lr}
9000181a:	b084      	sub	sp, #16
9000181c:	af00      	add	r7, sp, #0
9000181e:	6078      	str	r0, [r7, #4]
  uint32_t tickstart;

  /* Check the parameters */
  assert_param (IS_PWR_SUPPLY (SupplySource));
90001820:	687b      	ldr	r3, [r7, #4]
90001822:	2b02      	cmp	r3, #2
90001824:	d007      	beq.n	90001836 <HAL_PWREx_ConfigSupply+0x1e>
90001826:	687b      	ldr	r3, [r7, #4]
90001828:	2b01      	cmp	r3, #1
9000182a:	d004      	beq.n	90001836 <HAL_PWREx_ConfigSupply+0x1e>
9000182c:	f44f 719f 	mov.w	r1, #318	; 0x13e
90001830:	481a      	ldr	r0, [pc, #104]	; (9000189c <HAL_PWREx_ConfigSupply+0x84>)
90001832:	f7ff f836 	bl	900008a2 <assert_failed>

  /* Check if supply source was configured */
#if defined (PWR_FLAG_SCUEN)
  if (__HAL_PWR_GET_FLAG (PWR_FLAG_SCUEN) == 0U)
90001836:	4b1a      	ldr	r3, [pc, #104]	; (900018a0 <HAL_PWREx_ConfigSupply+0x88>)
90001838:	68db      	ldr	r3, [r3, #12]
9000183a:	f003 0304 	and.w	r3, r3, #4
9000183e:	2b04      	cmp	r3, #4
90001840:	d00a      	beq.n	90001858 <HAL_PWREx_ConfigSupply+0x40>
#else
  if ((PWR->CR3 & (PWR_CR3_SMPSEN | PWR_CR3_LDOEN | PWR_CR3_BYPASS)) != (PWR_CR3_SMPSEN | PWR_CR3_LDOEN))
#endif /* defined (PWR_FLAG_SCUEN) */
  {
    /* Check supply configuration */
    if ((PWR->CR3 & PWR_SUPPLY_CONFIG_MASK) != SupplySource)
90001842:	4b17      	ldr	r3, [pc, #92]	; (900018a0 <HAL_PWREx_ConfigSupply+0x88>)
90001844:	68db      	ldr	r3, [r3, #12]
90001846:	f003 0307 	and.w	r3, r3, #7
9000184a:	687a      	ldr	r2, [r7, #4]
9000184c:	429a      	cmp	r2, r3
9000184e:	d001      	beq.n	90001854 <HAL_PWREx_ConfigSupply+0x3c>
    {
      /* Supply configuration update locked, can't apply a new supply config */
      return HAL_ERROR;
90001850:	2301      	movs	r3, #1
90001852:	e01f      	b.n	90001894 <HAL_PWREx_ConfigSupply+0x7c>
    else
    {
      /* Supply configuration update locked, but new supply configuration
         matches with old supply configuration : nothing to do
      */
      return HAL_OK;
90001854:	2300      	movs	r3, #0
90001856:	e01d      	b.n	90001894 <HAL_PWREx_ConfigSupply+0x7c>
    }
  }

  /* Set the power supply configuration */
  MODIFY_REG (PWR->CR3, PWR_SUPPLY_CONFIG_MASK, SupplySource);
90001858:	4b11      	ldr	r3, [pc, #68]	; (900018a0 <HAL_PWREx_ConfigSupply+0x88>)
9000185a:	68db      	ldr	r3, [r3, #12]
9000185c:	f023 0207 	bic.w	r2, r3, #7
90001860:	490f      	ldr	r1, [pc, #60]	; (900018a0 <HAL_PWREx_ConfigSupply+0x88>)
90001862:	687b      	ldr	r3, [r7, #4]
90001864:	4313      	orrs	r3, r2
90001866:	60cb      	str	r3, [r1, #12]

  /* Get tick */
  tickstart = HAL_GetTick ();
90001868:	f7ff fa54 	bl	90000d14 <HAL_GetTick>
9000186c:	60f8      	str	r0, [r7, #12]

  /* Wait till voltage level flag is set */
  while (__HAL_PWR_GET_FLAG (PWR_FLAG_ACTVOSRDY) == 0U)
9000186e:	e009      	b.n	90001884 <HAL_PWREx_ConfigSupply+0x6c>
  {
    if ((HAL_GetTick () - tickstart) > PWR_FLAG_SETTING_DELAY)
90001870:	f7ff fa50 	bl	90000d14 <HAL_GetTick>
90001874:	4602      	mov	r2, r0
90001876:	68fb      	ldr	r3, [r7, #12]
90001878:	1ad3      	subs	r3, r2, r3
9000187a:	f5b3 7f7a 	cmp.w	r3, #1000	; 0x3e8
9000187e:	d901      	bls.n	90001884 <HAL_PWREx_ConfigSupply+0x6c>
    {
      return HAL_ERROR;
90001880:	2301      	movs	r3, #1
90001882:	e007      	b.n	90001894 <HAL_PWREx_ConfigSupply+0x7c>
  while (__HAL_PWR_GET_FLAG (PWR_FLAG_ACTVOSRDY) == 0U)
90001884:	4b06      	ldr	r3, [pc, #24]	; (900018a0 <HAL_PWREx_ConfigSupply+0x88>)
90001886:	685b      	ldr	r3, [r3, #4]
90001888:	f403 5300 	and.w	r3, r3, #8192	; 0x2000
9000188c:	f5b3 5f00 	cmp.w	r3, #8192	; 0x2000
90001890:	d1ee      	bne.n	90001870 <HAL_PWREx_ConfigSupply+0x58>
      }
    }
  }
#endif /* defined (SMPS) */

  return HAL_OK;
90001892:	2300      	movs	r3, #0
}
90001894:	4618      	mov	r0, r3
90001896:	3710      	adds	r7, #16
90001898:	46bd      	mov	sp, r7
9000189a:	bd80      	pop	{r7, pc}
9000189c:	90006584 	.word	0x90006584
900018a0:	58024800 	.word	0x58024800

900018a4 <HAL_RCC_OscConfig>:
  *         supported by this function. User should request a transition to HSE Off
  *         first and then HSE On or HSE Bypass.
  * @retval HAL status
  */
__weak HAL_StatusTypeDef HAL_RCC_OscConfig(RCC_OscInitTypeDef  *RCC_OscInitStruct)
{
900018a4:	b580      	push	{r7, lr}
900018a6:	b08c      	sub	sp, #48	; 0x30
900018a8:	af00      	add	r7, sp, #0
900018aa:	6078      	str	r0, [r7, #4]
  uint32_t tickstart;
  uint32_t temp1_pllckcfg, temp2_pllckcfg;

    /* Check Null pointer */
  if(RCC_OscInitStruct == NULL)
900018ac:	687b      	ldr	r3, [r7, #4]
900018ae:	2b00      	cmp	r3, #0
900018b0:	d102      	bne.n	900018b8 <HAL_RCC_OscConfig+0x14>
  {
    return HAL_ERROR;
900018b2:	2301      	movs	r3, #1
900018b4:	f000 bd65 	b.w	90002382 <HAL_RCC_OscConfig+0xade>
  }

  /* Check the parameters */
  assert_param(IS_RCC_OSCILLATORTYPE(RCC_OscInitStruct->OscillatorType));
900018b8:	687b      	ldr	r3, [r7, #4]
900018ba:	681b      	ldr	r3, [r3, #0]
900018bc:	2b00      	cmp	r3, #0
900018be:	d028      	beq.n	90001912 <HAL_RCC_OscConfig+0x6e>
900018c0:	687b      	ldr	r3, [r7, #4]
900018c2:	681b      	ldr	r3, [r3, #0]
900018c4:	f003 0301 	and.w	r3, r3, #1
900018c8:	2b00      	cmp	r3, #0
900018ca:	d122      	bne.n	90001912 <HAL_RCC_OscConfig+0x6e>
900018cc:	687b      	ldr	r3, [r7, #4]
900018ce:	681b      	ldr	r3, [r3, #0]
900018d0:	f003 0302 	and.w	r3, r3, #2
900018d4:	2b00      	cmp	r3, #0
900018d6:	d11c      	bne.n	90001912 <HAL_RCC_OscConfig+0x6e>
900018d8:	687b      	ldr	r3, [r7, #4]
900018da:	681b      	ldr	r3, [r3, #0]
900018dc:	f003 0310 	and.w	r3, r3, #16
900018e0:	2b00      	cmp	r3, #0
900018e2:	d116      	bne.n	90001912 <HAL_RCC_OscConfig+0x6e>
900018e4:	687b      	ldr	r3, [r7, #4]
900018e6:	681b      	ldr	r3, [r3, #0]
900018e8:	f003 0308 	and.w	r3, r3, #8
900018ec:	2b00      	cmp	r3, #0
900018ee:	d110      	bne.n	90001912 <HAL_RCC_OscConfig+0x6e>
900018f0:	687b      	ldr	r3, [r7, #4]
900018f2:	681b      	ldr	r3, [r3, #0]
900018f4:	f003 0304 	and.w	r3, r3, #4
900018f8:	2b00      	cmp	r3, #0
900018fa:	d10a      	bne.n	90001912 <HAL_RCC_OscConfig+0x6e>
900018fc:	687b      	ldr	r3, [r7, #4]
900018fe:	681b      	ldr	r3, [r3, #0]
90001900:	f003 0320 	and.w	r3, r3, #32
90001904:	2b00      	cmp	r3, #0
90001906:	d104      	bne.n	90001912 <HAL_RCC_OscConfig+0x6e>
90001908:	f240 11a1 	movw	r1, #417	; 0x1a1
9000190c:	4897      	ldr	r0, [pc, #604]	; (90001b6c <HAL_RCC_OscConfig+0x2c8>)
9000190e:	f7fe ffc8 	bl	900008a2 <assert_failed>
  /*------------------------------- HSE Configuration ------------------------*/
  if(((RCC_OscInitStruct->OscillatorType) & RCC_OSCILLATORTYPE_HSE) == RCC_OSCILLATORTYPE_HSE)
90001912:	687b      	ldr	r3, [r7, #4]
90001914:	681b      	ldr	r3, [r3, #0]
90001916:	f003 0301 	and.w	r3, r3, #1
9000191a:	2b00      	cmp	r3, #0
9000191c:	f000 809d 	beq.w	90001a5a <HAL_RCC_OscConfig+0x1b6>
  {
    /* Check the parameters */
    assert_param(IS_RCC_HSE(RCC_OscInitStruct->HSEState));
90001920:	687b      	ldr	r3, [r7, #4]
90001922:	685b      	ldr	r3, [r3, #4]
90001924:	2b00      	cmp	r3, #0
90001926:	d00e      	beq.n	90001946 <HAL_RCC_OscConfig+0xa2>
90001928:	687b      	ldr	r3, [r7, #4]
9000192a:	685b      	ldr	r3, [r3, #4]
9000192c:	f5b3 3f80 	cmp.w	r3, #65536	; 0x10000
90001930:	d009      	beq.n	90001946 <HAL_RCC_OscConfig+0xa2>
90001932:	687b      	ldr	r3, [r7, #4]
90001934:	685b      	ldr	r3, [r3, #4]
90001936:	f5b3 2fa0 	cmp.w	r3, #327680	; 0x50000
9000193a:	d004      	beq.n	90001946 <HAL_RCC_OscConfig+0xa2>
9000193c:	f44f 71d3 	mov.w	r1, #422	; 0x1a6
90001940:	488a      	ldr	r0, [pc, #552]	; (90001b6c <HAL_RCC_OscConfig+0x2c8>)
90001942:	f7fe ffae 	bl	900008a2 <assert_failed>

    const uint32_t temp_sysclksrc = __HAL_RCC_GET_SYSCLK_SOURCE();
90001946:	4b8a      	ldr	r3, [pc, #552]	; (90001b70 <HAL_RCC_OscConfig+0x2cc>)
90001948:	691b      	ldr	r3, [r3, #16]
9000194a:	f003 0338 	and.w	r3, r3, #56	; 0x38
9000194e:	62fb      	str	r3, [r7, #44]	; 0x2c
    const uint32_t temp_pllckselr = RCC->PLLCKSELR;
90001950:	4b87      	ldr	r3, [pc, #540]	; (90001b70 <HAL_RCC_OscConfig+0x2cc>)
90001952:	6a9b      	ldr	r3, [r3, #40]	; 0x28
90001954:	62bb      	str	r3, [r7, #40]	; 0x28
    /* When the HSE is used as system clock or clock source for PLL in these cases HSE will not disabled */
    if((temp_sysclksrc == RCC_CFGR_SWS_HSE) || ((temp_sysclksrc == RCC_CFGR_SWS_PLL1) && ((temp_pllckselr & RCC_PLLCKSELR_PLLSRC) == RCC_PLLCKSELR_PLLSRC_HSE)))
90001956:	6afb      	ldr	r3, [r7, #44]	; 0x2c
90001958:	2b10      	cmp	r3, #16
9000195a:	d007      	beq.n	9000196c <HAL_RCC_OscConfig+0xc8>
9000195c:	6afb      	ldr	r3, [r7, #44]	; 0x2c
9000195e:	2b18      	cmp	r3, #24
90001960:	d111      	bne.n	90001986 <HAL_RCC_OscConfig+0xe2>
90001962:	6abb      	ldr	r3, [r7, #40]	; 0x28
90001964:	f003 0303 	and.w	r3, r3, #3
90001968:	2b02      	cmp	r3, #2
9000196a:	d10c      	bne.n	90001986 <HAL_RCC_OscConfig+0xe2>
    {
      if((__HAL_RCC_GET_FLAG(RCC_FLAG_HSERDY) != 0U) && (RCC_OscInitStruct->HSEState == RCC_HSE_OFF))
9000196c:	4b80      	ldr	r3, [pc, #512]	; (90001b70 <HAL_RCC_OscConfig+0x2cc>)
9000196e:	681b      	ldr	r3, [r3, #0]
90001970:	f403 3300 	and.w	r3, r3, #131072	; 0x20000
90001974:	2b00      	cmp	r3, #0
90001976:	d06f      	beq.n	90001a58 <HAL_RCC_OscConfig+0x1b4>
90001978:	687b      	ldr	r3, [r7, #4]
9000197a:	685b      	ldr	r3, [r3, #4]
9000197c:	2b00      	cmp	r3, #0
9000197e:	d16b      	bne.n	90001a58 <HAL_RCC_OscConfig+0x1b4>
      {
        return HAL_ERROR;
90001980:	2301      	movs	r3, #1
90001982:	f000 bcfe 	b.w	90002382 <HAL_RCC_OscConfig+0xade>
      }
    }
    else
    {
      /* Set the new HSE configuration ---------------------------------------*/
      __HAL_RCC_HSE_CONFIG(RCC_OscInitStruct->HSEState);
90001986:	687b      	ldr	r3, [r7, #4]
90001988:	685b      	ldr	r3, [r3, #4]
9000198a:	f5b3 3f80 	cmp.w	r3, #65536	; 0x10000
9000198e:	d106      	bne.n	9000199e <HAL_RCC_OscConfig+0xfa>
90001990:	4b77      	ldr	r3, [pc, #476]	; (90001b70 <HAL_RCC_OscConfig+0x2cc>)
90001992:	681b      	ldr	r3, [r3, #0]
90001994:	4a76      	ldr	r2, [pc, #472]	; (90001b70 <HAL_RCC_OscConfig+0x2cc>)
90001996:	f443 3380 	orr.w	r3, r3, #65536	; 0x10000
9000199a:	6013      	str	r3, [r2, #0]
9000199c:	e02e      	b.n	900019fc <HAL_RCC_OscConfig+0x158>
9000199e:	687b      	ldr	r3, [r7, #4]
900019a0:	685b      	ldr	r3, [r3, #4]
900019a2:	2b00      	cmp	r3, #0
900019a4:	d10c      	bne.n	900019c0 <HAL_RCC_OscConfig+0x11c>
900019a6:	4b72      	ldr	r3, [pc, #456]	; (90001b70 <HAL_RCC_OscConfig+0x2cc>)
900019a8:	681b      	ldr	r3, [r3, #0]
900019aa:	4a71      	ldr	r2, [pc, #452]	; (90001b70 <HAL_RCC_OscConfig+0x2cc>)
900019ac:	f423 3380 	bic.w	r3, r3, #65536	; 0x10000
900019b0:	6013      	str	r3, [r2, #0]
900019b2:	4b6f      	ldr	r3, [pc, #444]	; (90001b70 <HAL_RCC_OscConfig+0x2cc>)
900019b4:	681b      	ldr	r3, [r3, #0]
900019b6:	4a6e      	ldr	r2, [pc, #440]	; (90001b70 <HAL_RCC_OscConfig+0x2cc>)
900019b8:	f423 2380 	bic.w	r3, r3, #262144	; 0x40000
900019bc:	6013      	str	r3, [r2, #0]
900019be:	e01d      	b.n	900019fc <HAL_RCC_OscConfig+0x158>
900019c0:	687b      	ldr	r3, [r7, #4]
900019c2:	685b      	ldr	r3, [r3, #4]
900019c4:	f5b3 2fa0 	cmp.w	r3, #327680	; 0x50000
900019c8:	d10c      	bne.n	900019e4 <HAL_RCC_OscConfig+0x140>
900019ca:	4b69      	ldr	r3, [pc, #420]	; (90001b70 <HAL_RCC_OscConfig+0x2cc>)
900019cc:	681b      	ldr	r3, [r3, #0]
900019ce:	4a68      	ldr	r2, [pc, #416]	; (90001b70 <HAL_RCC_OscConfig+0x2cc>)
900019d0:	f443 2380 	orr.w	r3, r3, #262144	; 0x40000
900019d4:	6013      	str	r3, [r2, #0]
900019d6:	4b66      	ldr	r3, [pc, #408]	; (90001b70 <HAL_RCC_OscConfig+0x2cc>)
900019d8:	681b      	ldr	r3, [r3, #0]
900019da:	4a65      	ldr	r2, [pc, #404]	; (90001b70 <HAL_RCC_OscConfig+0x2cc>)
900019dc:	f443 3380 	orr.w	r3, r3, #65536	; 0x10000
900019e0:	6013      	str	r3, [r2, #0]
900019e2:	e00b      	b.n	900019fc <HAL_RCC_OscConfig+0x158>
900019e4:	4b62      	ldr	r3, [pc, #392]	; (90001b70 <HAL_RCC_OscConfig+0x2cc>)
900019e6:	681b      	ldr	r3, [r3, #0]
900019e8:	4a61      	ldr	r2, [pc, #388]	; (90001b70 <HAL_RCC_OscConfig+0x2cc>)
900019ea:	f423 3380 	bic.w	r3, r3, #65536	; 0x10000
900019ee:	6013      	str	r3, [r2, #0]
900019f0:	4b5f      	ldr	r3, [pc, #380]	; (90001b70 <HAL_RCC_OscConfig+0x2cc>)
900019f2:	681b      	ldr	r3, [r3, #0]
900019f4:	4a5e      	ldr	r2, [pc, #376]	; (90001b70 <HAL_RCC_OscConfig+0x2cc>)
900019f6:	f423 2380 	bic.w	r3, r3, #262144	; 0x40000
900019fa:	6013      	str	r3, [r2, #0]

      /* Check the HSE State */
      if(RCC_OscInitStruct->HSEState != RCC_HSE_OFF)
900019fc:	687b      	ldr	r3, [r7, #4]
900019fe:	685b      	ldr	r3, [r3, #4]
90001a00:	2b00      	cmp	r3, #0
90001a02:	d014      	beq.n	90001a2e <HAL_RCC_OscConfig+0x18a>
      {
        /* Get Start Tick*/
        tickstart = HAL_GetTick();
90001a04:	f7ff f986 	bl	90000d14 <HAL_GetTick>
90001a08:	6278      	str	r0, [r7, #36]	; 0x24

        /* Wait till HSE is ready */
        while(__HAL_RCC_GET_FLAG(RCC_FLAG_HSERDY) == 0U)
90001a0a:	e009      	b.n	90001a20 <HAL_RCC_OscConfig+0x17c>
        {
          if((uint32_t) (HAL_GetTick() - tickstart ) > HSE_TIMEOUT_VALUE)
90001a0c:	f7ff f982 	bl	90000d14 <HAL_GetTick>
90001a10:	4602      	mov	r2, r0
90001a12:	6a7b      	ldr	r3, [r7, #36]	; 0x24
90001a14:	1ad3      	subs	r3, r2, r3
90001a16:	2b64      	cmp	r3, #100	; 0x64
90001a18:	d902      	bls.n	90001a20 <HAL_RCC_OscConfig+0x17c>
          {
            return HAL_TIMEOUT;
90001a1a:	2303      	movs	r3, #3
90001a1c:	f000 bcb1 	b.w	90002382 <HAL_RCC_OscConfig+0xade>
        while(__HAL_RCC_GET_FLAG(RCC_FLAG_HSERDY) == 0U)
90001a20:	4b53      	ldr	r3, [pc, #332]	; (90001b70 <HAL_RCC_OscConfig+0x2cc>)
90001a22:	681b      	ldr	r3, [r3, #0]
90001a24:	f403 3300 	and.w	r3, r3, #131072	; 0x20000
90001a28:	2b00      	cmp	r3, #0
90001a2a:	d0ef      	beq.n	90001a0c <HAL_RCC_OscConfig+0x168>
90001a2c:	e015      	b.n	90001a5a <HAL_RCC_OscConfig+0x1b6>
        }
      }
      else
      {
        /* Get Start Tick*/
        tickstart = HAL_GetTick();
90001a2e:	f7ff f971 	bl	90000d14 <HAL_GetTick>
90001a32:	6278      	str	r0, [r7, #36]	; 0x24

        /* Wait till HSE is disabled */
        while(__HAL_RCC_GET_FLAG(RCC_FLAG_HSERDY) != 0U)
90001a34:	e009      	b.n	90001a4a <HAL_RCC_OscConfig+0x1a6>
        {
          if((uint32_t) (HAL_GetTick() - tickstart ) > HSE_TIMEOUT_VALUE)
90001a36:	f7ff f96d 	bl	90000d14 <HAL_GetTick>
90001a3a:	4602      	mov	r2, r0
90001a3c:	6a7b      	ldr	r3, [r7, #36]	; 0x24
90001a3e:	1ad3      	subs	r3, r2, r3
90001a40:	2b64      	cmp	r3, #100	; 0x64
90001a42:	d902      	bls.n	90001a4a <HAL_RCC_OscConfig+0x1a6>
          {
            return HAL_TIMEOUT;
90001a44:	2303      	movs	r3, #3
90001a46:	f000 bc9c 	b.w	90002382 <HAL_RCC_OscConfig+0xade>
        while(__HAL_RCC_GET_FLAG(RCC_FLAG_HSERDY) != 0U)
90001a4a:	4b49      	ldr	r3, [pc, #292]	; (90001b70 <HAL_RCC_OscConfig+0x2cc>)
90001a4c:	681b      	ldr	r3, [r3, #0]
90001a4e:	f403 3300 	and.w	r3, r3, #131072	; 0x20000
90001a52:	2b00      	cmp	r3, #0
90001a54:	d1ef      	bne.n	90001a36 <HAL_RCC_OscConfig+0x192>
90001a56:	e000      	b.n	90001a5a <HAL_RCC_OscConfig+0x1b6>
      if((__HAL_RCC_GET_FLAG(RCC_FLAG_HSERDY) != 0U) && (RCC_OscInitStruct->HSEState == RCC_HSE_OFF))
90001a58:	bf00      	nop
        }
      }
    }
  }
  /*----------------------------- HSI Configuration --------------------------*/
  if(((RCC_OscInitStruct->OscillatorType) & RCC_OSCILLATORTYPE_HSI) == RCC_OSCILLATORTYPE_HSI)
90001a5a:	687b      	ldr	r3, [r7, #4]
90001a5c:	681b      	ldr	r3, [r3, #0]
90001a5e:	f003 0302 	and.w	r3, r3, #2
90001a62:	2b00      	cmp	r3, #0
90001a64:	f000 80f4 	beq.w	90001c50 <HAL_RCC_OscConfig+0x3ac>
  {
    /* Check the parameters */
    assert_param(IS_RCC_HSI(RCC_OscInitStruct->HSIState));
90001a68:	687b      	ldr	r3, [r7, #4]
90001a6a:	68db      	ldr	r3, [r3, #12]
90001a6c:	2b00      	cmp	r3, #0
90001a6e:	d018      	beq.n	90001aa2 <HAL_RCC_OscConfig+0x1fe>
90001a70:	687b      	ldr	r3, [r7, #4]
90001a72:	68db      	ldr	r3, [r3, #12]
90001a74:	2b01      	cmp	r3, #1
90001a76:	d014      	beq.n	90001aa2 <HAL_RCC_OscConfig+0x1fe>
90001a78:	687b      	ldr	r3, [r7, #4]
90001a7a:	68db      	ldr	r3, [r3, #12]
90001a7c:	2b01      	cmp	r3, #1
90001a7e:	d010      	beq.n	90001aa2 <HAL_RCC_OscConfig+0x1fe>
90001a80:	687b      	ldr	r3, [r7, #4]
90001a82:	68db      	ldr	r3, [r3, #12]
90001a84:	2b09      	cmp	r3, #9
90001a86:	d00c      	beq.n	90001aa2 <HAL_RCC_OscConfig+0x1fe>
90001a88:	687b      	ldr	r3, [r7, #4]
90001a8a:	68db      	ldr	r3, [r3, #12]
90001a8c:	2b11      	cmp	r3, #17
90001a8e:	d008      	beq.n	90001aa2 <HAL_RCC_OscConfig+0x1fe>
90001a90:	687b      	ldr	r3, [r7, #4]
90001a92:	68db      	ldr	r3, [r3, #12]
90001a94:	2b19      	cmp	r3, #25
90001a96:	d004      	beq.n	90001aa2 <HAL_RCC_OscConfig+0x1fe>
90001a98:	f44f 71ed 	mov.w	r1, #474	; 0x1da
90001a9c:	4833      	ldr	r0, [pc, #204]	; (90001b6c <HAL_RCC_OscConfig+0x2c8>)
90001a9e:	f7fe ff00 	bl	900008a2 <assert_failed>
    assert_param(IS_RCC_HSICALIBRATION_VALUE(RCC_OscInitStruct->HSICalibrationValue));
90001aa2:	687b      	ldr	r3, [r7, #4]
90001aa4:	691b      	ldr	r3, [r3, #16]
90001aa6:	2b7f      	cmp	r3, #127	; 0x7f
90001aa8:	d904      	bls.n	90001ab4 <HAL_RCC_OscConfig+0x210>
90001aaa:	f240 11db 	movw	r1, #475	; 0x1db
90001aae:	482f      	ldr	r0, [pc, #188]	; (90001b6c <HAL_RCC_OscConfig+0x2c8>)
90001ab0:	f7fe fef7 	bl	900008a2 <assert_failed>

    /* When the HSI is used as system clock it will not be disabled */
    const uint32_t temp_sysclksrc = __HAL_RCC_GET_SYSCLK_SOURCE();
90001ab4:	4b2e      	ldr	r3, [pc, #184]	; (90001b70 <HAL_RCC_OscConfig+0x2cc>)
90001ab6:	691b      	ldr	r3, [r3, #16]
90001ab8:	f003 0338 	and.w	r3, r3, #56	; 0x38
90001abc:	623b      	str	r3, [r7, #32]
    const uint32_t temp_pllckselr = RCC->PLLCKSELR;
90001abe:	4b2c      	ldr	r3, [pc, #176]	; (90001b70 <HAL_RCC_OscConfig+0x2cc>)
90001ac0:	6a9b      	ldr	r3, [r3, #40]	; 0x28
90001ac2:	61fb      	str	r3, [r7, #28]
    if((temp_sysclksrc == RCC_CFGR_SWS_HSI) || ((temp_sysclksrc == RCC_CFGR_SWS_PLL1) && ((temp_pllckselr & RCC_PLLCKSELR_PLLSRC) == RCC_PLLCKSELR_PLLSRC_HSI)))
90001ac4:	6a3b      	ldr	r3, [r7, #32]
90001ac6:	2b00      	cmp	r3, #0
90001ac8:	d007      	beq.n	90001ada <HAL_RCC_OscConfig+0x236>
90001aca:	6a3b      	ldr	r3, [r7, #32]
90001acc:	2b18      	cmp	r3, #24
90001ace:	d15c      	bne.n	90001b8a <HAL_RCC_OscConfig+0x2e6>
90001ad0:	69fb      	ldr	r3, [r7, #28]
90001ad2:	f003 0303 	and.w	r3, r3, #3
90001ad6:	2b00      	cmp	r3, #0
90001ad8:	d157      	bne.n	90001b8a <HAL_RCC_OscConfig+0x2e6>
    {
      /* When HSI is used as system clock it will not be disabled */
      if((__HAL_RCC_GET_FLAG(RCC_FLAG_HSIRDY) != 0U) && (RCC_OscInitStruct->HSIState == RCC_HSI_OFF))
90001ada:	4b25      	ldr	r3, [pc, #148]	; (90001b70 <HAL_RCC_OscConfig+0x2cc>)
90001adc:	681b      	ldr	r3, [r3, #0]
90001ade:	f003 0304 	and.w	r3, r3, #4
90001ae2:	2b00      	cmp	r3, #0
90001ae4:	d006      	beq.n	90001af4 <HAL_RCC_OscConfig+0x250>
90001ae6:	687b      	ldr	r3, [r7, #4]
90001ae8:	68db      	ldr	r3, [r3, #12]
90001aea:	2b00      	cmp	r3, #0
90001aec:	d102      	bne.n	90001af4 <HAL_RCC_OscConfig+0x250>
      {
        return HAL_ERROR;
90001aee:	2301      	movs	r3, #1
90001af0:	f000 bc47 	b.w	90002382 <HAL_RCC_OscConfig+0xade>
      }
      /* Otherwise, only HSI division and calibration are allowed */
      else
      {
          /* Enable the Internal High Speed oscillator (HSI, HSIDIV2, HSIDIV4, or HSIDIV8) */
          __HAL_RCC_HSI_CONFIG(RCC_OscInitStruct->HSIState);
90001af4:	4b1e      	ldr	r3, [pc, #120]	; (90001b70 <HAL_RCC_OscConfig+0x2cc>)
90001af6:	681b      	ldr	r3, [r3, #0]
90001af8:	f023 0219 	bic.w	r2, r3, #25
90001afc:	687b      	ldr	r3, [r7, #4]
90001afe:	68db      	ldr	r3, [r3, #12]
90001b00:	491b      	ldr	r1, [pc, #108]	; (90001b70 <HAL_RCC_OscConfig+0x2cc>)
90001b02:	4313      	orrs	r3, r2
90001b04:	600b      	str	r3, [r1, #0]

          /* Get Start Tick*/
          tickstart = HAL_GetTick();
90001b06:	f7ff f905 	bl	90000d14 <HAL_GetTick>
90001b0a:	6278      	str	r0, [r7, #36]	; 0x24

          /* Wait till HSI is ready */
          while(__HAL_RCC_GET_FLAG(RCC_FLAG_HSIRDY) == 0U)
90001b0c:	e009      	b.n	90001b22 <HAL_RCC_OscConfig+0x27e>
          {
            if((uint32_t) (HAL_GetTick() - tickstart ) > HSI_TIMEOUT_VALUE)
90001b0e:	f7ff f901 	bl	90000d14 <HAL_GetTick>
90001b12:	4602      	mov	r2, r0
90001b14:	6a7b      	ldr	r3, [r7, #36]	; 0x24
90001b16:	1ad3      	subs	r3, r2, r3
90001b18:	2b02      	cmp	r3, #2
90001b1a:	d902      	bls.n	90001b22 <HAL_RCC_OscConfig+0x27e>
            {
              return HAL_TIMEOUT;
90001b1c:	2303      	movs	r3, #3
90001b1e:	f000 bc30 	b.w	90002382 <HAL_RCC_OscConfig+0xade>
          while(__HAL_RCC_GET_FLAG(RCC_FLAG_HSIRDY) == 0U)
90001b22:	4b13      	ldr	r3, [pc, #76]	; (90001b70 <HAL_RCC_OscConfig+0x2cc>)
90001b24:	681b      	ldr	r3, [r3, #0]
90001b26:	f003 0304 	and.w	r3, r3, #4
90001b2a:	2b00      	cmp	r3, #0
90001b2c:	d0ef      	beq.n	90001b0e <HAL_RCC_OscConfig+0x26a>
            }
          }
        /* Adjusts the Internal High Speed oscillator (HSI) calibration value.*/
        __HAL_RCC_HSI_CALIBRATIONVALUE_ADJUST(RCC_OscInitStruct->HSICalibrationValue);
90001b2e:	f7ff f8fd 	bl	90000d2c <HAL_GetREVID>
90001b32:	4603      	mov	r3, r0
90001b34:	f241 0203 	movw	r2, #4099	; 0x1003
90001b38:	4293      	cmp	r3, r2
90001b3a:	d81b      	bhi.n	90001b74 <HAL_RCC_OscConfig+0x2d0>
90001b3c:	687b      	ldr	r3, [r7, #4]
90001b3e:	691b      	ldr	r3, [r3, #16]
90001b40:	2b40      	cmp	r3, #64	; 0x40
90001b42:	d108      	bne.n	90001b56 <HAL_RCC_OscConfig+0x2b2>
90001b44:	4b0a      	ldr	r3, [pc, #40]	; (90001b70 <HAL_RCC_OscConfig+0x2cc>)
90001b46:	685b      	ldr	r3, [r3, #4]
90001b48:	f423 337c 	bic.w	r3, r3, #258048	; 0x3f000
90001b4c:	4a08      	ldr	r2, [pc, #32]	; (90001b70 <HAL_RCC_OscConfig+0x2cc>)
90001b4e:	f443 3300 	orr.w	r3, r3, #131072	; 0x20000
90001b52:	6053      	str	r3, [r2, #4]
      if((__HAL_RCC_GET_FLAG(RCC_FLAG_HSIRDY) != 0U) && (RCC_OscInitStruct->HSIState == RCC_HSI_OFF))
90001b54:	e07c      	b.n	90001c50 <HAL_RCC_OscConfig+0x3ac>
        __HAL_RCC_HSI_CALIBRATIONVALUE_ADJUST(RCC_OscInitStruct->HSICalibrationValue);
90001b56:	4b06      	ldr	r3, [pc, #24]	; (90001b70 <HAL_RCC_OscConfig+0x2cc>)
90001b58:	685b      	ldr	r3, [r3, #4]
90001b5a:	f423 327c 	bic.w	r2, r3, #258048	; 0x3f000
90001b5e:	687b      	ldr	r3, [r7, #4]
90001b60:	691b      	ldr	r3, [r3, #16]
90001b62:	031b      	lsls	r3, r3, #12
90001b64:	4902      	ldr	r1, [pc, #8]	; (90001b70 <HAL_RCC_OscConfig+0x2cc>)
90001b66:	4313      	orrs	r3, r2
90001b68:	604b      	str	r3, [r1, #4]
      if((__HAL_RCC_GET_FLAG(RCC_FLAG_HSIRDY) != 0U) && (RCC_OscInitStruct->HSIState == RCC_HSI_OFF))
90001b6a:	e071      	b.n	90001c50 <HAL_RCC_OscConfig+0x3ac>
90001b6c:	900065c0 	.word	0x900065c0
90001b70:	58024400 	.word	0x58024400
        __HAL_RCC_HSI_CALIBRATIONVALUE_ADJUST(RCC_OscInitStruct->HSICalibrationValue);
90001b74:	4b96      	ldr	r3, [pc, #600]	; (90001dd0 <HAL_RCC_OscConfig+0x52c>)
90001b76:	685b      	ldr	r3, [r3, #4]
90001b78:	f023 42fe 	bic.w	r2, r3, #2130706432	; 0x7f000000
90001b7c:	687b      	ldr	r3, [r7, #4]
90001b7e:	691b      	ldr	r3, [r3, #16]
90001b80:	061b      	lsls	r3, r3, #24
90001b82:	4993      	ldr	r1, [pc, #588]	; (90001dd0 <HAL_RCC_OscConfig+0x52c>)
90001b84:	4313      	orrs	r3, r2
90001b86:	604b      	str	r3, [r1, #4]
      if((__HAL_RCC_GET_FLAG(RCC_FLAG_HSIRDY) != 0U) && (RCC_OscInitStruct->HSIState == RCC_HSI_OFF))
90001b88:	e062      	b.n	90001c50 <HAL_RCC_OscConfig+0x3ac>
    }

    else
    {
      /* Check the HSI State */
      if((RCC_OscInitStruct->HSIState)!= RCC_HSI_OFF)
90001b8a:	687b      	ldr	r3, [r7, #4]
90001b8c:	68db      	ldr	r3, [r3, #12]
90001b8e:	2b00      	cmp	r3, #0
90001b90:	d045      	beq.n	90001c1e <HAL_RCC_OscConfig+0x37a>
      {
     /* Enable the Internal High Speed oscillator (HSI, HSIDIV2,HSIDIV4, or HSIDIV8) */
        __HAL_RCC_HSI_CONFIG(RCC_OscInitStruct->HSIState);
90001b92:	4b8f      	ldr	r3, [pc, #572]	; (90001dd0 <HAL_RCC_OscConfig+0x52c>)
90001b94:	681b      	ldr	r3, [r3, #0]
90001b96:	f023 0219 	bic.w	r2, r3, #25
90001b9a:	687b      	ldr	r3, [r7, #4]
90001b9c:	68db      	ldr	r3, [r3, #12]
90001b9e:	498c      	ldr	r1, [pc, #560]	; (90001dd0 <HAL_RCC_OscConfig+0x52c>)
90001ba0:	4313      	orrs	r3, r2
90001ba2:	600b      	str	r3, [r1, #0]

        /* Get Start Tick*/
        tickstart = HAL_GetTick();
90001ba4:	f7ff f8b6 	bl	90000d14 <HAL_GetTick>
90001ba8:	6278      	str	r0, [r7, #36]	; 0x24

        /* Wait till HSI is ready */
        while(__HAL_RCC_GET_FLAG(RCC_FLAG_HSIRDY) == 0U)
90001baa:	e008      	b.n	90001bbe <HAL_RCC_OscConfig+0x31a>
        {
          if((HAL_GetTick() - tickstart ) > HSI_TIMEOUT_VALUE)
90001bac:	f7ff f8b2 	bl	90000d14 <HAL_GetTick>
90001bb0:	4602      	mov	r2, r0
90001bb2:	6a7b      	ldr	r3, [r7, #36]	; 0x24
90001bb4:	1ad3      	subs	r3, r2, r3
90001bb6:	2b02      	cmp	r3, #2
90001bb8:	d901      	bls.n	90001bbe <HAL_RCC_OscConfig+0x31a>
          {
            return HAL_TIMEOUT;
90001bba:	2303      	movs	r3, #3
90001bbc:	e3e1      	b.n	90002382 <HAL_RCC_OscConfig+0xade>
        while(__HAL_RCC_GET_FLAG(RCC_FLAG_HSIRDY) == 0U)
90001bbe:	4b84      	ldr	r3, [pc, #528]	; (90001dd0 <HAL_RCC_OscConfig+0x52c>)
90001bc0:	681b      	ldr	r3, [r3, #0]
90001bc2:	f003 0304 	and.w	r3, r3, #4
90001bc6:	2b00      	cmp	r3, #0
90001bc8:	d0f0      	beq.n	90001bac <HAL_RCC_OscConfig+0x308>
          }
        }

        /* Adjusts the Internal High Speed oscillator (HSI) calibration value.*/
        __HAL_RCC_HSI_CALIBRATIONVALUE_ADJUST(RCC_OscInitStruct->HSICalibrationValue);
90001bca:	f7ff f8af 	bl	90000d2c <HAL_GetREVID>
90001bce:	4603      	mov	r3, r0
90001bd0:	f241 0203 	movw	r2, #4099	; 0x1003
90001bd4:	4293      	cmp	r3, r2
90001bd6:	d817      	bhi.n	90001c08 <HAL_RCC_OscConfig+0x364>
90001bd8:	687b      	ldr	r3, [r7, #4]
90001bda:	691b      	ldr	r3, [r3, #16]
90001bdc:	2b40      	cmp	r3, #64	; 0x40
90001bde:	d108      	bne.n	90001bf2 <HAL_RCC_OscConfig+0x34e>
90001be0:	4b7b      	ldr	r3, [pc, #492]	; (90001dd0 <HAL_RCC_OscConfig+0x52c>)
90001be2:	685b      	ldr	r3, [r3, #4]
90001be4:	f423 337c 	bic.w	r3, r3, #258048	; 0x3f000
90001be8:	4a79      	ldr	r2, [pc, #484]	; (90001dd0 <HAL_RCC_OscConfig+0x52c>)
90001bea:	f443 3300 	orr.w	r3, r3, #131072	; 0x20000
90001bee:	6053      	str	r3, [r2, #4]
90001bf0:	e02e      	b.n	90001c50 <HAL_RCC_OscConfig+0x3ac>
90001bf2:	4b77      	ldr	r3, [pc, #476]	; (90001dd0 <HAL_RCC_OscConfig+0x52c>)
90001bf4:	685b      	ldr	r3, [r3, #4]
90001bf6:	f423 327c 	bic.w	r2, r3, #258048	; 0x3f000
90001bfa:	687b      	ldr	r3, [r7, #4]
90001bfc:	691b      	ldr	r3, [r3, #16]
90001bfe:	031b      	lsls	r3, r3, #12
90001c00:	4973      	ldr	r1, [pc, #460]	; (90001dd0 <HAL_RCC_OscConfig+0x52c>)
90001c02:	4313      	orrs	r3, r2
90001c04:	604b      	str	r3, [r1, #4]
90001c06:	e023      	b.n	90001c50 <HAL_RCC_OscConfig+0x3ac>
90001c08:	4b71      	ldr	r3, [pc, #452]	; (90001dd0 <HAL_RCC_OscConfig+0x52c>)
90001c0a:	685b      	ldr	r3, [r3, #4]
90001c0c:	f023 42fe 	bic.w	r2, r3, #2130706432	; 0x7f000000
90001c10:	687b      	ldr	r3, [r7, #4]
90001c12:	691b      	ldr	r3, [r3, #16]
90001c14:	061b      	lsls	r3, r3, #24
90001c16:	496e      	ldr	r1, [pc, #440]	; (90001dd0 <HAL_RCC_OscConfig+0x52c>)
90001c18:	4313      	orrs	r3, r2
90001c1a:	604b      	str	r3, [r1, #4]
90001c1c:	e018      	b.n	90001c50 <HAL_RCC_OscConfig+0x3ac>
      }
      else
      {
        /* Disable the Internal High Speed oscillator (HSI). */
        __HAL_RCC_HSI_DISABLE();
90001c1e:	4b6c      	ldr	r3, [pc, #432]	; (90001dd0 <HAL_RCC_OscConfig+0x52c>)
90001c20:	681b      	ldr	r3, [r3, #0]
90001c22:	4a6b      	ldr	r2, [pc, #428]	; (90001dd0 <HAL_RCC_OscConfig+0x52c>)
90001c24:	f023 0301 	bic.w	r3, r3, #1
90001c28:	6013      	str	r3, [r2, #0]

        /* Get Start Tick*/
        tickstart = HAL_GetTick();
90001c2a:	f7ff f873 	bl	90000d14 <HAL_GetTick>
90001c2e:	6278      	str	r0, [r7, #36]	; 0x24

        /* Wait till HSI is disabled */
        while(__HAL_RCC_GET_FLAG(RCC_FLAG_HSIRDY) != 0U)
90001c30:	e008      	b.n	90001c44 <HAL_RCC_OscConfig+0x3a0>
        {
          if((HAL_GetTick() - tickstart ) > HSI_TIMEOUT_VALUE)
90001c32:	f7ff f86f 	bl	90000d14 <HAL_GetTick>
90001c36:	4602      	mov	r2, r0
90001c38:	6a7b      	ldr	r3, [r7, #36]	; 0x24
90001c3a:	1ad3      	subs	r3, r2, r3
90001c3c:	2b02      	cmp	r3, #2
90001c3e:	d901      	bls.n	90001c44 <HAL_RCC_OscConfig+0x3a0>
          {
            return HAL_TIMEOUT;
90001c40:	2303      	movs	r3, #3
90001c42:	e39e      	b.n	90002382 <HAL_RCC_OscConfig+0xade>
        while(__HAL_RCC_GET_FLAG(RCC_FLAG_HSIRDY) != 0U)
90001c44:	4b62      	ldr	r3, [pc, #392]	; (90001dd0 <HAL_RCC_OscConfig+0x52c>)
90001c46:	681b      	ldr	r3, [r3, #0]
90001c48:	f003 0304 	and.w	r3, r3, #4
90001c4c:	2b00      	cmp	r3, #0
90001c4e:	d1f0      	bne.n	90001c32 <HAL_RCC_OscConfig+0x38e>
        }
      }
    }
  }
  /*----------------------------- CSI Configuration --------------------------*/
  if(((RCC_OscInitStruct->OscillatorType) & RCC_OSCILLATORTYPE_CSI) == RCC_OSCILLATORTYPE_CSI)
90001c50:	687b      	ldr	r3, [r7, #4]
90001c52:	681b      	ldr	r3, [r3, #0]
90001c54:	f003 0310 	and.w	r3, r3, #16
90001c58:	2b00      	cmp	r3, #0
90001c5a:	f000 80c3 	beq.w	90001de4 <HAL_RCC_OscConfig+0x540>
  {
    /* Check the parameters */
    assert_param(IS_RCC_CSI(RCC_OscInitStruct->CSIState));
90001c5e:	687b      	ldr	r3, [r7, #4]
90001c60:	69db      	ldr	r3, [r3, #28]
90001c62:	2b00      	cmp	r3, #0
90001c64:	d008      	beq.n	90001c78 <HAL_RCC_OscConfig+0x3d4>
90001c66:	687b      	ldr	r3, [r7, #4]
90001c68:	69db      	ldr	r3, [r3, #28]
90001c6a:	2b80      	cmp	r3, #128	; 0x80
90001c6c:	d004      	beq.n	90001c78 <HAL_RCC_OscConfig+0x3d4>
90001c6e:	f240 212b 	movw	r1, #555	; 0x22b
90001c72:	4858      	ldr	r0, [pc, #352]	; (90001dd4 <HAL_RCC_OscConfig+0x530>)
90001c74:	f7fe fe15 	bl	900008a2 <assert_failed>
    assert_param(IS_RCC_CSICALIBRATION_VALUE(RCC_OscInitStruct->CSICalibrationValue));
90001c78:	687b      	ldr	r3, [r7, #4]
90001c7a:	6a1b      	ldr	r3, [r3, #32]
90001c7c:	2b3f      	cmp	r3, #63	; 0x3f
90001c7e:	d904      	bls.n	90001c8a <HAL_RCC_OscConfig+0x3e6>
90001c80:	f44f 710b 	mov.w	r1, #556	; 0x22c
90001c84:	4853      	ldr	r0, [pc, #332]	; (90001dd4 <HAL_RCC_OscConfig+0x530>)
90001c86:	f7fe fe0c 	bl	900008a2 <assert_failed>

    /* When the CSI is used as system clock it will not disabled */
    const uint32_t temp_sysclksrc = __HAL_RCC_GET_SYSCLK_SOURCE();
90001c8a:	4b51      	ldr	r3, [pc, #324]	; (90001dd0 <HAL_RCC_OscConfig+0x52c>)
90001c8c:	691b      	ldr	r3, [r3, #16]
90001c8e:	f003 0338 	and.w	r3, r3, #56	; 0x38
90001c92:	61bb      	str	r3, [r7, #24]
    const uint32_t temp_pllckselr = RCC->PLLCKSELR;
90001c94:	4b4e      	ldr	r3, [pc, #312]	; (90001dd0 <HAL_RCC_OscConfig+0x52c>)
90001c96:	6a9b      	ldr	r3, [r3, #40]	; 0x28
90001c98:	617b      	str	r3, [r7, #20]
    if((temp_sysclksrc == RCC_CFGR_SWS_CSI) || ((temp_sysclksrc == RCC_CFGR_SWS_PLL1) && ((temp_pllckselr & RCC_PLLCKSELR_PLLSRC) == RCC_PLLCKSELR_PLLSRC_CSI)))
90001c9a:	69bb      	ldr	r3, [r7, #24]
90001c9c:	2b08      	cmp	r3, #8
90001c9e:	d007      	beq.n	90001cb0 <HAL_RCC_OscConfig+0x40c>
90001ca0:	69bb      	ldr	r3, [r7, #24]
90001ca2:	2b18      	cmp	r3, #24
90001ca4:	d13a      	bne.n	90001d1c <HAL_RCC_OscConfig+0x478>
90001ca6:	697b      	ldr	r3, [r7, #20]
90001ca8:	f003 0303 	and.w	r3, r3, #3
90001cac:	2b01      	cmp	r3, #1
90001cae:	d135      	bne.n	90001d1c <HAL_RCC_OscConfig+0x478>
    {
      /* When CSI is used as system clock it will not disabled */
      if((__HAL_RCC_GET_FLAG(RCC_FLAG_CSIRDY) != 0U) && (RCC_OscInitStruct->CSIState != RCC_CSI_ON))
90001cb0:	4b47      	ldr	r3, [pc, #284]	; (90001dd0 <HAL_RCC_OscConfig+0x52c>)
90001cb2:	681b      	ldr	r3, [r3, #0]
90001cb4:	f403 7380 	and.w	r3, r3, #256	; 0x100
90001cb8:	2b00      	cmp	r3, #0
90001cba:	d005      	beq.n	90001cc8 <HAL_RCC_OscConfig+0x424>
90001cbc:	687b      	ldr	r3, [r7, #4]
90001cbe:	69db      	ldr	r3, [r3, #28]
90001cc0:	2b80      	cmp	r3, #128	; 0x80
90001cc2:	d001      	beq.n	90001cc8 <HAL_RCC_OscConfig+0x424>
      {
        return HAL_ERROR;
90001cc4:	2301      	movs	r3, #1
90001cc6:	e35c      	b.n	90002382 <HAL_RCC_OscConfig+0xade>
      }
      /* Otherwise, just the calibration is allowed */
      else
      {
        /* Adjusts the Internal High Speed oscillator (CSI) calibration value.*/
        __HAL_RCC_CSI_CALIBRATIONVALUE_ADJUST(RCC_OscInitStruct->CSICalibrationValue);
90001cc8:	f7ff f830 	bl	90000d2c <HAL_GetREVID>
90001ccc:	4603      	mov	r3, r0
90001cce:	f241 0203 	movw	r2, #4099	; 0x1003
90001cd2:	4293      	cmp	r3, r2
90001cd4:	d817      	bhi.n	90001d06 <HAL_RCC_OscConfig+0x462>
90001cd6:	687b      	ldr	r3, [r7, #4]
90001cd8:	6a1b      	ldr	r3, [r3, #32]
90001cda:	2b20      	cmp	r3, #32
90001cdc:	d108      	bne.n	90001cf0 <HAL_RCC_OscConfig+0x44c>
90001cde:	4b3c      	ldr	r3, [pc, #240]	; (90001dd0 <HAL_RCC_OscConfig+0x52c>)
90001ce0:	685b      	ldr	r3, [r3, #4]
90001ce2:	f023 43f8 	bic.w	r3, r3, #2080374784	; 0x7c000000
90001ce6:	4a3a      	ldr	r2, [pc, #232]	; (90001dd0 <HAL_RCC_OscConfig+0x52c>)
90001ce8:	f043 4380 	orr.w	r3, r3, #1073741824	; 0x40000000
90001cec:	6053      	str	r3, [r2, #4]
      if((__HAL_RCC_GET_FLAG(RCC_FLAG_CSIRDY) != 0U) && (RCC_OscInitStruct->CSIState != RCC_CSI_ON))
90001cee:	e079      	b.n	90001de4 <HAL_RCC_OscConfig+0x540>
        __HAL_RCC_CSI_CALIBRATIONVALUE_ADJUST(RCC_OscInitStruct->CSICalibrationValue);
90001cf0:	4b37      	ldr	r3, [pc, #220]	; (90001dd0 <HAL_RCC_OscConfig+0x52c>)
90001cf2:	685b      	ldr	r3, [r3, #4]
90001cf4:	f023 42f8 	bic.w	r2, r3, #2080374784	; 0x7c000000
90001cf8:	687b      	ldr	r3, [r7, #4]
90001cfa:	6a1b      	ldr	r3, [r3, #32]
90001cfc:	069b      	lsls	r3, r3, #26
90001cfe:	4934      	ldr	r1, [pc, #208]	; (90001dd0 <HAL_RCC_OscConfig+0x52c>)
90001d00:	4313      	orrs	r3, r2
90001d02:	604b      	str	r3, [r1, #4]
      if((__HAL_RCC_GET_FLAG(RCC_FLAG_CSIRDY) != 0U) && (RCC_OscInitStruct->CSIState != RCC_CSI_ON))
90001d04:	e06e      	b.n	90001de4 <HAL_RCC_OscConfig+0x540>
        __HAL_RCC_CSI_CALIBRATIONVALUE_ADJUST(RCC_OscInitStruct->CSICalibrationValue);
90001d06:	4b32      	ldr	r3, [pc, #200]	; (90001dd0 <HAL_RCC_OscConfig+0x52c>)
90001d08:	68db      	ldr	r3, [r3, #12]
90001d0a:	f023 527c 	bic.w	r2, r3, #1056964608	; 0x3f000000
90001d0e:	687b      	ldr	r3, [r7, #4]
90001d10:	6a1b      	ldr	r3, [r3, #32]
90001d12:	061b      	lsls	r3, r3, #24
90001d14:	492e      	ldr	r1, [pc, #184]	; (90001dd0 <HAL_RCC_OscConfig+0x52c>)
90001d16:	4313      	orrs	r3, r2
90001d18:	60cb      	str	r3, [r1, #12]
      if((__HAL_RCC_GET_FLAG(RCC_FLAG_CSIRDY) != 0U) && (RCC_OscInitStruct->CSIState != RCC_CSI_ON))
90001d1a:	e063      	b.n	90001de4 <HAL_RCC_OscConfig+0x540>
      }
    }
    else
    {
      /* Check the CSI State */
      if((RCC_OscInitStruct->CSIState)!= RCC_CSI_OFF)
90001d1c:	687b      	ldr	r3, [r7, #4]
90001d1e:	69db      	ldr	r3, [r3, #28]
90001d20:	2b00      	cmp	r3, #0
90001d22:	d042      	beq.n	90001daa <HAL_RCC_OscConfig+0x506>
      {
        /* Enable the Internal High Speed oscillator (CSI). */
        __HAL_RCC_CSI_ENABLE();
90001d24:	4b2a      	ldr	r3, [pc, #168]	; (90001dd0 <HAL_RCC_OscConfig+0x52c>)
90001d26:	681b      	ldr	r3, [r3, #0]
90001d28:	4a29      	ldr	r2, [pc, #164]	; (90001dd0 <HAL_RCC_OscConfig+0x52c>)
90001d2a:	f043 0380 	orr.w	r3, r3, #128	; 0x80
90001d2e:	6013      	str	r3, [r2, #0]

        /* Get Start Tick*/
        tickstart = HAL_GetTick();
90001d30:	f7fe fff0 	bl	90000d14 <HAL_GetTick>
90001d34:	6278      	str	r0, [r7, #36]	; 0x24

        /* Wait till CSI is ready */
        while(__HAL_RCC_GET_FLAG(RCC_FLAG_CSIRDY) == 0U)
90001d36:	e008      	b.n	90001d4a <HAL_RCC_OscConfig+0x4a6>
        {
          if((HAL_GetTick() - tickstart ) > CSI_TIMEOUT_VALUE)
90001d38:	f7fe ffec 	bl	90000d14 <HAL_GetTick>
90001d3c:	4602      	mov	r2, r0
90001d3e:	6a7b      	ldr	r3, [r7, #36]	; 0x24
90001d40:	1ad3      	subs	r3, r2, r3
90001d42:	2b02      	cmp	r3, #2
90001d44:	d901      	bls.n	90001d4a <HAL_RCC_OscConfig+0x4a6>
          {
            return HAL_TIMEOUT;
90001d46:	2303      	movs	r3, #3
90001d48:	e31b      	b.n	90002382 <HAL_RCC_OscConfig+0xade>
        while(__HAL_RCC_GET_FLAG(RCC_FLAG_CSIRDY) == 0U)
90001d4a:	4b21      	ldr	r3, [pc, #132]	; (90001dd0 <HAL_RCC_OscConfig+0x52c>)
90001d4c:	681b      	ldr	r3, [r3, #0]
90001d4e:	f403 7380 	and.w	r3, r3, #256	; 0x100
90001d52:	2b00      	cmp	r3, #0
90001d54:	d0f0      	beq.n	90001d38 <HAL_RCC_OscConfig+0x494>
          }
        }

        /* Adjusts the Internal High Speed oscillator (CSI) calibration value.*/
        __HAL_RCC_CSI_CALIBRATIONVALUE_ADJUST(RCC_OscInitStruct->CSICalibrationValue);
90001d56:	f7fe ffe9 	bl	90000d2c <HAL_GetREVID>
90001d5a:	4603      	mov	r3, r0
90001d5c:	f241 0203 	movw	r2, #4099	; 0x1003
90001d60:	4293      	cmp	r3, r2
90001d62:	d817      	bhi.n	90001d94 <HAL_RCC_OscConfig+0x4f0>
90001d64:	687b      	ldr	r3, [r7, #4]
90001d66:	6a1b      	ldr	r3, [r3, #32]
90001d68:	2b20      	cmp	r3, #32
90001d6a:	d108      	bne.n	90001d7e <HAL_RCC_OscConfig+0x4da>
90001d6c:	4b18      	ldr	r3, [pc, #96]	; (90001dd0 <HAL_RCC_OscConfig+0x52c>)
90001d6e:	685b      	ldr	r3, [r3, #4]
90001d70:	f023 43f8 	bic.w	r3, r3, #2080374784	; 0x7c000000
90001d74:	4a16      	ldr	r2, [pc, #88]	; (90001dd0 <HAL_RCC_OscConfig+0x52c>)
90001d76:	f043 4380 	orr.w	r3, r3, #1073741824	; 0x40000000
90001d7a:	6053      	str	r3, [r2, #4]
90001d7c:	e032      	b.n	90001de4 <HAL_RCC_OscConfig+0x540>
90001d7e:	4b14      	ldr	r3, [pc, #80]	; (90001dd0 <HAL_RCC_OscConfig+0x52c>)
90001d80:	685b      	ldr	r3, [r3, #4]
90001d82:	f023 42f8 	bic.w	r2, r3, #2080374784	; 0x7c000000
90001d86:	687b      	ldr	r3, [r7, #4]
90001d88:	6a1b      	ldr	r3, [r3, #32]
90001d8a:	069b      	lsls	r3, r3, #26
90001d8c:	4910      	ldr	r1, [pc, #64]	; (90001dd0 <HAL_RCC_OscConfig+0x52c>)
90001d8e:	4313      	orrs	r3, r2
90001d90:	604b      	str	r3, [r1, #4]
90001d92:	e027      	b.n	90001de4 <HAL_RCC_OscConfig+0x540>
90001d94:	4b0e      	ldr	r3, [pc, #56]	; (90001dd0 <HAL_RCC_OscConfig+0x52c>)
90001d96:	68db      	ldr	r3, [r3, #12]
90001d98:	f023 527c 	bic.w	r2, r3, #1056964608	; 0x3f000000
90001d9c:	687b      	ldr	r3, [r7, #4]
90001d9e:	6a1b      	ldr	r3, [r3, #32]
90001da0:	061b      	lsls	r3, r3, #24
90001da2:	490b      	ldr	r1, [pc, #44]	; (90001dd0 <HAL_RCC_OscConfig+0x52c>)
90001da4:	4313      	orrs	r3, r2
90001da6:	60cb      	str	r3, [r1, #12]
90001da8:	e01c      	b.n	90001de4 <HAL_RCC_OscConfig+0x540>
      }
      else
      {
        /* Disable the Internal High Speed oscillator (CSI). */
        __HAL_RCC_CSI_DISABLE();
90001daa:	4b09      	ldr	r3, [pc, #36]	; (90001dd0 <HAL_RCC_OscConfig+0x52c>)
90001dac:	681b      	ldr	r3, [r3, #0]
90001dae:	4a08      	ldr	r2, [pc, #32]	; (90001dd0 <HAL_RCC_OscConfig+0x52c>)
90001db0:	f023 0380 	bic.w	r3, r3, #128	; 0x80
90001db4:	6013      	str	r3, [r2, #0]

        /* Get Start Tick*/
        tickstart = HAL_GetTick();
90001db6:	f7fe ffad 	bl	90000d14 <HAL_GetTick>
90001dba:	6278      	str	r0, [r7, #36]	; 0x24

        /* Wait till CSI is disabled */
        while(__HAL_RCC_GET_FLAG(RCC_FLAG_CSIRDY) != 0U)
90001dbc:	e00c      	b.n	90001dd8 <HAL_RCC_OscConfig+0x534>
        {
          if((HAL_GetTick() - tickstart ) > CSI_TIMEOUT_VALUE)
90001dbe:	f7fe ffa9 	bl	90000d14 <HAL_GetTick>
90001dc2:	4602      	mov	r2, r0
90001dc4:	6a7b      	ldr	r3, [r7, #36]	; 0x24
90001dc6:	1ad3      	subs	r3, r2, r3
90001dc8:	2b02      	cmp	r3, #2
90001dca:	d905      	bls.n	90001dd8 <HAL_RCC_OscConfig+0x534>
          {
            return HAL_TIMEOUT;
90001dcc:	2303      	movs	r3, #3
90001dce:	e2d8      	b.n	90002382 <HAL_RCC_OscConfig+0xade>
90001dd0:	58024400 	.word	0x58024400
90001dd4:	900065c0 	.word	0x900065c0
        while(__HAL_RCC_GET_FLAG(RCC_FLAG_CSIRDY) != 0U)
90001dd8:	4b96      	ldr	r3, [pc, #600]	; (90002034 <HAL_RCC_OscConfig+0x790>)
90001dda:	681b      	ldr	r3, [r3, #0]
90001ddc:	f403 7380 	and.w	r3, r3, #256	; 0x100
90001de0:	2b00      	cmp	r3, #0
90001de2:	d1ec      	bne.n	90001dbe <HAL_RCC_OscConfig+0x51a>
        }
      }
    }
  }
  /*------------------------------ LSI Configuration -------------------------*/
  if(((RCC_OscInitStruct->OscillatorType) & RCC_OSCILLATORTYPE_LSI) == RCC_OSCILLATORTYPE_LSI)
90001de4:	687b      	ldr	r3, [r7, #4]
90001de6:	681b      	ldr	r3, [r3, #0]
90001de8:	f003 0308 	and.w	r3, r3, #8
90001dec:	2b00      	cmp	r3, #0
90001dee:	d043      	beq.n	90001e78 <HAL_RCC_OscConfig+0x5d4>
  {
    /* Check the parameters */
    assert_param(IS_RCC_LSI(RCC_OscInitStruct->LSIState));
90001df0:	687b      	ldr	r3, [r7, #4]
90001df2:	695b      	ldr	r3, [r3, #20]
90001df4:	2b00      	cmp	r3, #0
90001df6:	d008      	beq.n	90001e0a <HAL_RCC_OscConfig+0x566>
90001df8:	687b      	ldr	r3, [r7, #4]
90001dfa:	695b      	ldr	r3, [r3, #20]
90001dfc:	2b01      	cmp	r3, #1
90001dfe:	d004      	beq.n	90001e0a <HAL_RCC_OscConfig+0x566>
90001e00:	f240 216d 	movw	r1, #621	; 0x26d
90001e04:	488c      	ldr	r0, [pc, #560]	; (90002038 <HAL_RCC_OscConfig+0x794>)
90001e06:	f7fe fd4c 	bl	900008a2 <assert_failed>

    /* Check the LSI State */
    if((RCC_OscInitStruct->LSIState)!= RCC_LSI_OFF)
90001e0a:	687b      	ldr	r3, [r7, #4]
90001e0c:	695b      	ldr	r3, [r3, #20]
90001e0e:	2b00      	cmp	r3, #0
90001e10:	d019      	beq.n	90001e46 <HAL_RCC_OscConfig+0x5a2>
    {
      /* Enable the Internal Low Speed oscillator (LSI). */
      __HAL_RCC_LSI_ENABLE();
90001e12:	4b88      	ldr	r3, [pc, #544]	; (90002034 <HAL_RCC_OscConfig+0x790>)
90001e14:	6f5b      	ldr	r3, [r3, #116]	; 0x74
90001e16:	4a87      	ldr	r2, [pc, #540]	; (90002034 <HAL_RCC_OscConfig+0x790>)
90001e18:	f043 0301 	orr.w	r3, r3, #1
90001e1c:	6753      	str	r3, [r2, #116]	; 0x74

      /* Get Start Tick*/
      tickstart = HAL_GetTick();
90001e1e:	f7fe ff79 	bl	90000d14 <HAL_GetTick>
90001e22:	6278      	str	r0, [r7, #36]	; 0x24

      /* Wait till LSI is ready */
      while(__HAL_RCC_GET_FLAG(RCC_FLAG_LSIRDY) == 0U)
90001e24:	e008      	b.n	90001e38 <HAL_RCC_OscConfig+0x594>
      {
        if((HAL_GetTick() - tickstart ) > LSI_TIMEOUT_VALUE)
90001e26:	f7fe ff75 	bl	90000d14 <HAL_GetTick>
90001e2a:	4602      	mov	r2, r0
90001e2c:	6a7b      	ldr	r3, [r7, #36]	; 0x24
90001e2e:	1ad3      	subs	r3, r2, r3
90001e30:	2b02      	cmp	r3, #2
90001e32:	d901      	bls.n	90001e38 <HAL_RCC_OscConfig+0x594>
        {
          return HAL_TIMEOUT;
90001e34:	2303      	movs	r3, #3
90001e36:	e2a4      	b.n	90002382 <HAL_RCC_OscConfig+0xade>
      while(__HAL_RCC_GET_FLAG(RCC_FLAG_LSIRDY) == 0U)
90001e38:	4b7e      	ldr	r3, [pc, #504]	; (90002034 <HAL_RCC_OscConfig+0x790>)
90001e3a:	6f5b      	ldr	r3, [r3, #116]	; 0x74
90001e3c:	f003 0302 	and.w	r3, r3, #2
90001e40:	2b00      	cmp	r3, #0
90001e42:	d0f0      	beq.n	90001e26 <HAL_RCC_OscConfig+0x582>
90001e44:	e018      	b.n	90001e78 <HAL_RCC_OscConfig+0x5d4>
      }
    }
    else
    {
      /* Disable the Internal Low Speed oscillator (LSI). */
      __HAL_RCC_LSI_DISABLE();
90001e46:	4b7b      	ldr	r3, [pc, #492]	; (90002034 <HAL_RCC_OscConfig+0x790>)
90001e48:	6f5b      	ldr	r3, [r3, #116]	; 0x74
90001e4a:	4a7a      	ldr	r2, [pc, #488]	; (90002034 <HAL_RCC_OscConfig+0x790>)
90001e4c:	f023 0301 	bic.w	r3, r3, #1
90001e50:	6753      	str	r3, [r2, #116]	; 0x74

      /* Get Start Tick*/
      tickstart = HAL_GetTick();
90001e52:	f7fe ff5f 	bl	90000d14 <HAL_GetTick>
90001e56:	6278      	str	r0, [r7, #36]	; 0x24

      /* Wait till LSI is ready */
      while(__HAL_RCC_GET_FLAG(RCC_FLAG_LSIRDY) != 0U)
90001e58:	e008      	b.n	90001e6c <HAL_RCC_OscConfig+0x5c8>
      {
        if((HAL_GetTick() - tickstart ) > LSI_TIMEOUT_VALUE)
90001e5a:	f7fe ff5b 	bl	90000d14 <HAL_GetTick>
90001e5e:	4602      	mov	r2, r0
90001e60:	6a7b      	ldr	r3, [r7, #36]	; 0x24
90001e62:	1ad3      	subs	r3, r2, r3
90001e64:	2b02      	cmp	r3, #2
90001e66:	d901      	bls.n	90001e6c <HAL_RCC_OscConfig+0x5c8>
        {
          return HAL_TIMEOUT;
90001e68:	2303      	movs	r3, #3
90001e6a:	e28a      	b.n	90002382 <HAL_RCC_OscConfig+0xade>
      while(__HAL_RCC_GET_FLAG(RCC_FLAG_LSIRDY) != 0U)
90001e6c:	4b71      	ldr	r3, [pc, #452]	; (90002034 <HAL_RCC_OscConfig+0x790>)
90001e6e:	6f5b      	ldr	r3, [r3, #116]	; 0x74
90001e70:	f003 0302 	and.w	r3, r3, #2
90001e74:	2b00      	cmp	r3, #0
90001e76:	d1f0      	bne.n	90001e5a <HAL_RCC_OscConfig+0x5b6>
      }
    }
  }

  /*------------------------------ HSI48 Configuration -------------------------*/
  if(((RCC_OscInitStruct->OscillatorType) & RCC_OSCILLATORTYPE_HSI48) == RCC_OSCILLATORTYPE_HSI48)
90001e78:	687b      	ldr	r3, [r7, #4]
90001e7a:	681b      	ldr	r3, [r3, #0]
90001e7c:	f003 0320 	and.w	r3, r3, #32
90001e80:	2b00      	cmp	r3, #0
90001e82:	d043      	beq.n	90001f0c <HAL_RCC_OscConfig+0x668>
  {
    /* Check the parameters */
    assert_param(IS_RCC_HSI48(RCC_OscInitStruct->HSI48State));
90001e84:	687b      	ldr	r3, [r7, #4]
90001e86:	699b      	ldr	r3, [r3, #24]
90001e88:	2b00      	cmp	r3, #0
90001e8a:	d008      	beq.n	90001e9e <HAL_RCC_OscConfig+0x5fa>
90001e8c:	687b      	ldr	r3, [r7, #4]
90001e8e:	699b      	ldr	r3, [r3, #24]
90001e90:	2b01      	cmp	r3, #1
90001e92:	d004      	beq.n	90001e9e <HAL_RCC_OscConfig+0x5fa>
90001e94:	f44f 7126 	mov.w	r1, #664	; 0x298
90001e98:	4867      	ldr	r0, [pc, #412]	; (90002038 <HAL_RCC_OscConfig+0x794>)
90001e9a:	f7fe fd02 	bl	900008a2 <assert_failed>

    /* Check the HSI48 State */
    if((RCC_OscInitStruct->HSI48State)!= RCC_HSI48_OFF)
90001e9e:	687b      	ldr	r3, [r7, #4]
90001ea0:	699b      	ldr	r3, [r3, #24]
90001ea2:	2b00      	cmp	r3, #0
90001ea4:	d019      	beq.n	90001eda <HAL_RCC_OscConfig+0x636>
    {
      /* Enable the Internal Low Speed oscillator (HSI48). */
      __HAL_RCC_HSI48_ENABLE();
90001ea6:	4b63      	ldr	r3, [pc, #396]	; (90002034 <HAL_RCC_OscConfig+0x790>)
90001ea8:	681b      	ldr	r3, [r3, #0]
90001eaa:	4a62      	ldr	r2, [pc, #392]	; (90002034 <HAL_RCC_OscConfig+0x790>)
90001eac:	f443 5380 	orr.w	r3, r3, #4096	; 0x1000
90001eb0:	6013      	str	r3, [r2, #0]

      /* Get time-out */
      tickstart = HAL_GetTick();
90001eb2:	f7fe ff2f 	bl	90000d14 <HAL_GetTick>
90001eb6:	6278      	str	r0, [r7, #36]	; 0x24

      /* Wait till HSI48 is ready */
      while(__HAL_RCC_GET_FLAG(RCC_FLAG_HSI48RDY) == 0U)
90001eb8:	e008      	b.n	90001ecc <HAL_RCC_OscConfig+0x628>
      {
        if((HAL_GetTick() - tickstart ) > HSI48_TIMEOUT_VALUE)
90001eba:	f7fe ff2b 	bl	90000d14 <HAL_GetTick>
90001ebe:	4602      	mov	r2, r0
90001ec0:	6a7b      	ldr	r3, [r7, #36]	; 0x24
90001ec2:	1ad3      	subs	r3, r2, r3
90001ec4:	2b02      	cmp	r3, #2
90001ec6:	d901      	bls.n	90001ecc <HAL_RCC_OscConfig+0x628>
        {
          return HAL_TIMEOUT;
90001ec8:	2303      	movs	r3, #3
90001eca:	e25a      	b.n	90002382 <HAL_RCC_OscConfig+0xade>
      while(__HAL_RCC_GET_FLAG(RCC_FLAG_HSI48RDY) == 0U)
90001ecc:	4b59      	ldr	r3, [pc, #356]	; (90002034 <HAL_RCC_OscConfig+0x790>)
90001ece:	681b      	ldr	r3, [r3, #0]
90001ed0:	f403 5300 	and.w	r3, r3, #8192	; 0x2000
90001ed4:	2b00      	cmp	r3, #0
90001ed6:	d0f0      	beq.n	90001eba <HAL_RCC_OscConfig+0x616>
90001ed8:	e018      	b.n	90001f0c <HAL_RCC_OscConfig+0x668>
      }
    }
    else
    {
      /* Disable the Internal Low Speed oscillator (HSI48). */
      __HAL_RCC_HSI48_DISABLE();
90001eda:	4b56      	ldr	r3, [pc, #344]	; (90002034 <HAL_RCC_OscConfig+0x790>)
90001edc:	681b      	ldr	r3, [r3, #0]
90001ede:	4a55      	ldr	r2, [pc, #340]	; (90002034 <HAL_RCC_OscConfig+0x790>)
90001ee0:	f423 5380 	bic.w	r3, r3, #4096	; 0x1000
90001ee4:	6013      	str	r3, [r2, #0]

      /* Get time-out */
      tickstart = HAL_GetTick();
90001ee6:	f7fe ff15 	bl	90000d14 <HAL_GetTick>
90001eea:	6278      	str	r0, [r7, #36]	; 0x24

      /* Wait till HSI48 is ready */
      while(__HAL_RCC_GET_FLAG(RCC_FLAG_HSI48RDY) != 0U)
90001eec:	e008      	b.n	90001f00 <HAL_RCC_OscConfig+0x65c>
      {
        if((HAL_GetTick() - tickstart ) > HSI48_TIMEOUT_VALUE)
90001eee:	f7fe ff11 	bl	90000d14 <HAL_GetTick>
90001ef2:	4602      	mov	r2, r0
90001ef4:	6a7b      	ldr	r3, [r7, #36]	; 0x24
90001ef6:	1ad3      	subs	r3, r2, r3
90001ef8:	2b02      	cmp	r3, #2
90001efa:	d901      	bls.n	90001f00 <HAL_RCC_OscConfig+0x65c>
        {
          return HAL_TIMEOUT;
90001efc:	2303      	movs	r3, #3
90001efe:	e240      	b.n	90002382 <HAL_RCC_OscConfig+0xade>
      while(__HAL_RCC_GET_FLAG(RCC_FLAG_HSI48RDY) != 0U)
90001f00:	4b4c      	ldr	r3, [pc, #304]	; (90002034 <HAL_RCC_OscConfig+0x790>)
90001f02:	681b      	ldr	r3, [r3, #0]
90001f04:	f403 5300 	and.w	r3, r3, #8192	; 0x2000
90001f08:	2b00      	cmp	r3, #0
90001f0a:	d1f0      	bne.n	90001eee <HAL_RCC_OscConfig+0x64a>
        }
      }
    }
  }
  /*------------------------------ LSE Configuration -------------------------*/
  if(((RCC_OscInitStruct->OscillatorType) & RCC_OSCILLATORTYPE_LSE) == RCC_OSCILLATORTYPE_LSE)
90001f0c:	687b      	ldr	r3, [r7, #4]
90001f0e:	681b      	ldr	r3, [r3, #0]
90001f10:	f003 0304 	and.w	r3, r3, #4
90001f14:	2b00      	cmp	r3, #0
90001f16:	f000 8099 	beq.w	9000204c <HAL_RCC_OscConfig+0x7a8>
  {
    /* Check the parameters */
    assert_param(IS_RCC_LSE(RCC_OscInitStruct->LSEState));
90001f1a:	687b      	ldr	r3, [r7, #4]
90001f1c:	689b      	ldr	r3, [r3, #8]
90001f1e:	2b00      	cmp	r3, #0
90001f20:	d00c      	beq.n	90001f3c <HAL_RCC_OscConfig+0x698>
90001f22:	687b      	ldr	r3, [r7, #4]
90001f24:	689b      	ldr	r3, [r3, #8]
90001f26:	2b01      	cmp	r3, #1
90001f28:	d008      	beq.n	90001f3c <HAL_RCC_OscConfig+0x698>
90001f2a:	687b      	ldr	r3, [r7, #4]
90001f2c:	689b      	ldr	r3, [r3, #8]
90001f2e:	2b05      	cmp	r3, #5
90001f30:	d004      	beq.n	90001f3c <HAL_RCC_OscConfig+0x698>
90001f32:	f240 21c2 	movw	r1, #706	; 0x2c2
90001f36:	4840      	ldr	r0, [pc, #256]	; (90002038 <HAL_RCC_OscConfig+0x794>)
90001f38:	f7fe fcb3 	bl	900008a2 <assert_failed>

    /* Enable write access to Backup domain */
    PWR->CR1 |= PWR_CR1_DBP;
90001f3c:	4b3f      	ldr	r3, [pc, #252]	; (9000203c <HAL_RCC_OscConfig+0x798>)
90001f3e:	681b      	ldr	r3, [r3, #0]
90001f40:	4a3e      	ldr	r2, [pc, #248]	; (9000203c <HAL_RCC_OscConfig+0x798>)
90001f42:	f443 7380 	orr.w	r3, r3, #256	; 0x100
90001f46:	6013      	str	r3, [r2, #0]

    /* Wait for Backup domain Write protection disable */
    tickstart = HAL_GetTick();
90001f48:	f7fe fee4 	bl	90000d14 <HAL_GetTick>
90001f4c:	6278      	str	r0, [r7, #36]	; 0x24

    while((PWR->CR1 & PWR_CR1_DBP) == 0U)
90001f4e:	e008      	b.n	90001f62 <HAL_RCC_OscConfig+0x6be>
    {
      if((HAL_GetTick() - tickstart ) > RCC_DBP_TIMEOUT_VALUE)
90001f50:	f7fe fee0 	bl	90000d14 <HAL_GetTick>
90001f54:	4602      	mov	r2, r0
90001f56:	6a7b      	ldr	r3, [r7, #36]	; 0x24
90001f58:	1ad3      	subs	r3, r2, r3
90001f5a:	2b64      	cmp	r3, #100	; 0x64
90001f5c:	d901      	bls.n	90001f62 <HAL_RCC_OscConfig+0x6be>
      {
        return HAL_TIMEOUT;
90001f5e:	2303      	movs	r3, #3
90001f60:	e20f      	b.n	90002382 <HAL_RCC_OscConfig+0xade>
    while((PWR->CR1 & PWR_CR1_DBP) == 0U)
90001f62:	4b36      	ldr	r3, [pc, #216]	; (9000203c <HAL_RCC_OscConfig+0x798>)
90001f64:	681b      	ldr	r3, [r3, #0]
90001f66:	f403 7380 	and.w	r3, r3, #256	; 0x100
90001f6a:	2b00      	cmp	r3, #0
90001f6c:	d0f0      	beq.n	90001f50 <HAL_RCC_OscConfig+0x6ac>
      }
    }

    /* Set the new LSE configuration -----------------------------------------*/
    __HAL_RCC_LSE_CONFIG(RCC_OscInitStruct->LSEState);
90001f6e:	687b      	ldr	r3, [r7, #4]
90001f70:	689b      	ldr	r3, [r3, #8]
90001f72:	2b01      	cmp	r3, #1
90001f74:	d106      	bne.n	90001f84 <HAL_RCC_OscConfig+0x6e0>
90001f76:	4b2f      	ldr	r3, [pc, #188]	; (90002034 <HAL_RCC_OscConfig+0x790>)
90001f78:	6f1b      	ldr	r3, [r3, #112]	; 0x70
90001f7a:	4a2e      	ldr	r2, [pc, #184]	; (90002034 <HAL_RCC_OscConfig+0x790>)
90001f7c:	f043 0301 	orr.w	r3, r3, #1
90001f80:	6713      	str	r3, [r2, #112]	; 0x70
90001f82:	e02d      	b.n	90001fe0 <HAL_RCC_OscConfig+0x73c>
90001f84:	687b      	ldr	r3, [r7, #4]
90001f86:	689b      	ldr	r3, [r3, #8]
90001f88:	2b00      	cmp	r3, #0
90001f8a:	d10c      	bne.n	90001fa6 <HAL_RCC_OscConfig+0x702>
90001f8c:	4b29      	ldr	r3, [pc, #164]	; (90002034 <HAL_RCC_OscConfig+0x790>)
90001f8e:	6f1b      	ldr	r3, [r3, #112]	; 0x70
90001f90:	4a28      	ldr	r2, [pc, #160]	; (90002034 <HAL_RCC_OscConfig+0x790>)
90001f92:	f023 0301 	bic.w	r3, r3, #1
90001f96:	6713      	str	r3, [r2, #112]	; 0x70
90001f98:	4b26      	ldr	r3, [pc, #152]	; (90002034 <HAL_RCC_OscConfig+0x790>)
90001f9a:	6f1b      	ldr	r3, [r3, #112]	; 0x70
90001f9c:	4a25      	ldr	r2, [pc, #148]	; (90002034 <HAL_RCC_OscConfig+0x790>)
90001f9e:	f023 0304 	bic.w	r3, r3, #4
90001fa2:	6713      	str	r3, [r2, #112]	; 0x70
90001fa4:	e01c      	b.n	90001fe0 <HAL_RCC_OscConfig+0x73c>
90001fa6:	687b      	ldr	r3, [r7, #4]
90001fa8:	689b      	ldr	r3, [r3, #8]
90001faa:	2b05      	cmp	r3, #5
90001fac:	d10c      	bne.n	90001fc8 <HAL_RCC_OscConfig+0x724>
90001fae:	4b21      	ldr	r3, [pc, #132]	; (90002034 <HAL_RCC_OscConfig+0x790>)
90001fb0:	6f1b      	ldr	r3, [r3, #112]	; 0x70
90001fb2:	4a20      	ldr	r2, [pc, #128]	; (90002034 <HAL_RCC_OscConfig+0x790>)
90001fb4:	f043 0304 	orr.w	r3, r3, #4
90001fb8:	6713      	str	r3, [r2, #112]	; 0x70
90001fba:	4b1e      	ldr	r3, [pc, #120]	; (90002034 <HAL_RCC_OscConfig+0x790>)
90001fbc:	6f1b      	ldr	r3, [r3, #112]	; 0x70
90001fbe:	4a1d      	ldr	r2, [pc, #116]	; (90002034 <HAL_RCC_OscConfig+0x790>)
90001fc0:	f043 0301 	orr.w	r3, r3, #1
90001fc4:	6713      	str	r3, [r2, #112]	; 0x70
90001fc6:	e00b      	b.n	90001fe0 <HAL_RCC_OscConfig+0x73c>
90001fc8:	4b1a      	ldr	r3, [pc, #104]	; (90002034 <HAL_RCC_OscConfig+0x790>)
90001fca:	6f1b      	ldr	r3, [r3, #112]	; 0x70
90001fcc:	4a19      	ldr	r2, [pc, #100]	; (90002034 <HAL_RCC_OscConfig+0x790>)
90001fce:	f023 0301 	bic.w	r3, r3, #1
90001fd2:	6713      	str	r3, [r2, #112]	; 0x70
90001fd4:	4b17      	ldr	r3, [pc, #92]	; (90002034 <HAL_RCC_OscConfig+0x790>)
90001fd6:	6f1b      	ldr	r3, [r3, #112]	; 0x70
90001fd8:	4a16      	ldr	r2, [pc, #88]	; (90002034 <HAL_RCC_OscConfig+0x790>)
90001fda:	f023 0304 	bic.w	r3, r3, #4
90001fde:	6713      	str	r3, [r2, #112]	; 0x70
    /* Check the LSE State */
    if((RCC_OscInitStruct->LSEState) != RCC_LSE_OFF)
90001fe0:	687b      	ldr	r3, [r7, #4]
90001fe2:	689b      	ldr	r3, [r3, #8]
90001fe4:	2b00      	cmp	r3, #0
90001fe6:	d015      	beq.n	90002014 <HAL_RCC_OscConfig+0x770>
    {
      /* Get Start Tick*/
      tickstart = HAL_GetTick();
90001fe8:	f7fe fe94 	bl	90000d14 <HAL_GetTick>
90001fec:	6278      	str	r0, [r7, #36]	; 0x24

      /* Wait till LSE is ready */
      while(__HAL_RCC_GET_FLAG(RCC_FLAG_LSERDY) == 0U)
90001fee:	e00a      	b.n	90002006 <HAL_RCC_OscConfig+0x762>
      {
        if((HAL_GetTick() - tickstart ) > RCC_LSE_TIMEOUT_VALUE)
90001ff0:	f7fe fe90 	bl	90000d14 <HAL_GetTick>
90001ff4:	4602      	mov	r2, r0
90001ff6:	6a7b      	ldr	r3, [r7, #36]	; 0x24
90001ff8:	1ad3      	subs	r3, r2, r3
90001ffa:	f241 3288 	movw	r2, #5000	; 0x1388
90001ffe:	4293      	cmp	r3, r2
90002000:	d901      	bls.n	90002006 <HAL_RCC_OscConfig+0x762>
        {
          return HAL_TIMEOUT;
90002002:	2303      	movs	r3, #3
90002004:	e1bd      	b.n	90002382 <HAL_RCC_OscConfig+0xade>
      while(__HAL_RCC_GET_FLAG(RCC_FLAG_LSERDY) == 0U)
90002006:	4b0b      	ldr	r3, [pc, #44]	; (90002034 <HAL_RCC_OscConfig+0x790>)
90002008:	6f1b      	ldr	r3, [r3, #112]	; 0x70
9000200a:	f003 0302 	and.w	r3, r3, #2
9000200e:	2b00      	cmp	r3, #0
90002010:	d0ee      	beq.n	90001ff0 <HAL_RCC_OscConfig+0x74c>
90002012:	e01b      	b.n	9000204c <HAL_RCC_OscConfig+0x7a8>
      }
    }
    else
    {
      /* Get Start Tick*/
      tickstart = HAL_GetTick();
90002014:	f7fe fe7e 	bl	90000d14 <HAL_GetTick>
90002018:	6278      	str	r0, [r7, #36]	; 0x24

      /* Wait till LSE is disabled */
      while(__HAL_RCC_GET_FLAG(RCC_FLAG_LSERDY) != 0U)
9000201a:	e011      	b.n	90002040 <HAL_RCC_OscConfig+0x79c>
      {
        if((HAL_GetTick() - tickstart ) > RCC_LSE_TIMEOUT_VALUE)
9000201c:	f7fe fe7a 	bl	90000d14 <HAL_GetTick>
90002020:	4602      	mov	r2, r0
90002022:	6a7b      	ldr	r3, [r7, #36]	; 0x24
90002024:	1ad3      	subs	r3, r2, r3
90002026:	f241 3288 	movw	r2, #5000	; 0x1388
9000202a:	4293      	cmp	r3, r2
9000202c:	d908      	bls.n	90002040 <HAL_RCC_OscConfig+0x79c>
        {
          return HAL_TIMEOUT;
9000202e:	2303      	movs	r3, #3
90002030:	e1a7      	b.n	90002382 <HAL_RCC_OscConfig+0xade>
90002032:	bf00      	nop
90002034:	58024400 	.word	0x58024400
90002038:	900065c0 	.word	0x900065c0
9000203c:	58024800 	.word	0x58024800
      while(__HAL_RCC_GET_FLAG(RCC_FLAG_LSERDY) != 0U)
90002040:	4b97      	ldr	r3, [pc, #604]	; (900022a0 <HAL_RCC_OscConfig+0x9fc>)
90002042:	6f1b      	ldr	r3, [r3, #112]	; 0x70
90002044:	f003 0302 	and.w	r3, r3, #2
90002048:	2b00      	cmp	r3, #0
9000204a:	d1e7      	bne.n	9000201c <HAL_RCC_OscConfig+0x778>
      }
    }
  }
  /*-------------------------------- PLL Configuration -----------------------*/
  /* Check the parameters */
  assert_param(IS_RCC_PLL(RCC_OscInitStruct->PLL.PLLState));
9000204c:	687b      	ldr	r3, [r7, #4]
9000204e:	6a5b      	ldr	r3, [r3, #36]	; 0x24
90002050:	2b00      	cmp	r3, #0
90002052:	d00c      	beq.n	9000206e <HAL_RCC_OscConfig+0x7ca>
90002054:	687b      	ldr	r3, [r7, #4]
90002056:	6a5b      	ldr	r3, [r3, #36]	; 0x24
90002058:	2b01      	cmp	r3, #1
9000205a:	d008      	beq.n	9000206e <HAL_RCC_OscConfig+0x7ca>
9000205c:	687b      	ldr	r3, [r7, #4]
9000205e:	6a5b      	ldr	r3, [r3, #36]	; 0x24
90002060:	2b02      	cmp	r3, #2
90002062:	d004      	beq.n	9000206e <HAL_RCC_OscConfig+0x7ca>
90002064:	f44f 713d 	mov.w	r1, #756	; 0x2f4
90002068:	488e      	ldr	r0, [pc, #568]	; (900022a4 <HAL_RCC_OscConfig+0xa00>)
9000206a:	f7fe fc1a 	bl	900008a2 <assert_failed>
  if ((RCC_OscInitStruct->PLL.PLLState) != RCC_PLL_NONE)
9000206e:	687b      	ldr	r3, [r7, #4]
90002070:	6a5b      	ldr	r3, [r3, #36]	; 0x24
90002072:	2b00      	cmp	r3, #0
90002074:	f000 8184 	beq.w	90002380 <HAL_RCC_OscConfig+0xadc>
  {
    /* Check if the PLL is used as system clock or not */
    if(__HAL_RCC_GET_SYSCLK_SOURCE() != RCC_CFGR_SWS_PLL1)
90002078:	4b89      	ldr	r3, [pc, #548]	; (900022a0 <HAL_RCC_OscConfig+0x9fc>)
9000207a:	691b      	ldr	r3, [r3, #16]
9000207c:	f003 0338 	and.w	r3, r3, #56	; 0x38
90002080:	2b18      	cmp	r3, #24
90002082:	f000 813f 	beq.w	90002304 <HAL_RCC_OscConfig+0xa60>
    {
      if((RCC_OscInitStruct->PLL.PLLState) == RCC_PLL_ON)
90002086:	687b      	ldr	r3, [r7, #4]
90002088:	6a5b      	ldr	r3, [r3, #36]	; 0x24
9000208a:	2b02      	cmp	r3, #2
9000208c:	f040 8120 	bne.w	900022d0 <HAL_RCC_OscConfig+0xa2c>
      {
        /* Check the parameters */
        assert_param(IS_RCC_PLLSOURCE(RCC_OscInitStruct->PLL.PLLSource));
90002090:	687b      	ldr	r3, [r7, #4]
90002092:	6a9b      	ldr	r3, [r3, #40]	; 0x28
90002094:	2b01      	cmp	r3, #1
90002096:	d010      	beq.n	900020ba <HAL_RCC_OscConfig+0x816>
90002098:	687b      	ldr	r3, [r7, #4]
9000209a:	6a9b      	ldr	r3, [r3, #40]	; 0x28
9000209c:	2b00      	cmp	r3, #0
9000209e:	d00c      	beq.n	900020ba <HAL_RCC_OscConfig+0x816>
900020a0:	687b      	ldr	r3, [r7, #4]
900020a2:	6a9b      	ldr	r3, [r3, #40]	; 0x28
900020a4:	2b03      	cmp	r3, #3
900020a6:	d008      	beq.n	900020ba <HAL_RCC_OscConfig+0x816>
900020a8:	687b      	ldr	r3, [r7, #4]
900020aa:	6a9b      	ldr	r3, [r3, #40]	; 0x28
900020ac:	2b02      	cmp	r3, #2
900020ae:	d004      	beq.n	900020ba <HAL_RCC_OscConfig+0x816>
900020b0:	f240 21fd 	movw	r1, #765	; 0x2fd
900020b4:	487b      	ldr	r0, [pc, #492]	; (900022a4 <HAL_RCC_OscConfig+0xa00>)
900020b6:	f7fe fbf4 	bl	900008a2 <assert_failed>
        assert_param(IS_RCC_PLLRGE_VALUE(RCC_OscInitStruct->PLL.PLLRGE));
900020ba:	687b      	ldr	r3, [r7, #4]
900020bc:	6c1b      	ldr	r3, [r3, #64]	; 0x40
900020be:	2b00      	cmp	r3, #0
900020c0:	d010      	beq.n	900020e4 <HAL_RCC_OscConfig+0x840>
900020c2:	687b      	ldr	r3, [r7, #4]
900020c4:	6c1b      	ldr	r3, [r3, #64]	; 0x40
900020c6:	2b04      	cmp	r3, #4
900020c8:	d00c      	beq.n	900020e4 <HAL_RCC_OscConfig+0x840>
900020ca:	687b      	ldr	r3, [r7, #4]
900020cc:	6c1b      	ldr	r3, [r3, #64]	; 0x40
900020ce:	2b08      	cmp	r3, #8
900020d0:	d008      	beq.n	900020e4 <HAL_RCC_OscConfig+0x840>
900020d2:	687b      	ldr	r3, [r7, #4]
900020d4:	6c1b      	ldr	r3, [r3, #64]	; 0x40
900020d6:	2b0c      	cmp	r3, #12
900020d8:	d004      	beq.n	900020e4 <HAL_RCC_OscConfig+0x840>
900020da:	f240 21fe 	movw	r1, #766	; 0x2fe
900020de:	4871      	ldr	r0, [pc, #452]	; (900022a4 <HAL_RCC_OscConfig+0xa00>)
900020e0:	f7fe fbdf 	bl	900008a2 <assert_failed>
        assert_param(IS_RCC_PLLVCO_VALUE(RCC_OscInitStruct->PLL.PLLVCOSEL));
900020e4:	687b      	ldr	r3, [r7, #4]
900020e6:	6c5b      	ldr	r3, [r3, #68]	; 0x44
900020e8:	2b00      	cmp	r3, #0
900020ea:	d008      	beq.n	900020fe <HAL_RCC_OscConfig+0x85a>
900020ec:	687b      	ldr	r3, [r7, #4]
900020ee:	6c5b      	ldr	r3, [r3, #68]	; 0x44
900020f0:	2b02      	cmp	r3, #2
900020f2:	d004      	beq.n	900020fe <HAL_RCC_OscConfig+0x85a>
900020f4:	f240 21ff 	movw	r1, #767	; 0x2ff
900020f8:	486a      	ldr	r0, [pc, #424]	; (900022a4 <HAL_RCC_OscConfig+0xa00>)
900020fa:	f7fe fbd2 	bl	900008a2 <assert_failed>
        assert_param(IS_RCC_PLLM_VALUE(RCC_OscInitStruct->PLL.PLLM));
900020fe:	687b      	ldr	r3, [r7, #4]
90002100:	6adb      	ldr	r3, [r3, #44]	; 0x2c
90002102:	2b00      	cmp	r3, #0
90002104:	d003      	beq.n	9000210e <HAL_RCC_OscConfig+0x86a>
90002106:	687b      	ldr	r3, [r7, #4]
90002108:	6adb      	ldr	r3, [r3, #44]	; 0x2c
9000210a:	2b3f      	cmp	r3, #63	; 0x3f
9000210c:	d904      	bls.n	90002118 <HAL_RCC_OscConfig+0x874>
9000210e:	f44f 7140 	mov.w	r1, #768	; 0x300
90002112:	4864      	ldr	r0, [pc, #400]	; (900022a4 <HAL_RCC_OscConfig+0xa00>)
90002114:	f7fe fbc5 	bl	900008a2 <assert_failed>
        assert_param(IS_RCC_PLLN_VALUE(RCC_OscInitStruct->PLL.PLLN));
90002118:	687b      	ldr	r3, [r7, #4]
9000211a:	6b1b      	ldr	r3, [r3, #48]	; 0x30
9000211c:	2b03      	cmp	r3, #3
9000211e:	d904      	bls.n	9000212a <HAL_RCC_OscConfig+0x886>
90002120:	687b      	ldr	r3, [r7, #4]
90002122:	6b1b      	ldr	r3, [r3, #48]	; 0x30
90002124:	f5b3 7f00 	cmp.w	r3, #512	; 0x200
90002128:	d904      	bls.n	90002134 <HAL_RCC_OscConfig+0x890>
9000212a:	f240 3101 	movw	r1, #769	; 0x301
9000212e:	485d      	ldr	r0, [pc, #372]	; (900022a4 <HAL_RCC_OscConfig+0xa00>)
90002130:	f7fe fbb7 	bl	900008a2 <assert_failed>
        assert_param(IS_RCC_PLLP_VALUE(RCC_OscInitStruct->PLL.PLLP));
90002134:	687b      	ldr	r3, [r7, #4]
90002136:	6b5b      	ldr	r3, [r3, #52]	; 0x34
90002138:	2b00      	cmp	r3, #0
9000213a:	d003      	beq.n	90002144 <HAL_RCC_OscConfig+0x8a0>
9000213c:	687b      	ldr	r3, [r7, #4]
9000213e:	6b5b      	ldr	r3, [r3, #52]	; 0x34
90002140:	2b80      	cmp	r3, #128	; 0x80
90002142:	d904      	bls.n	9000214e <HAL_RCC_OscConfig+0x8aa>
90002144:	f240 3102 	movw	r1, #770	; 0x302
90002148:	4856      	ldr	r0, [pc, #344]	; (900022a4 <HAL_RCC_OscConfig+0xa00>)
9000214a:	f7fe fbaa 	bl	900008a2 <assert_failed>
        assert_param(IS_RCC_PLLQ_VALUE(RCC_OscInitStruct->PLL.PLLQ));
9000214e:	687b      	ldr	r3, [r7, #4]
90002150:	6b9b      	ldr	r3, [r3, #56]	; 0x38
90002152:	2b00      	cmp	r3, #0
90002154:	d003      	beq.n	9000215e <HAL_RCC_OscConfig+0x8ba>
90002156:	687b      	ldr	r3, [r7, #4]
90002158:	6b9b      	ldr	r3, [r3, #56]	; 0x38
9000215a:	2b80      	cmp	r3, #128	; 0x80
9000215c:	d904      	bls.n	90002168 <HAL_RCC_OscConfig+0x8c4>
9000215e:	f240 3103 	movw	r1, #771	; 0x303
90002162:	4850      	ldr	r0, [pc, #320]	; (900022a4 <HAL_RCC_OscConfig+0xa00>)
90002164:	f7fe fb9d 	bl	900008a2 <assert_failed>
        assert_param(IS_RCC_PLLR_VALUE(RCC_OscInitStruct->PLL.PLLR));
90002168:	687b      	ldr	r3, [r7, #4]
9000216a:	6bdb      	ldr	r3, [r3, #60]	; 0x3c
9000216c:	2b00      	cmp	r3, #0
9000216e:	d003      	beq.n	90002178 <HAL_RCC_OscConfig+0x8d4>
90002170:	687b      	ldr	r3, [r7, #4]
90002172:	6bdb      	ldr	r3, [r3, #60]	; 0x3c
90002174:	2b80      	cmp	r3, #128	; 0x80
90002176:	d904      	bls.n	90002182 <HAL_RCC_OscConfig+0x8de>
90002178:	f44f 7141 	mov.w	r1, #772	; 0x304
9000217c:	4849      	ldr	r0, [pc, #292]	; (900022a4 <HAL_RCC_OscConfig+0xa00>)
9000217e:	f7fe fb90 	bl	900008a2 <assert_failed>
        assert_param(IS_RCC_PLLFRACN_VALUE(RCC_OscInitStruct->PLL.PLLFRACN));
90002182:	687b      	ldr	r3, [r7, #4]
90002184:	6c9b      	ldr	r3, [r3, #72]	; 0x48
90002186:	f5b3 5f00 	cmp.w	r3, #8192	; 0x2000
9000218a:	d304      	bcc.n	90002196 <HAL_RCC_OscConfig+0x8f2>
9000218c:	f240 3105 	movw	r1, #773	; 0x305
90002190:	4844      	ldr	r0, [pc, #272]	; (900022a4 <HAL_RCC_OscConfig+0xa00>)
90002192:	f7fe fb86 	bl	900008a2 <assert_failed>

        /* Disable the main PLL. */
        __HAL_RCC_PLL_DISABLE();
90002196:	4b42      	ldr	r3, [pc, #264]	; (900022a0 <HAL_RCC_OscConfig+0x9fc>)
90002198:	681b      	ldr	r3, [r3, #0]
9000219a:	4a41      	ldr	r2, [pc, #260]	; (900022a0 <HAL_RCC_OscConfig+0x9fc>)
9000219c:	f023 7380 	bic.w	r3, r3, #16777216	; 0x1000000
900021a0:	6013      	str	r3, [r2, #0]

        /* Get Start Tick*/
        tickstart = HAL_GetTick();
900021a2:	f7fe fdb7 	bl	90000d14 <HAL_GetTick>
900021a6:	6278      	str	r0, [r7, #36]	; 0x24

        /* Wait till PLL is disabled */
        while(__HAL_RCC_GET_FLAG(RCC_FLAG_PLLRDY) != 0U)
900021a8:	e008      	b.n	900021bc <HAL_RCC_OscConfig+0x918>
        {
          if((HAL_GetTick() - tickstart ) > PLL_TIMEOUT_VALUE)
900021aa:	f7fe fdb3 	bl	90000d14 <HAL_GetTick>
900021ae:	4602      	mov	r2, r0
900021b0:	6a7b      	ldr	r3, [r7, #36]	; 0x24
900021b2:	1ad3      	subs	r3, r2, r3
900021b4:	2b02      	cmp	r3, #2
900021b6:	d901      	bls.n	900021bc <HAL_RCC_OscConfig+0x918>
          {
            return HAL_TIMEOUT;
900021b8:	2303      	movs	r3, #3
900021ba:	e0e2      	b.n	90002382 <HAL_RCC_OscConfig+0xade>
        while(__HAL_RCC_GET_FLAG(RCC_FLAG_PLLRDY) != 0U)
900021bc:	4b38      	ldr	r3, [pc, #224]	; (900022a0 <HAL_RCC_OscConfig+0x9fc>)
900021be:	681b      	ldr	r3, [r3, #0]
900021c0:	f003 7300 	and.w	r3, r3, #33554432	; 0x2000000
900021c4:	2b00      	cmp	r3, #0
900021c6:	d1f0      	bne.n	900021aa <HAL_RCC_OscConfig+0x906>
          }
        }

        /* Configure the main PLL clock source, multiplication and division factors. */
        __HAL_RCC_PLL_CONFIG(RCC_OscInitStruct->PLL.PLLSource,
900021c8:	4b35      	ldr	r3, [pc, #212]	; (900022a0 <HAL_RCC_OscConfig+0x9fc>)
900021ca:	6a9a      	ldr	r2, [r3, #40]	; 0x28
900021cc:	4b36      	ldr	r3, [pc, #216]	; (900022a8 <HAL_RCC_OscConfig+0xa04>)
900021ce:	4013      	ands	r3, r2
900021d0:	687a      	ldr	r2, [r7, #4]
900021d2:	6a91      	ldr	r1, [r2, #40]	; 0x28
900021d4:	687a      	ldr	r2, [r7, #4]
900021d6:	6ad2      	ldr	r2, [r2, #44]	; 0x2c
900021d8:	0112      	lsls	r2, r2, #4
900021da:	430a      	orrs	r2, r1
900021dc:	4930      	ldr	r1, [pc, #192]	; (900022a0 <HAL_RCC_OscConfig+0x9fc>)
900021de:	4313      	orrs	r3, r2
900021e0:	628b      	str	r3, [r1, #40]	; 0x28
900021e2:	687b      	ldr	r3, [r7, #4]
900021e4:	6b1b      	ldr	r3, [r3, #48]	; 0x30
900021e6:	3b01      	subs	r3, #1
900021e8:	f3c3 0208 	ubfx	r2, r3, #0, #9
900021ec:	687b      	ldr	r3, [r7, #4]
900021ee:	6b5b      	ldr	r3, [r3, #52]	; 0x34
900021f0:	3b01      	subs	r3, #1
900021f2:	025b      	lsls	r3, r3, #9
900021f4:	b29b      	uxth	r3, r3
900021f6:	431a      	orrs	r2, r3
900021f8:	687b      	ldr	r3, [r7, #4]
900021fa:	6b9b      	ldr	r3, [r3, #56]	; 0x38
900021fc:	3b01      	subs	r3, #1
900021fe:	041b      	lsls	r3, r3, #16
90002200:	f403 03fe 	and.w	r3, r3, #8323072	; 0x7f0000
90002204:	431a      	orrs	r2, r3
90002206:	687b      	ldr	r3, [r7, #4]
90002208:	6bdb      	ldr	r3, [r3, #60]	; 0x3c
9000220a:	3b01      	subs	r3, #1
9000220c:	061b      	lsls	r3, r3, #24
9000220e:	f003 43fe 	and.w	r3, r3, #2130706432	; 0x7f000000
90002212:	4923      	ldr	r1, [pc, #140]	; (900022a0 <HAL_RCC_OscConfig+0x9fc>)
90002214:	4313      	orrs	r3, r2
